:020000040020DA
:1000000002200D939000F5CC12000D747810EC4D89
:100010004E4F70047CA57DA5C3EC13FCED13FDEEE3
:1000200013FEEF13FF5010EC64CCFCED644CFDEEBE
:10003000644EFEEF64CEFFD8DF9000F5CC12000DC9
:10004000B5EE547FFE229000F5CCEEF0EFA3F0A3C6
:1000500074A5F0A3F0223030303000000000000022
:10006000000000000000000000000000000007FF8A
:1000700002277D96000000000227C1620227C0C24D
:10008000022396C70226A146222A2B220222619829
:100090000221803502248234C0E0F5E0C0E0900007
:1000A000F628E06401700975E00215E070FC802418
:1000B0009000F628E06402700975E01415E070FC09
:1000C00080129000F628E06403700975E03015E0B6
:1000D00070FC8000D0E0E5E0D0E0220000000000ED
:1000E0000000000000000000000000220224B352C3
:1000F0000225FB2822000000000000000000000094
:1001000000000000000000000000000000000000EF
:1001100000000000000000000000000000000000DF
:1001200000000000000000000000000000000000CF
:10013000000000000000000000000006FF0227058C
:10014000010322220227C38EE09028FE00F103095A
:100150000000F3010AF40401000004F203090001A5
:10016000F3023506F40619110E19110FF2030900F6
:1001700004F3023510F41035061901000900173593
:1001800006190017090104F203090006F3023509F4
:10019000F40909656E09006A090100F20309000902
:1001A000F3023508F408350619110E090106F203A9
:1001B000090100F3022508F4084156524350204338
:1001C00054F203090102F3022504F4044D4348509C
:1001D000F203090311F30109F4020001FFE08D2885
:1001E000FE90F103090000F3010AF4040100000588
:1001F000F203090001F3023503F40319110CF203B1
:10020000090004F3023510F4103506190100090045
:10021000173506190017090104F203090006F30255
:100220003509F40909656E09006A090100F203093C
:100230000009F3023508F408350619110E09010604
:10024000F203090100F3022508F408415652435015
:10025000205447F203090102F3022504F4044D433C
:100260004850F203090311F30109F4020002FF50A0
:10027000DD4855E405D2AF9FA98FE54A7DFE435383
:10028000534942DC02001053DCB318A20016962436
:1002900047C62361BAD94B4D1E4353534942DD44EF
:1002A000001350DBD316962447C62361BAD94B4DB1
:1002B0001E4353534941DD470042DBD1000142DC7C
:1002C000C6000042DD58000253DC370CA500B39B8A
:1002D0007234BEECD4A8F44341884353534942DD01
:1002E00042001350DBC1B39B7234BEECD4A8F4437C
:1002F00041884353534941DD460042DBBF0001536F
:10030000DBEF1CA7007E3B07FF1C51492FB3398A46
:100310004C4353534942DC13001350DCD27E3B075D
:10032000FF1C51492FB3398A4C4353534941DC15C3
:100330000042DCD0000142DC0E000042DC1600026C
:10034000605ADC59F0A2DD48DC0200100001F082A6
:10035000DCB3DD4400130001DBD3DD47DBD100F764
:100360000D10F080DCC6DD5800022111F082DC3770
:10037000DD4200130001DBC1DD46DBBF00F70D10DD
:10038000F082DBEFDC1300130001DCD2DC15DCD0E3
:1003900000F70D10F080DC0EDC160002211148DCA5
:1003A000C80000DC5900A000A841EE300044EE2A4D
:1003B0000000000047EE3420434C43433A2041EE16
:1003C0003B8241EE31006042EE3CFF00FF01020241
:1003D00003030404050506060707080809090A0AB5
:1003E0000B0B0C0C0D0D0E0E260F290F10101711F4
:1003F0001A121D1323142415FF16FF17FF18FF19D7
:10040000FF1AFF1BFF1CFF1DFF1EFF1F58C4A40087
:10041000A3000100A8000100C5000100F3000100D5
:10042000F7000100FA000141ED830041EDAA00420E
:10043000F19B000043F28800000043F28B000000B3
:1004400041F33C0141D13D0041D1400141D2750011
:1004500041D2760041D2710041D1313341CC1000FC
:1004600042CC16000042DEA60A1842DEBA0002455F
:10047000DECB02D200292A42DEEF000542DFDC2972
:100480002A44DEFB4D43485042DFDA000445DED902
:1004900002D400242A42DF05000542DEAA242A44B1
:1004A000DF07424D383342DEA8000445DEC602D6DF
:1004B00000252A42DEED000542DFD8252A44DEF77A
:1004C0003030303042DFD6000445DEC102D800278C
:1004D0002A42DEE0000542DFCC272A46DEF1425404
:1004E000424D383342DFCA000645DEBC02DA002640
:1004F0002A42DEDE000542DFC8262A46DEE731302A
:100500003030303342DFC6000645DED402DC00283E
:100510002A42DEFF000542DEA4282A44DF013030F3
:10052000303042DEA2000445DEE202DE00232A4231
:10053000DFC4000542DEB8232A48DFCE00000000F9
:100540000000000042DEB6000845DFBD02E0002AE0
:100550002A42DEAC000542DED22A2A48DEAE000086
:1005600000000100000042DED0000860AADF0BF0AE
:10057000A2DEA6DEBA00020001F082DECBDEEF00D2
:10058000050001DFDCDEFBDFDA00F70A01F082DEC6
:10059000D9DF0500050001DEAADF07DEA800F70AA3
:1005A00001F082DEC6DEED00050001DFD8DEF7DFF8
:1005B000D600F70A01F082DEC1DEE000050001DFAF
:1005C000CCDEF1DFCA00060001F082DEBCDEDE0018
:1005D000050001DFC8DEE7DFC600060001F082DEAD
:1005E000D4DEFF00050001DEA4DF01DEA200F70A71
:1005F00001F082DEE2DFC400050001DEB8DFCEDEFE
:10060000B600080001F082DFBDDEAC00050001DEAF
:10061000D2DEAEDED00008000148DFB50000DF0BFF
:1006200000D000E050E17CC2EA3379AFA9CD832449
:100630004CE0874353534942E1CE001053E1A49A62
:10064000F20045106CF2B716219670445CB7435324
:10065000534942E240001350E13B45106CF2B7169B
:10066000219670445CB74353534941E2550042E23E
:100670003E025842E1CA000042E256000244E178DC
:100680000100002942E1CC000453E24218F6003F89
:100690006A776644F021B57749B64B4353534942D4
:1006A000E139001350E1673F6A776644F021B5777E
:1006B00049B64B4353534941E15E0042E1370001E3
:1006C00042E258000042E15F000253E14B1AF90098
:1006D000786D43F61088DE94A345D12D43535349DA
:1006E00042E165001350E1BA786D43F61088DE945C
:1006F000A345D12D4353534941E1770042E16300C3
:100700000142E161000042E18C0002606EE1D0F044
:10071000A2E17CE1CE00100001F082E1A4E2400001
:10072000130001E13BE255E23E00F71F11F080E1CA
:10073000CAE25600022111F0A0E178E1CC000400E9
:1007400011F082E242E13900130001E167E15EE16C
:100750003700F70D10F080E258E15F00022110F041
:1007600082E14BE16500130001E1BAE177E163004A
:10077000F70D10F080E161E18C0002211148E12FBA
:100780000000E1D000F000FA50E783E4A581502991
:1007900097F0FC1A44D5044353534942E7B600107E
:1007A00053E80602C20032A23EF5B468DFDB4839E6
:1007B00027984353534942E780001350E7A632A2DB
:1007C0003EF5B468DFDB483927984353534941E786
:1007D000820042E7A4000153E81918C400EDFDAD02
:1007E00023D3EEDAE5276CE3954353534942E7936D
:1007F000001350E7BAEDFDAD23D3EEDAE5276CE345
:10080000954353534941E7950042E7B8000142E858
:1008100034000042E7960002603CE7CAF0A2E7839A
:10082000E7B600100001F082E806E780001300013F
:10083000E7A6E782E7A400F70E01F082E819E79344
:1008400000130001E7BAE795E7B800F70D10F08054
:10085000E834E7960002211148E82C0000E7CA00BE
:10086000C000C541F628006040EB21800000000078
:100870000000000000000000000000000000000078
:100880000000000000000000000000000000000068
:100890000000000000000000000000000000000058
:1008A000000000000000000000000041DAF90060D4
:1008B00030DAFCA8DB01A8DAB7A8DAF1A8DAA3A835
:1008C000DADEA8DA8CA8DAC8A8DA72A8DA65A8DABB
:1008D0001BA8DA55A8DA07A8DA42A8D9F0A8DA2CBA
:1008E000A8D9D641D9FB0041D9FC0041D9FD00412E
:1008F000D9FE0141D9FF0041EE7E0044EE7F0000A9
:10090000000042F096001842F092011842F0A20056
:100910002842F0A4012842F08E022842F0820328E7
:1009200042F0A0002942F08C012942F080022942C5
:10093000F086032942F084042942F07E052942F022
:100940009A002A42F088012A42F090042A42F09844
:10095000052A42F08AA62A42F0A6C92A42F0942922
:100960002B42F09E2A2B42F09C3A2B50F23400008E
:10097000000000000000000000000000008742E4CA
:1009800098000245E3960A0300002A42E446000567
:100990006020E4504254353531315F53444B000000
:1009A0000000000000000000000000000000000047
:1009B0000000000042E489000A45E47A02050001D3
:1009C0002A42E494000542E496000042E3940002C7
:1009D00045E3C9020700042A42E470000548E472B6
:1009E0000800000A02010D0042E492000845E48478
:1009F000020900A62A42E49F000541E3840042E385
:100A00009F000145E47F020B00C92A42E49C0005D7
:100A100041E49E0042E39D0001606EE3CEF0A2F04F
:100A200096E49800020001F082E396E44600050097
:100A300001F09AE450E48900201B11F082E47AE48A
:100A40009400050001F088E496E39400020001F0B0
:100A500082E3C9E47000050001F090E472E49200C2
:100A6000080001F082E484E49F00050001F08AE3BD
:100A700084E39F00010001F082E47FE49C00050014
:100A800001F0A6E49EE39D0001000148E448000057
:100A9000E3CE0001000B42E490000245E48B2012FB
:100AA00000052A42E385000544E3870100FFFF4279
:100AB000E43C000442E49A000042E39B0002602808
:100AC000E3A1F0A2F092E49000020001F082E48B36
:100AD000E38500050001F098E387E43C0004000092
:100AE000F080E49AE39B0002201148E43E0000E31A
:100AF000A10010001341F3860043F38B0001034172
:100B0000F3830041F3840041F3850041F143005039
:100B1000EA10666DD038E26F4AA483CCD0C9434353
:100B2000534942E99B001053E9A01832001803A66C
:100B3000285ED8EC911C48A3AC4353534942EA0BBE
:100B4000001350EA351803A6285ED8EC911C48A380
:100B5000AC4353534941EA0D0042EA33000142EAF3
:100B600001000042EA0E000253EA200435004F84DF
:100B7000F610761AD4BD4941E4184353534942E96B
:100B80009D001350E9F14F84F610761AD4BD494107
:100B9000E4184353534941E99F0042E9EF000160E3
:100BA0003CE9B3F0A2EA10E99B00100001F082E9F1
:100BB000A0EA0B00130001EA35EA0DEA3300F70D55
:100BC00010F080EA01EA0E00022111F082EA20E929
:100BD0009D00130001E9F1E99FE9EF00F70D1048CE
:100BE000EA030000E9B30030003544E101003300BE
:100BF000010041F63800C2D530F707B2D563F0FFE7
:100C000005F030E70DB2D5F404008463F0FF05F081
:100C100080018430D502F40422BC000BBE0029EF11
:100C20008DF084FFADF022E4CCF875F008EF2FFFD3
:100C3000EE33FEEC33FCEE9DEC984005FCEE9DFEA1
:100C40000FD5F0E9E4CEFD22EDF8F5F0EE008420BA
:100C5000D21CFEADF075F008EF2FFFED33FD40071D
:100C6000985006D5F0F222C398FD0FD5F0EA22C2C3
:100C7000D5EC30E709B2D5E4C39DFDE49CFCEE3031
:100C8000E716B2D5E4C39FFFE49EFE12200C19C301
:100C9000E49DFDE49CFC800412200C1930D507C3B0
:100CA000E49FFFE49EFE22F8EB700C09E5F027C7F5
:100CB000F5F019E837C72289828A831410E707F50F
:100CC00093E802000B1FF593E4740193F5F0E493AD
:100CD00022BB000B09C5F027F7C5F01937F722F83A
:100CE000EB89828A831410E707F593E802000B0969
:100CF000F59374019325F0F5F0E4933822EB700638
:100D0000E9F802200D3789828A831410E706F593EB
:100D100002000D9CF59302200D44EB7006E9F802E9
:100D2000200D5489828A831410E706F59302000D82
:100D3000D9F59302200D5DE6FB08E6F908E6FA080E
:100D4000E6CBF822E493F8740193F9740293FA74F1
:100D50000393FB22E6FB08E6FA08E6F922E493FB9C
:100D6000740193FA740293F92202279E3FE493A33D
:100D7000F85407240CC8C333C4540F4420C883401C
:100D800004F456800146F6DFE4800C0102040810EA
:100D900020408090200148E47E019360CCA3FF5462
:100DA0003F30E509541FFEE493A360010ECF54E0E9
:100DB000B4E029E493FBA3E493FAA3E493F9A3E456
:100DC00093C083C08212000AE3759320D082D0833F
:100DD000A309E970010ADFE7DEE580BB54C025E026
:100DE000602B4089E493A3FAE493A3F8E493A3C8A7
:100DF000C582C8CAC583CA759300F0759320A3C87D
:100E0000C582C8CAC583CADFE3DEE1808AE493A352
:100E1000F8E493A34003F68001F208DFF402200D0A
:100E200097A891770004D104A8A96F0001B701A881
:100E30008C5E00019E47A8B1FB00019E69A8B2121A
:100E400000019EBAA88C8500019ED1A881E3000113
:100E5000587DA88CAC0002BA8CA804FB0003D49582
:100E6000A88F0D000140AEA7BC8100032D73A844DC
:100E7000590003EBF7A6CE3700047A35A8BB65000E
:100E80000324C2A8A98B0000100FA82929000283FF
:100E90000BA8BB76000396B6A8BB8700039797A85C
:100EA000AEA9000486D1A8B8E200044D67A85FB1DE
:100EB0000001B5AAA876DC00017A0AA84C15000347
:100EC0006114A8BE4800008D66A7B153000288E1F6
:100ED000A8732F0003B920A8339B000151A2A88951
:100EE0004A0004E099A7FD6B00026772A6FE9D0010
:100EF00001BE52A813F6000320A2A8B7500002CBEF
:100F0000013F65098601000A0004781D35330D0D87
:100F10001305447F50244050300002204040140804
:100F20000016200A1016201E0F0F5555160A540BD6
:100F30000412000010120700000319FF40F07F4068
:100F4000000077015E00F001E000C8204E0000487C
:100F500039302420181260000000000000100080CA
:100F60000000805F9B34FB0000FFFF0000000000DA
:100F700000000000000000FFFF0000000000000073
:100F80000000000000000000002222222222222273
:100F9000222222222222222222000000000000001F
:100FA000000000424D38335F4D53504B323000004B
:100FB0000000000000000000000000000000000031
:100FC0000000000000000000424D38335F4D5350D8
:100FD0004B323000000000C103000000200110016E
:100FE000130114C101000000010000000100000015
:100FF0000100000000000000000000000000000DE3
:101000000A0D0A2202255E6302268F254D414749BB
:1010100043E4FF220227B554022762400226644DB2
:10102000022627E40226EFCB0226C3FD02252F5617
:101030000221223902227609022780570225B94A65
:101040000224290A0223E6D70227034D0221CBE01E
:10105000022706A50223D076022698120227451DF4
:101060000226CCE302276AFC0226A72502277CB5CC
:10107000022671C9022632D302269BC70226C186E8
:101080000225B88002259F780227853B0224F63985
:10109000424C455F424D383353444B003A30303078
:1010A000309000C7F71220E63F7EC77FFC7B11FD22
:1010B0001200004F1220E558E012000E68110F01D7
:1010C00011D40212B40313F10413F105151206161C
:1010D000FE07179D08182109185C0A18FD0B195204
:1010E0000C19870D1A060E1A850F1B64101BDE11D2
:1010F0001AFA121B27131C67141CC6151D41161F54
:101100000F171D72181D8D191DA91A00001EF08FD2
:10111000821220E24D122755911220E38670028040
:10112000189000C7FBE01220E25A1220E3DA240CE8
:101130001220E236E0640370109000C7F71220E23C
:1011400047E0FF7D01022750E91220EBB91220E2AF
:101150004BE0FD9000C7F91220E52A24281220E276
:1011600036EDF08F821220E24DE0FFE4FD122750B1
:10117000E99000C7F71220E28124041220E236E051
:101180006003011F0F9000C7F91220E2A924231267
:1011900020E236E030E203011F0F1220E28E12201F
:1011A000E234E030E203011F0F9000C7F91220E2A1
:1011B0008324221220E236E054FB1220E28D242305
:1011C0001220E2361220E71A9000C8CD7401F07B9D
:1011D000020112AE9000C7F71220E2471220E37E10
:1011E0007003011F0FE01220E25A1220E3DA240CF0
:1011F0001220E236E06403700E9000C7F71220E27E
:1012000047E0FF022789739000C7F71220E281248C
:10121000041220E236E0FFF460259000C7F91220A6
:10122000E33924291220E4F3C083C0821220E94468
:101230008002C333D8FC4E759300D082D083F090E7
:1012400000C7F71220E28124041220E236E0600396
:10125000011F0F9000C7F91220E2A924251220E2F5
:1012600036E054FB1220E28D24231220E236E054B3
:10127000FBF09000C7F91220E2A924221220E236E6
:10128000E054FB1220E28D1220E2341220E71A7D96
:10129000031226323A1220E71E7B027D1012201F15
:1012A000107B037D1112201F101220E8C6FBE4FD05
:1012B0000227907B9000C7F71220E2471220E37EBE
:1012C0007003011F0F1220E258AD82AC839000C75B
:1012D000F9ECF0A3EDF09000C7F71220E320A3A3F0
:1012E000E0702612201F1D1220E22FE054FB122076
:1012F000E28D24231220E236E054FB1220E27C240B
:10130000221220E236E054FBF09000C7F71220E2F0
:1013100047A3E06004640170371220E27D242C12A0
:1013200020E236E0FFF4600D1220E3352F1220E2B8
:1013300036E0547FF09000C7F91220E2A9242C1265
:1013400020E2361220E28B242D1220E23674FFF0C8
:101350009000C7FCE4F0A304F09000C7FBE090000D
:10136000C7FEF09000C8007402F09000C7F712208A
:10137000E247A3E0FFF460269000C7F91220E339AA
:1013800024291220E4F3C083C0821220E9448002A1
:10139000C333D8FCF45E759300D082D083F0900004
:1013A000C7F71220E247A3E070339000C7F912207C
:1013B000E2A924291220E236E41220E28D2425122B
:1013C00020E236E054FBF0E49000C801F07EC77FD5
:1013D000FC1226AC101220E71E122722FB9000C739
:1013E000F71220E2471220EA786003011F0F01156F
:1013F000061220E558E06404700280089000C7F7E8
:101400001220E819759300A31220EBC38F821220DB
:10141000E24DA3E09000C80EF09000C80D1220E34A
:101420007E7003011F0FE01220E25A1220E67C902A
:1014300000C80EE0FFF460269000C7F91220E339DF
:1014400024291220E4F3C083C0821220E9448002E0
:10145000C333D8FCF45E759300D082D083F0900043
:10146000C80EE060030114F91220E71E12201F1DB0
:101470001220E22FE054FB1220E28D24231220E2FE
:1014800036E054FBF09000C7F91220E2A92425129F
:1014900020E236E054FB1220E28D24221220E236B4
:1014A000E054FB1220E27C242C1220E236E0FFF410
:1014B000600D1220E3352F1220E236E0547FF090C9
:1014C00000C7F91220E2A9242C1220E2361220E2F1
:1014D0008B242D1220E2361220E28B24291220E2E6
:1014E00036E41220E71D1220E8CF7B02FD12279080
:1014F0007B1220E71E122722FB9000C80D1220EA63
:10150000786003011F0FFD122643F69000E3790176
:10151000181D9000C7F8E02401FF9000C7F7E034E1
:1015200000FE9000C80DF0A3EFF01220E56112203C
:10153000E37E7003011F0FE49000C82BF0A3F0902E
:1015400000C7FBE01220E25A1220E3DA242A12201C
:10155000E236E0FEA3E0FF9000C82B1220E61470F4
:1015600003011F0F9000C82B1220E4541220EB49F6
:10157000FFC39D50641220EBCAEF1220EAD712205D
:10158000E2FDE58224041220E236E0FCA3E0122012
:10159000EB542405FD9000C80DE03400FC7B1A12CA
:1015A0000012101220EBCA1220E324A3E075F0040D
:1015B000A4FFAEF01220E2FD1220E8FB1220EB5453
:1015C0009000C80D1220E8487B0412001210900011
:1015D000C82B1220E247E004F09000C82B1220E450
:1015E000541220EB496D6003011F0F9000C82BA31C
:1015F000E0FF7CC87D117AC87B0F122132E1900098
:10160000C810EFF0F470030116C39000C82B12202D
:10161000E247A31220E454C083C0821220EB15D00D
:1016200082D0831220EAF6E0FD1220E27D24281207
:1016300020E236E0FF9000C810E004FB9000C830C4
:1016400074C8F0A37411F0122413129000C8101281
:1016500020E352242C1220E236EFF09000C82B1227
:1016600020E4BBA3A3E0FAA3E0F5828A83C083C091
:10167000821220EB15D082D0831220EAF6E0FE120F
:1016800020E2FDE582242D1220E236EEF09000E308
:101690006C1220E3582F1220E236E04480F09000D4
:1016A000C810E0FF1220E2FDE5822F1220E236E0B2
:1016B000547F6404700D1220E71EE4FBFA7DC21211
:1016C00025E8D19000C82B1220E28124041220E2E8
:1016D0003612201F2D9000C82B1220E247A31220A3
:1016E0001F2D9000C82BE0FEA3E0FF122682B0124F
:1016F00020E27D242A1220E236E4F0A3F0229000BA
:10170000C7F71220E2471220E37E7003011F0FE0AB
:101710001220E25A1220E67C9000C7F91220E2A9BA
:10172000242E1220E236E4F01220E9BB1220E3243A
:10173000A3A3A3E0C39401FB1220E28E242C122069
:10174000E236EB1220E2FCA31220E351242D1220FA
:10175000E236EF1220E2FCE582242C1220E236E091
:10176000FF9000E36C1220E3582F1220E236E04491
:10177000801220E27C242C1220E2361220EBC3E0FF
:10178000FF1220E2FDE5822F1220E2361220EB5FED
:101790006003011F0F1220E71EE40118F59000C737
:1017A000F71220E2471220E37E7003011F0FE012C0
:1017B00020E25A1220E3DA242E1220E236E4F090DE
:1017C00000C7F71220E247A3E0701E1220E3542462
:1017D000281220E236E0FF1220E2FDE582242D12DD
:1017E00020E236E0FD02279A641220E27D242C12CA
:1017F00020E236E0FFF4600D1220E3352F1220E2E4
:1018000036E0547FF09000C7F91220E2A9242C1290
:1018100020E2361220E28B242D1220E23674FFF0F3
:10182000229000C7F71220E2471220E37E700301E6
:101830001F0F9000C7F71220E281241D1220E2360C
:10184000E06003011F0F9000C7FBE01220E25A1274
:1018500020E3DA242E1220E236E4F0229000C7F7CB
:101860001220E2471220E37E7003011F0F1220E2D4
:101870007D242E1220E236E064016003011F0F90E8
:1018800000C7FBE0F91220E25A1220E67C1220E3A6
:1018900054242E1220E2367401F09000C7F7122073
:1018A000E4BBA3A3E0C39401FB1220E2FDE5822484
:1018B0002C1220E236EB1220E28D242C1220E2368C
:1018C000E09000E36C1220E7D22D1220E236E044D3
:1018D000801220E28D242C1220E2361220EBC3E08D
:1018E000FF1220E3662F1220E2361220EB5F600326
:1018F000011F0FAF01FBFA7DC20225E8D19000C79E
:10190000F71220E2471220E37E7003011F0F9000C0
:10191000C7F71220E247A3E06003011F0F9000C742
:10192000FBE01220E25A1220E3DA242E1220E236E3
:1019300074011220E28D24281220E236E0FF90008C
:10194000C7F91220E339242D1220E236E0FD0227E8
:101950009A849000C7F71220E2471220E37E7003BA
:10196000011F0F1220E2581220E479242E1220E2E7
:10197000367401F09000C7FC7420F0A374011220AB
:10198000E2F9E582011D329000C7F71220E247120A
:1019900020E37E7003011F0F9000C7F71220E2477B
:1019A000A3E06003011F0F9000C7FBE01220E25A82
:1019B0001220E3DA242E1220E23674011220E28D86
:1019C00024291220E236E054029000C7F970121266
:1019D00020E28124281220E236E0FF1227A73F8070
:1019E0001E1220E35824281220E236E0FF1220E2E3
:1019F000FDE582242D1220E236E0FD12279A8412A2
:101A000020E268011D329000C7F71220E247122041
:101A1000E37E7003011F0FE49000C80DF0A3F012E5
:101A200020E2541220E479242E1220E2367402F0CF
:101A3000122607807E009000C80DEEF0A3EFF06440
:101A4000017003011F0F1220E951F460179000C7C5
:101A5000F71220E320A3E0FEEF6E60089000E37928
:101A600012201F379000C7F71220E24712201F45AF
:101A7000700C9000C7F71220E2471220EAAD122046
:101A8000E268011D329000C7F71220E2471220E3FE
:101A90007E7003011F0F1220EBB91220E24BA3A3AB
:101AA000E06003011F0F9000C7FBE01220E25A1212
:101AB00020E479242E1220E2367402F09000E379BB
:101AC000E0FDF460148F821220E24DE0FFED6F60C4
:101AD000081220E95112201F379000C7F71220E2A8
:101AE0004712201F45700C9000C7F71220E24712E2
:101AF00020EAAD1220E268011D329000C7F71220E3
:101B0000E2471220E37E7003011F0F1220E25812F9
:101B100020E479242E1220E2367401F01227924A32
:101B20001220E268011D329000C7F71220E247122E
:101B300020E37E7003011F0F9000C7F71220E247D9
:101B4000A3A3E06003011F0F1220E2541220E479E6
:101B5000242E1220E2367401F01227924A1220E25B
:101B600068011D329000C7F71220E2471220E37E81
:101B70007003011F0F1220E2581220E479242E1264
:101B800020E23612201F3E1220E27D242C1220E299
:101B900036E0FFF4600D1220E3352F1220E236E02C
:101BA000547FF09000C7F91220E2A9242C1220E201
:101BB000361220E28B242D1220E23674FFF09000C2
:101BC000C7F71220E2471220E94FB5060AE4FD12DA
:101BD0002643F61220E86F1220E268011D329000C1
:101BE000C7F71220E2471220E37E7003011F0F9017
:101BF00000C7F71220E247A3E06003011F0F122085
:101C0000E2541220E479242E1220E23612201F3EE4
:101C10001220E27D242C1220E236E0FFF4600D1247
:101C200020E3352F1220E236E0547FF09000C7F910
:101C30001220E2A9242C1220E2361220E28B242D5D
:101C40001220E23674FFF09000C7F71220E247122C
:101C500020E94FB5060AE4FD122643F61220E86F8C
:101C60001220E268011D329000C7F71220E24712ED
:101C700020E37E7003011F0F1220E2581220E47946
:101C8000242E1220E236E4F01227924A1220E27D3E
:101C9000242C1220E236E0FFF4600D1220E3352FF1
:101CA0001220E236E0547FF09000C7F91220E2A93A
:101CB000242C1220E2361220E28B242D1220E23650
:101CC0001220E265806C9000C7F71220E2471220D4
:101CD000E37E7003011F0F9000C7F71220E247A3B5
:101CE000E06003011F0F1220E2541220E479242E39
:101CF0001220E236E4F01227924A1220E27D242CD0
:101D00001220E236E0FFF4600D1220E3352F12209E
:101D1000E236E0547FF09000C7F91220E2A9242CAB
:101D20001220E2361220E28B242D1220E2361220FD
:101D3000E265242E1220E236E09000C7FFF0011F7A
:101D4000071220E9BB1220E324A3E0FF1220E2FDEA
:101D50001220E8FAFD9000C7F71220E52A240512A8
:101D600020E236E0FAA3E0FBE49000C832F002275C
:101D700011BF9000C7F71220E2471220E37E7003E4
:101D8000011F0FE01220E25A1220E67C229000C7C9
:101D9000F71220E2471220E37E7003011F0F90002C
:101DA000C7F71220E247A3E0229000C7F71220E213
:101DB000471220E37E7003011F0F9000C7F7122027
:101DC000E247A3A3E06003011F0F9000C7FBE012EE
:101DD00020E25A1220E67C7F067E001225971D1213
:101DE00020E354242A1220E2361220E2F8E582246D
:101DF0002A1220E236E0FEA3E04E7003011F0F908E
:101E000000C7F71220E2471220E351242A1220E2F1
:101E1000361220E4BBEF1220E2FCE582242A1220D5
:101E2000E2361220E247E41220E27C242A1220E269
:101E3000361220E454759300E075F004A4FFAEF070
:101E40001225971D1220E354242A1220E236122074
:101E5000E4BBA3A31220E2F8E582242A1220E23692
:101E60001220E247A31220E986601E9000C7F912F3
:101E700020E339242A1220E2361220E320E025E074
:101E800025E0FBE4FD1200004F1220E27D242A121F
:101E900020E2361220E4547593001220EAD612256F
:101EA000971D1220E354242A1220E2361220E52A3C
:101EB00024041220E2361220E2F8E582242A1220BD
:101EC000E2361220E28124041220E2361220E98652
:101ED000603D9000C7F91220E339242A1220E2362F
:101EE0001220E320E075F01AA4FBE4FD0200004F8D
:101EF0001220E9BB1220E324E02400FEE434219008
:101F000000C7FC1220E5757EC77FFC1226AC1022AC
:101F10007A001225E8D19000C7FBE0FF227D0A126B
:101F200026323A9000C7F9E0FEA3E0FF22E0FEA3CC
:101F3000E0FF122682B022E4FD122643F622E4F0EE
:101F40001227924A22E0FF7D01122643F6EF4E222D
:101F50009000C976ECF0A3EDF0A3EAF0A3EBF0A9B2
:101F6000079000D27612255262E0707A9000D27605
:101F7000E0FF122552637401F09000C976E0FCA3E3
:101F8000E0FD75F006EF9000D14712000DCDECF0AA
:101F9000A3EDF09000C978E0FEA3E0FF9000D276B8
:101FA000E0FD12255280EEF0A3EFF0ED1225528BEA
:101FB000E9F09000D276E004F0E064327001F012B3
:101FC0002552C57016122552AA12277F7B9000CE8B
:101FD00072E0FF64216028022626A69000D140E02E
:101FE000701D0226DAFA9000C976E07002A3E06064
:101FF0000E9000C978122552CD6004122682B022BC
:10200000227F1C22229000C7B61226510F9000C7D3
:10201000B5EFF004FF9000C7BBF07E001204CF4C78
:102020009000C7BCEEF0A3EFF01200048A9000C746
:10203000B9EEF0A3EFF08E8375930012265099E469
:10204000F07422122650C024061226509BE4F09011
:1020500000C7B8E014601914601F14602514602BC9
:1020600014603124057034122650A67413F0802BAE
:10207000122650A67412F08022122650A67415F073
:102080008019122650A67414F08010122650A674DF
:1020900017F08007122650A67416F09000C7B5E01E
:1020A000FB601D9000C7BDE02401FF9000C7BCE0AD
:1020B0003400FE9000C7B6E0FCA3E0FD1200121051
:1020C0009000C7BBE0FF9000C7B9E0FCA3E0FD8C27
:1020D0008375930024071226509BEFF09000C7BC35
:1020E000E0FEA3E0FF122650D9E582240812265014
:1020F0009BEEF0A3EFF07F0812000451E4FEFF22F4
:102100000226E22C0227C25A020404FD020407F54B
:102110000227BE91022792F90227C09102251935A4
:10212000022612CD0226724A0224B8BC9000C8547E
:102130001220EDCF40030121FBE0FF1220EFF91246
:1021400020F151A3F01220F1AE1220EEAAA3F0EF7D
:102150001220EF501220EEAAA3F0EF1220EFBD12D2
:1021600020F2031220EEB3E41220EDED1220F02253
:102170001220EEAAEF1220ED8EE4F0A3F01220EC74
:102180005AE94A4B60141220EC5AAE02AF011226F3
:1021900082B09000C8541220EE409000C854122023
:1021A000EE9DEF1220EF261220EEAA1220F031123F
:1021B00020F151EF1220F0881220F151A31220EFEC
:1021C0003C1220F151EF1220EE831220F151122027
:1021D000EF5C1220EEAA1220F0F71220EEAAFBFA12
:1021E000F91220F1BB1220EE529000EB20E0FF909C
:1021F00000C854E0FBE4FD12278E9B220102001769
:102200000E12010A4254353531315F303032030449
:10221000010100019000C9051220F0AC9000C90531
:102220001220F3291220F0BA9000C9091220F04EB2
:1022300024041220EE0C12000D741220F39B1220C5
:10224000EF8F75930024081220EE0C12000D74908D
:1022500000C9111220F04E240C1220EE0C12000DB9
:10226000749000C9151220ED79C000C001C002C0F1
:10227000031220ECEC1220ED18C004C005C006C00B
:10228000071220ED009000C90D1220ED20D003D0E0
:1022900002D001D0001220EFE61220EC33EF2478B8
:1022A000FFEE34A4FEED346AFDEC34D7FCD003D04D
:1022B00002D001D0001220ECB81220F3A8C004C054
:1022C00005C006C0071220ECC41220F3AED003D024
:1022D00002D001D00012000CBA1220ECBC9000C950
:1022E0000D1220EC361220ED55C000C001C002C016
:1022F000031220ECC41220F0D11220ED20C004C043
:1023000005C006C0071220ECEC9000C9091220EDB0
:1023100020D003D002D001D00012000CBA1220EC61
:102320009324041220EC2CEF2456FFEE34B7FEED7C
:1023300034C7FDEC34E8FCD003D002D001D0001249
:1023400020ECCC1220F3B4C004C005C006C00712B4
:1023500020ECD81220F3BAD003D002D001D0001262
:10236000000CBA1220ECD09000C9091220EC3612F1
:1023700020ED28C000C001C002C0031220ECD8121A
:1023800020F0DA1220ED20C004C005C006C00712FC
:1023900020ECC41220ED1CD003D002D001D00012DA
:1023A000000CBA1220EC9324081220EC2CEF24DB52
:1023B000FFEE3470FEED3420FDEC3424FCD003D06D
:1023C00002D001D0001220ECF41220F3C0C004C0EF
:1023D00005C006C0071220ED001220F3C6D003D0BE
:1023E00002D001D00012000CBA1220ECF89000C903
:1023F000151220EC361220ED65C000C001C002C0ED
:10240000031220ED001220F0E31220ED20C004C0E2
:1024100005C006C0071220ECD89000C9111220EDAB
:1024200020D003D002D001D00012000CBA1220EC50
:1024300093240C1220EC2CEF24EEFFEE34CEFEEDB4
:1024400034BDFDEC34C1FCD003D002D001D0001269
:1024500020ECE01220F3CCC004C005C006C0071277
:1024600020ECEC1220F3D2D003D002D001D0001225
:10247000000CBA1220ECE49000C9111220EC3612C4
:1024800020ED75C000C001C002C0031220ECEC12A8
:1024900020ED18C004C005C006C0071220ED009052
:1024A00000C90D1220ED20D003D002D001D00012BF
:1024B000000CBA1220EC1DEF24AFFFEE340FFEED3E
:1024C000347CFDEC34F5FCD003D002D001D00012F6
:1024D00020ECB81220F3A8C004C005C006C0071243
:1024E00020ECC41220F3AED003D002D001D00012F1
:1024F000000CBA1220ECBC9000C90D1220EC361270
:1025000020ED55C000C001C002C0031220ECC4126F
:1025100020F0D11220ED20C004C005C006C0071273
:1025200020ECEC9000C9091220ED20D003D002D09D
:1025300001D00012000CBA1220EC9324141220ECEB
:102540002CEF242AFFEE34C6FEED3487FDEC344731
:10255000FCD003D002D001D0001220ECCC1220F32A
:10256000B4C004C005C006C0071220ECD81220F386
:10257000BAD003D002D001D00012000CBA1220EC65
:10258000D09000C9091220EC361220ED28C000C0FE
:1025900001C002C0031220ECD81220F0DA1220EDA4
:1025A00020C004C005C006C0071220ECC41220EDF4
:1025B0001CD003D002D001D00012000CBA1220ECC3
:1025C0009324181220EC2CEF2413FFEE3446FEED7A
:1025D0003430FDEC34A8FCD003D002D001D000127E
:1025E00020ECF41220F3C0C004C005C006C00712DE
:1025F00020ED001220F3C6D003D002D001D000128B
:10260000000CBA1220ECF89000C9151220EC36121A
:1026100020ED65C000C001C002C0031220ED001211
:1026200020F0E31220ED20C004C005C006C0071250
:1026300020ECD89000C9111220ED20D003D002D098
:1026400001D00012000CBA1220EC93241C1220ECD2
:102650002CEF2401FFEE3495FEED3446FDEC34FD05
:10266000FCD003D002D001D0001220ECE01220F305
:10267000CCC004C005C006C0071220ECEC1220F349
:10268000D2D003D002D001D00012000CBA1220EC3C
:10269000E49000C9111220EC361220ED75C000C084
:1026A00001C002C0031220ECEC1220ED18C004C0DF
:1026B00005C006C0071220ED009000C90D1220EDE4
:1026C00020D003D002D001D00012000CBA1220ECAE
:1026D0009324201220EC2CEF24D8FFEE3498FEED4A
:1026E0003480FDEC3469FCD003D002D001D000125C
:1026F00020ECB81220F3A8C004C005C006C0071221
:1027000020ECC41220F3AED003D002D001D00012CE
:10271000000CBA1220ECBC9000C90D1220EC36124D
:1027200020ED55C000C001C002C0031220ECC4124D
:1027300020F0D11220ED20C004C005C006C0071251
:1027400020ECEC9000C9091220ED20D003D002D07B
:1027500001D00012000CBA1220EC9324241220ECB9
:102760002CEF24AFFFEE34F7FEED3444FDEC348B58
:10277000FCD003D002D001D0001220ECCC1220F308
:10278000B4C004C005C006C0071220ECD81220F364
:10279000BAD003D002D001D00012000CBA1220EC43
:1027A000D09000C9091220EC361220ED28C000C0DC
:1027B00001C002C0031220ECD81220F0DA1220ED82
:1027C00020C004C005C006C0071220ECC41220EDD2
:1027D0001CD003D002D001D00012000CBA1220ECA1
:1027E0009324281220EC2CEF24B1FFEE345BFEED95
:1027F00034FFFDEC34FFFCD003D002D001D0001236
:1028000020ECF41220F3C0C004C005C006C00712BB
:1028100020ED001220F3C6D003D002D001D0001268
:10282000000CBA1220ECF89000C9151220EC3612F8
:1028300020ED65C000C001C002C0031220ED0012EF
:1028400020F0E31220ED20C004C005C006C007122E
:1028500020ECD89000C9111220ED20D003D002D076
:1028600001D00012000CBA1220EC93242C1220ECA0
:102870002CEF24BEFFEE34D7FEED345CFDEC348942
:10288000FCD003D002D001D0001220ECE01220F3E3
:10289000CCC004C005C006C0071220ECEC1220F327
:1028A000D2D003D002D001D00012000CBA1220EC1A
:1028B000E49000C9111220EC361220ED75C000C062
:1028C00001C002C0031220ECEC1220ED18C004C0BD
:1028D00005C006C0071220ED009000C90D1220EDC2
:1028E00020D003D002D001D00012000CBA1220EC8C
:1028F0009324301220EC2CEF2422FFEE3411FEED55
:102900003490FDEC346BFCD003D002D001D0001227
:1029100020ECB81220F3A8C004C005C006C00712FE
:1029200020ECC41220F3AED003D002D001D00012AC
:10293000000CBA1220ECBC9000C90D1220EC36122B
:1029400020ED55C000C001C002C0031220ECC4122B
:1029500020F0D11220ED20C004C005C006C007122F
:1029600020ECEC9000C9091220ED20D003D002D059
:1029700001D00012000CBA1220EC9324341220EC87
:102980002CEF2493FFEE3471FEED3498FDEC34FD12
:10299000FCD003D002D001D0001220ECCC1220F3E6
:1029A000B4C004C005C006C0071220ECD81220F342
:1029B000BAD003D002D001D00012000CBA1220EC21
:1029C000D09000C9091220EC361220ED28C000C0BA
:1029D00001C002C0031220ECD81220F0DA1220ED60
:1029E00020C004C005C006C0071220ECC41220EDB0
:1029F0001CD003D002D001D00012000CBA1220EC7F
:102A00009324381220EC2CEF248EFFEE3443FEED9D
:102A10003479FDEC34A6FCD003D002D001D00012F2
:102A200020ECF41220F3C0C004C005C006C0071299
:102A300020ED001220F3C6D003D002D001D0001246
:102A4000000CBA1220ECF89000C9151220EC3612D6
:102A500020ED65C000C001C002C0031220ED0012CD
:102A600020F0E31220ED20C004C005C006C007120C
:102A700020ECD89000C9111220ED20D003D002D054
:102A800001D00012000CBA1220EC93243C1220EC6E
:102A90002CEF2421FFEE3408FEED34B4FDEC344974
:102AA000FCD003D002D001D0001220ECE01220F3C1
:102AB000CCC004C005C006C0071220ECEC1220F305
:102AC000D2D003D002D001D00012000CBA1220ECF8
:102AD000E49000C9111220EC361220ED75C000C040
:102AE00001C002C0031220ECD81220F0D11220ED58
:102AF00020C004C005C006C0071220ECD89000C951
:102B00000D1220ED20D003D002D001D00012000C15
:102B1000BA1220EC9324041220EC2CEF2462FFEE76
:102B20003425FEED341EFDEC34F6FCD003D002D08B
:102B300001D0001220ECB81220F3D8C004C005C0A8
:102B400006C0071220ECC41220F3DED003D002D05E
:102B500001D00012000CBA1220ECBC9000C90D127A
:102B600020EC361220ED55C000C001C002C0031297
:102B700020ED001220F0DA1220ED20C004C005C0C4
:102B800006C0071220ED009000C9091220ED20D0E8
:102B900003D002D001D00012000CBA1220EC932412
:102BA000181220EC2CEF2440FFEE34B3FEED34403D
:102BB000FDEC34C0FCD003D002D001D0001220ECD8
:102BC000CC1220F3E4C004C005C006C0071220ECFC
:102BD000D81220F3EAD003D002D001D00012000CAA
:102BE000BA1220ECD09000C9091220EC361220ED68
:102BF00028C000C001C002C0031220ECEC1220F07B
:102C0000E31220ED20C004C005C006C0071220EC6E
:102C1000EC1220ED1CD003D002D001D00012000C29
:102C2000BA1220EC93242C1220EC2CEF2451FFEE4E
:102C3000345AFEED345EFDEC3426FCD003D002D0D5
:102C400001D0001220ECF41220F3F0C004C005C043
:102C500006C0071220ED001220F3F6D003D002D0F8
:102C600001D00012000CBA1220ECF89000C9151225
:102C700020EC361220ED65C000C001C002C0031276
:102C800020ECC41220ED18C004C005C006C0071215
:102C900020ECC49000C9111220ED20D003D002D046
:102CA00001D0001220EFE61220EC33EF24AAFFEE51
:102CB00034C7FEED34B6FDEC34E9FCD003D002D0CD
:102CC00001D0001220ECE01220F3FCC004C005C0CB
:102CD00006C0071220ECEC1220F402D003D002D080
:102CE00001D00012000CBA1220ECE49000C91112BD
:102CF00020EC361220ED75C000C001C002C00312E6
:102D000020ECD81220F0D11220ED20C004C005C064
:102D100006C0071220ECD89000C90D1220ED20D07B
:102D200003D002D001D00012000CBA1220EC932480
:102D3000141220EC2CEF245DFFEE3410FEED342F46
:102D4000FDEC34D6FCD003D002D001D0001220EC30
:102D5000B81220F3D8C004C005C006C0071220EC8A
:102D6000C41220F3DED003D002D001D00012000C38
:102D7000BA1220ECBC9000C90D1220EC361220EDE6
:102D800055C000C001C002C0031220ED001220F0A7
:102D9000DA1220ED20C004C005C006C0071220EDE5
:102DA000009000C9091220ED20D003D002D001D03C
:102DB0000012000CBA1220EC9324281220EC2CEF05
:102DC0002453FFEE3414FEED3444FDEC3402FCD009
:102DD00003D002D001D0001220ECCC1220F3E4C0CA
:102DE00004C005C006C0071220ECD81220F3EAD0B8
:102DF00003D002D001D00012000CBA1220ECD09007
:102E000000C9091220EC361220ED28C000C001C014
:102E100002C0031220ECEC1220F0E31220ED20C0DF
:102E200004C005C006C0071220ECEC1220ED1CD037
:102E300003D002D001D00012000CBA1220EC93246F
:102E40003C1220EC2CEF2481FFEE34E6FEED34A1A1
:102E5000FDEC34D8FCD003D002D001D0001220EC1D
:102E6000F41220F3F0C004C005C006C0071220ED24
:102E7000001220F3F6D003D002D001D00012000CD3
:102E8000BA1220ECF89000C9151220EC361220ED91
:102E900065C000C001C002C0031220ECC41220EDC6
:102EA00018C004C005C006C0071220ECC49000C9B9
:102EB000111220ED20D003D002D001D00012000C5E
:102EC000BA1220EC1DEF24C8FFEE34FBFEED34D324
:102ED000FDEC34E7FCD003D002D001D0001220EC8E
:102EE000E01220F3FCC004C005C006C0071220ECAD
:102EF000EC1220F402D003D002D001D00012000C5A
:102F0000BA1220ECE49000C9111220EC361220ED28
:102F100075C000C001C002C0031220ECD81220F01E
:102F2000D11220ED20C004C005C006C0071220EC5D
:102F3000D89000C90D1220ED20D003D002D001D0CE
:102F40000012000CBA1220EC9324241220EC2CEF77
:102F500024E6FFEE34CDFEED34E1FDEC3421FCD06F
:102F600003D002D001D0001220ECB81220F3D8C058
:102F700004C005C006C0071220ECC41220F3DED046
:102F800003D002D001D00012000CBA1220ECBC9089
:102F900000C90D1220EC361220ED55C000C001C052
:102FA00002C0031220ED001220F0DA1220ED20C042
:102FB00004C005C006C0071220ED009000C9091228
:102FC00020ED20D003D002D001D00012000CBA12A4
:102FD00020EC9324381220EC2CEF24D6FFEE34079B
:102FE000FEED3437FDEC34C3FCD003D002D001D069
:102FF000001220ECCC1220F3E4C004C005C006C0CF
:10300000071220ECD81220F3EAD003D002D001D06E
:103010000012000CBA1220ECD09000C9091220EC6A
:10302000361220ED28C000C001C002C0031220ECFF
:10303000EC1220F0E31220ED20C004C005C006C051
:10304000071220ECEC1220ED1CD003D002D001D0EE
:103050000012000CBA1220EC93240C1220EC2CEF7E
:103060002487FFEE340DFEED34D5FDEC34F4FCD0B6
:1030700003D002D001D0001220ECF41220F3F0C0F3
:1030800004C005C006C0071220ED001220F3F6D0E0
:1030900003D002D001D00012000CBA1220ECF8903C
:1030A00000C9151220EC361220ED65C000C001C029
:1030B00002C0031220ECC41220ED18C004C005C0E9
:1030C00006C0071220ECC49000C9111220ED20D0D8
:1030D00003D002D001D00012000CBA1220EC9324CD
:1030E000201220EC2CEF24EDFFEE3414FEED345AC8
:1030F000FDEC3445FCD003D002D001D0001220EC0E
:10310000E01220F3FCC004C005C006C0071220EC8A
:10311000EC1220F402D003D002D001D00012000C37
:10312000BA1220ECE49000C9111220EC361220ED06
:1031300075C000C001C002C0031220ECD81220F0FC
:10314000D11220ED20C004C005C006C0071220EC3B
:10315000D89000C90D1220ED20D003D002D001D0AC
:103160000012000CBA1220EC9324341220EC2CEF45
:103170002405FFEE34E9FEED34E3FDEC34A9FCD088
:1031800003D002D001D0001220ECB81220F3D8C036
:1031900004C005C006C0071220ECC41220F3DED024
:1031A00003D002D001D00012000CBA1220ECBC9067
:1031B00000C90D1220EC361220ED55C000C001C030
:1031C00002C0031220ED001220F0DA1220ED20C020
:1031D00004C005C006C0071220ED009000C9091206
:1031E00020ED20D003D002D001D00012000CBA1282
:1031F00020EC9324081220EC2CEF24F8FFEE34A3EB
:103200001220F50B34FCFCD003D002D001D0001208
:1032100020ECCC1220F3E4C004C005C006C00712A5
:1032200020ECD81220F3EAD003D002D001D0001253
:10323000000CBA1220ECD09000C9091220EC361212
:1032400020ED28C000C001C002C0031220ECEC1227
:1032500020F0E31220ED20C004C005C006C0071214
:1032600020ECEC1220ED1CD003D002D001D00012D3
:10327000000CBA1220EC93241C1220EC2CEF24D961
:10328000FFEE3402FEED346FFDEC3467FCD003D06A
:1032900002D001D0001220ECF41220F3F0C004C0E0
:1032A00005C006C0071220ED001220F3F6D003D0AF
:1032B00002D001D00012000CBA1220ECF89000C924
:1032C000151220EC361220ED65C000C001C002C00E
:1032D000031220ECC41220ED18C004C005C006C0C3
:1032E000071220ECC49000C9111220ED20D003D0A9
:1032F00002D001D00012000CBA1220EC932430123C
:1033000020EC2CEF248AFFEE344CFEED342AFDEC49
:10331000348DFCD003D002D001D0001220ECE0129A
:1033200020F3FCC004C005C006C0071220ECEC125C
:1033300020F402D003D002D001D00012000CBA1247
:1033400020ECE49000C9111220EC361220ED75C07B
:1033500000C001C002C0031220ED001220ED6D126A
:1033600020F26B1220EC8B24141220EC2CEF244260
:10337000FFEE3439FEED34FAFDEC34FFFCD003D01F
:1033800002D001D0001220ECB81220F408C004C012
:1033900005C006C0071220ECC41220F40ED003D0E2
:1033A00002D001D00012000CBA1220ECBC9000C96F
:1033B0000D1220EC361220ED55C000C001C002C035
:1033C000031220ECEC1220ED7D12000CC79000C916
:1033D000111220EC8B24201220EC2CEF2481FFEE24
:1033E00034F6FEED3471FDEC3487FCD003D002D00E
:1033F00001D0001220ECCC1220F414C004C005C08F
:1034000006C0071220ECD81220F41AD003D002D044
:1034100001D00012000CBA1220ECD09000C90912A1
:1034200020EC361220ED28C000C001C002C00312FB
:1034300020ECC41220ED5D12000CC71220EC872492
:103440002C1220EC2CEF2422FFEE3461FEED349D93
:10345000FDEC346DFCD003D002D001D0001220EC82
:10346000F41220F420C004C005C006C0071220EDED
:10347000001220F333D003D002D001D00012000C90
:10348000BA1220ECF89000C9151220EC361220ED8B
:1034900065C000C001C002C0031220ECD81220EDAC
:1034A000301220F2741220EC8B24381220EC2CEF16
:1034B000240CFFEE3438FEED34E5FDEC34FDFCD099
:1034C00003D002D001D0001220ECE01220F426C07C
:1034D00004C005C006C0071220ECEC1220F42CD06A
:1034E00003D002D001D00012000CBA1220ECE490FC
:1034F00000C9111220EC361220ED75C000C001C0C9
:1035000002C0031220ED001220ED6D1220F26B12AA
:1035100020EC8B24041220EC2CEF2444FFEE34EA40
:10352000FEED34BEFDEC34A4FCD003D002D001D0BB
:10353000001220ECB81220F408C004C005C006C078
:10354000071220ECC41220F40ED003D002D001D018
:103550000012000CBA1220ECBC9000C90D1220EC35
:10356000361220ED55C000C001C002C0031220EC8D
:10357000EC1220ED7D12000CC71220EC11EF24A9F3
:10358000FFEE34CFFEED34DEFDEC344BFCD003D047
:1035900002D001D0001220ECCC1220F414C004C0E0
:1035A00005C006C0071220ECD81220F41AD003D0B0
:1035B00002D001D00012000CBA1220ECD09000C949
:1035C000091220EC361220ED28C000C001C002C054
:1035D000031220ECC41220ED5D12000CC71220EC87
:1035E00087241C1220EC2CEF2460FFEE344BFEED00
:1035F00034BBFDEC34F6FCD003D002D001D0001275
:1036000020ECF41220F420C004C005C006C007124C
:1036100020ED001220F333D003D002D001D00012ED
:10362000000CBA1220ECF89000C9151220EC3612EA
:1036300020ED65C000C001C002C0031220ECD8120A
:1036400020ED301220F2741220EC8B24281220EC92
:103650002CEF2470FFEE34BCFEED34BFFDEC34BE25
:10366000FCD003D002D001D0001220ECE01220F4F4
:1036700026C004C005C006C0071220ECEC1220F4DE
:103680002CD003D002D001D00012000CBA1220ECD2
:10369000E49000C9111220EC361220ED75C000C074
:1036A00001C002C0031220ED001220ED6D1220F2C5
:1036B0006B1220EC8B24341220EC2CEF24C6122049
:1036C000F512349BFDEC3428FCD003D002D001D09D
:1036D000001220ECB81220F408C004C005C006C0D7
:1036E000071220ECC41220F40ED003D002D001D077
:1036F0000012000CBA1220ECBC9000C90D1220EC94
:10370000361220ED55C000C001C002C0031220ECEB
:10371000EC1220ED7D12000CC71220ED3012000CCF
:10372000C71220EFEA1220EC33EF24FAFFEE342721
:10373000FEED34A1FDEC34EAFCD003D002D001D080
:10374000001220ECCC1220F414C004C005C006C046
:10375000071220ECD81220F41AD003D002D001D0E6
:103760000012000CBA1220ECD09000C9091220EC13
:10377000361220ED28C000C001C002C0031220ECA8
:10378000C41220ED5D12000CC71220EC87240C122D
:1037900020EC2CEF2485FFEE34301220F50B34D4CE
:1037A000FCD003D002D001D0001220ECF41220F49F
:1037B00020C004C005C006C0071220ED001220F38F
:1037C00033D003D002D001D00012000CBA1220EC8A
:1037D000F89000C9151220EC361220ED65C000C02B
:1037E00001C002C0031220ECD81220ED301220F2EA
:1037F000741220EC8B24181220EC2CEF2405FFEE21
:10380000341DFEED3488FDEC3404FCD003D002D02E
:1038100001D0001220ECE01220F426C004C005C044
:1038200006C0071220ECEC1220F42CD003D002D0FA
:1038300001D00012000CBA1220ECE49000C9111261
:1038400020EC361220ED75C000C001C002C003128A
:1038500020ED001220ED6D1220F26B1220EC8B2473
:10386000241220EC2CEF2439FFEE34D0FEED34D4BA
:10387000FDEC34D9FCD003D002D001D0001220ECF2
:10388000B81220F408C004C005C006C0071220EC1E
:10389000C41220F40ED003D002D001D00012000CCC
:1038A000BA1220ECBC9000C90D1220EC361220EDAB
:1038B00055C000C001C002C0031220ECEC1220ED84
:1038C0007D12000CC79000C9111220EC8B2430121D
:1038D00020EC2CEF24E5FFEE3499FEED34DBFDEC1B
:1038E00034E6FCD003D002D001D0001220ECCC1280
:1038F00020F414C004C005C006C0071220ECD81282
:1039000020F41AD003D002D001D00012000CBA1259
:1039100020ECD09000C9091220EC361220ED28C00E
:1039200000C001C002C0031220ECC41220ED5D12E1
:10393000000CC71220EC87243C1220EC2CEF24F85A
:10394000FFEE347CFEED34A2FDEC341FFCD003D03E
:1039500002D001D0001220ECF41220F420C004C0E8
:1039600005C006C0071220ED001220F333D003D0AB
:1039700002D001D00012000CBA1220ECF89000C95D
:10398000151220EC361220ED65C000C001C002C047
:10399000031220ECD81220ED301220F2741220EC29
:1039A0008B24081220EC2CEF2465FFEE3456FEED3C
:1039B00034ACFDEC34C4FCD003D002D001D00012F2
:1039C00020ECE01220F426C004C005C006C0071297
:1039D00020ECEC1220F42CD003D002D001D0001245
:1039E000000CBA1220ECE49000C9111220EC36123F
:1039F00020ED75C000C001C002C0031220ECD81237
:103A0000000CD41220ED6D12000CBA1220ED301211
:103A1000000CC71220EFEA1220EC33EF2444FFEE33
:103A20003422FEED3429FDEC34F4FCD003D002D076
:103A300001D0001220ECB81220F432C004C005C03E
:103A400006C0071220ECC41220F438D003D002D0F4
:103A500001D00012000CBA1220ECBC9000C90D126B
:103A600020EC361220ED55C000C001C002C0031288
:103A700020EC6F241C1220EC2CEF2497FFEE34FF77
:103A8000FEED342AFDEC3443FCD003D002D001D04B
:103A9000001220ECCC1220F43EC004C005C006C0C9
:103AA000071220ECD81220F444D003D002D001D069
:103AB0000012000CBA1220ECD09000C9091220ECC0
:103AC000361220ED28C000C001C002C0031220EC55
:103AD000EC12000CD41220ED5D1220F27D1220ECCD
:103AE0008B24381220EC2CEF24A7FFEE3423FEEDBC
:103AF0003494FDEC34ABFCD003D002D001D00012E2
:103B000020ECF41220F44AC004C005C006C007121D
:103B100020ED001220F450D003D002D001D00012CA
:103B2000000CBA1220ECF89000C9151220EC3612E5
:103B300020ED65C000C001C002C0031220ECC41219
:103B4000000CD41220ED301220F2861220EC8B24CF
:103B5000141220EC2CEF2439FFEE34A0FEED349348
:103B6000FDEC34FCFCD003D002D001D0001220ECDC
:103B7000E01220F456C004C005C006C0071220ECB5
:103B8000EC1220F45CD003D002D001D00012000C63
:103B9000BA1220ECE49000C9111220EC361220ED8C
:103BA00075C000C001C002C0031220ECD812000C86
:103BB000D41220ED6D12000CBA9000C9111220EC45
:103BC0008B24301220EC2CEF24C3FFEE3459FEED91
:103BD000345BFDEC3465FCD003D002D001D0001280
:103BE00020ECB81220F432C004C005C006C0071291
:103BF00020ECC41220F438D003D002D001D000123F
:103C0000000CBA1220ECBC9000C90D1220EC361248
:103C100020ED55C000C001C002C0031220EC6F248B
:103C20000C1220EC2CEF2492FFEE34CCFEED340C81
:103C3000FDEC348FFCD003D002D001D0001220EC78
:103C4000CC1220F43EC004C005C006C0071220EC10
:103C5000D81220F444D003D002D001D00012000CBE
:103C6000BA1220ECD09000C9091220EC361220EDD7
:103C700028C000C001C002C0031220ECEC12000CEE
:103C8000D41220ED5D1220F27D1220EC8B2428123C
:103C900020EC2CEF247DFFEE34F41220F50B34FFE2
:103CA000FCD003D002D001D0001220ECF41220F49A
:103CB0004AC004C005C006C0071220ED001220F45F
:103CC00050D003D002D001D00012000CBA1220EC68
:103CD000F89000C9151220EC361220ED65C000C026
:103CE00001C002C0031220ECC412000CD41220ED5B
:103CF000301220F2861220EC8B24041220EC2CEFE0
:103D000024D1FFEE345DFEED3484FDEC3485FCD02F
:103D100003D002D001D0001220ECE01220F456C0F3
:103D200004C005C006C0071220ECEC1220F45CD0E1
:103D300003D002D001D00012000CBA1220ECE490A3
:103D400000C9111220EC361220ED75C000C001C070
:103D500002C0031220ECD812000CD41220ED6D1218
:103D6000000CBA9000C9111220EC8B24201220EC18
:103D70002CEF244F1220F51234A8FDEC346FFCD048
:103D800003D002D001D0001220ECB81220F432C0CF
:103D900004C005C006C0071220ECC41220F438D0BD
:103DA00003D002D001D00012000CBA1220ECBC905B
:103DB00000C90D1220EC361220ED55C000C001C024
:103DC00002C0031220EC6F243C1220EC2CEF24E004
:103DD000FFEE34E6FEED342CFDEC34FEFCD003D0D7
:103DE00002D001D0001220ECCC1220F43EC004C05E
:103DF00005C006C0071220ECD81220F444D003D02E
:103E000002D001D00012000CBA1220ECD09000C9F0
:103E1000091220EC361220ED28C000C001C002C0FB
:103E2000031220ECEC12000CD41220ED5D1220F2F3
:103E30007D1220EC8B24181220EC2CEF2414FFEEC2
:103E40003443FEED3401FDEC34A3FCD003D002D0AA
:103E500001D0001220ECF41220F44AC004C005C0C6
:103E600006C0071220ED001220F450D003D002D07B
:103E700001D00012000CBA1220ECF89000C9151203
:103E800020EC361220ED65C000C001C002C0031254
:103E900020ECC412000CD41220ED301220F2861255
:103EA00020EC8B24341220EC2CEF24A1FFEE3411F3
:103EB000FEED3408FDEC344EFCD003D002D001D02E
:103EC000001220ECE01220F456C004C005C006C069
:103ED000071220ECEC1220F45CD003D002D001D009
:103EE0000012000CBA1220ECE49000C9111220EC70
:103EF000361220ED75C000C001C002C0031220ECD4
:103F0000D812000CD41220ED6D12000CBA1220EC65
:103F100011EF24821220F5123453FDEC34F7FCD05B
:103F200003D002D001D0001220ECB81220F432C02D
:103F300004C005C006C0071220ECC41220F438D01B
:103F400003D002D001D00012000CBA1220ECBC90B9
:103F500000C90D1220EC361220ED55C000C001C082
:103F600002C0031220EC6F242C1220EC2CEF24351D
:103F7000FFEE34F2FEED343AFDEC34BDFCD003D05C
:103F800002D001D0001220ECCC1220F43EC004C0BC
:103F900005C006C0071220ECD81220F444D003D08C
:103FA00002D001D00012000CBA1220ECD09000C94F
:103FB000091220EC361220ED28C000C001C002C05A
:103FC000031220ECEC12000CD41220ED5D1220F252
:103FD0007D1220EC8B24081220EC2CEF24BBFFEE8A
:103FE00034D2FEED34D7FDEC342AFCD003D002D01D
:103FF00001D0001220ECF41220F44AC004C005C025
:1040000006C0071220ED001220F450D003D002D0D9
:1040100001D00012000CBA1220ECF89000C9151261
:1040200020EC361220ED65C000C001C002C00312B2
:1040300020ECC412000CD41220ED301220F28612B3
:1040400020EC8B24241220EC2CEF2491FFEE34D3AF
:10405000FEED3486FDEC34EBFCD003D002D001D071
:10406000001220ECE01220F456C004C005C006C0C7
:10407000071220ECEC1220F45CD003D002D001D067
:104080000012000CBA1220ECE49000C9111220ECCE
:10409000361220F39BE0FEA3E0F5828E83C083C03E
:1040A000821220F0BA9000C9091220EC36759300F4
:1040B000D082D0831220EFD424041220EFB3C08327
:1040C000C0821220F0BA9000C90D1220EC36759310
:1040D00000D082D0831220EFD424081220EFB3C086
:1040E00083C0821220F0BA9000C9111220EC3675FC
:1040F0009300D082D0831220EFD4240C1220EFB38F
:10410000C083C0821220F0BA9000C9151220EC368C
:10411000759300D082D08302000DB59000C8E1EE07
:10412000F0A3EFF07EC87FE37B06E4FD1200004FB2
:104130001222C299FF1222C2D4FCA3E08CF012001A
:104140000E904212000146A600024C2E00034A6463
:1041500000044B1E00054B6B0006575200074B6FC7
:1041600000084BB700094BD6000A4CC210014CCED8
:1041700010024D1710034D2A10044E6910055752B6
:1041800010074DDA10084D4D100A4CBE100B4DA112
:10419000100C5752100D4D9F100F575210155752BB
:1041A00010165752101D4EB3101E4ECF20014F5AFD
:1041B0003001575230024F7A3003575230044FD2F9
:1041C00030055092300C50F0300D5156300E51EAFF
:1041D000300F51EA301051EA301151EA301251EAF1
:1041E000301351EA301451EA301551EA301651EAD1
:1041F000301751EA301851EA301951EA301A51EAB1
:10420000301B51EA301C51EA301D5493600100000C
:1042100057171222C38F24041222C2081222C38904
:1042200024051222C208E09000C8EA1222C23AA372
:10423000E0FF9000C900F012205C01122718559091
:1042400000C8FFEFF09000C8E9E060046401703737
:104250001222C4AC702274051222C213A31222C30C
:1042600017E0FD122623831222C4B49000C8ED602B
:104270000301438BF001446E9000C8EAE060030143
:10428000446EA3740780711222C51264027025A3C4
:10429000E06402701074061222C213A3E0FF12261B
:1042A000238301446E9000C8EAE0600301446EA3DA
:1042B000740880441222C51964037043A3E0FD7C96
:1042C0000064027026A3740B1222C40F540FFE90D8
:1042D00000C8ECE054F04EFEF09000C8FFE0540F30
:1042E000C454F0FBEE540F4B0143B4ED4C6003019A
:1042F000446E9000C8EB740C1222C40F0143B4EF5B
:10430000640470569000C8EAE0FB7A0064027020F2
:10431000740D1222C2DDFFF01222C25F1222C42DE0
:104320009000C8EDF0543F1222C5207411F0805B5C
:10433000EB4A600301446E1222C40954039000C882
:10434000EC1222C30AFFF01222C25F1222C42D9087
:1043500000C8ECF0543FF001446E9000C8E9E0F969
:1043600064057058A3E0FB7A006402702474101294
:1043700022C2DDF054C7FFF01222C25F1222C43EF7
:104380009000C8ED1222C5207411F07401F00144B0
:104390006EEB4A600301446E1222C4095403FF907D
:1043A00000C8EC1222C30BF054C7FFF01222C25F08
:1043B0001222C43E9000C8ECF001446EE96406602D
:1043C0000301446E9000C901F0A3F09000C9077486
:1043D00005F01222C4AC70469000C907E024031215
:1043E000205BA360669000C907E09000C90112221B
:1043F000C1FCE4F09000C9001222C2749000C90709
:10440000E02402FFE433FE9000C9011222C3652FAD
:10441000F582E5833EF583759300E4F0802D9000EE
:10442000C8EAE070269000C907E0240212205BA3CE
:1044300060199000C907E0FF9000C9011222C1FD78
:104440007401F09000C9001222C2749000C901E00A
:10445000FCA3E0FD4C6017A3E0FEA3E0FF12254D96
:10446000049000C901E0FEA3E0FF122682B0900094
:10447000C8EAE0FF64026003EF70159000C8E9E04D
:104480006406600C7EC87FEB1222CF3B122581A808
:104490001222C4AC600301462C9000C905F0A3F0C1
:1044A0007F0912267DC81225306B9000C9051222A3
:1044B000C49260301222C23BA3E075F010A4FFAE9C
:1044C000F01222C512EF4D9000C9071222C3EBFD76
:1044D0001222C39CAB05E49000C934F0A3F07D1711
:1044E000022678527EC87FE31222C5127B01122376
:1044F000F0CD1222C23BA3E0FF7CC87DE39000C850
:10450000E9E0FB9000C9197401F01222D2839000F7
:10451000C8E9E06007640160030145E19000C470F0
:10452000E0540760151222C39C1222C25F1222C4FB
:10453000787402F07D091227634E7D017F051225F4
:104540007B7E7EC97F0212277B4D9000C902E0303E
:10455000E5151222C45F1226C608EF640270081225
:1045600022C45F122693DC9000C902E030E32D12D2
:1045700022C45F7CC97D0712272C547EC97F091293
:104580002791E19000C90AE030E0119000C907A32B
:10459000E030E1081222C45F1227699E1222C45F34
:1045A0007D011226CC179000C8E9E0707F7EC97F9C
:1045B0000312277B7A7EC97F0412277BD49000C91F
:1045C00003E030E567A3E020E3061222C4FA605C52
:1045D0001222C23BA31222C3397D0112241E258060
:1045E0004B1222C46670207EC97F0112277ECB90B9
:1045F00000C901E030E7067F021226F89E7D017FA8
:104600000612257B7E80259000C8E9E06403701CBB
:104610009000C470E030E4141222C39C1222C25FE6
:104620001222C47804F07D0A1227634E9000C8EA73
:10463000E060030157521222C466702B1222C23B63
:10464000A3E01222C527B5070E9000C46CE07007E6
:10465000FD7F011224DEBA7F0212205C1760030185
:104660005752FD7F06803B1222C519640470030176
:104670005752EF64057003015752EF600764016001
:104680000301575212205BCCFF12205C176003011C
:1046900057527F0112272E06EF4E6003015752FD3D
:1046A0007F0502257B7E1222C2991222C426240C89
:1046B0001222C2081222C38924091222C20812221D
:1046C000C4DF640160030157529000C9057408F00B
:1046D0009000C90EE4F0A37404F01222C4666003D3
:1046E0000148D31222C3AE122718559000C900EF1B
:1046F0001222C2981222C3571222C208E0FF1227C8
:1047000095E99000C8FFEFF064046060E025E025C3
:10471000E0245DF582E434C41222C50B6403704CBE
:104720009000C912F0A374021222C2981222C35739
:104730001222C208E0540FFF9000C914E054F04F59
:10474000FF1222C40F540FC454F0FEEF540F4E90CA
:1047500000C914F078157CC97D017B017AC97912F2
:104760007E007F0312000A331226D6BB9000C900D8
:10477000E0640860717EC97F057CC97D0612279EB2
:104780009B9000C900E02406F582E434C91222C5DA
:104790000BFF540F9000C903F0EF54F0C4540F9076
:1047A00000C902F0A3E0FF1227B69C9000C904EFF5
:1047B000F01227C1B7EF7EC97F01700612279EF560
:1047C000800412277A6C1222C2991222C357122235
:1047D000C208E0FF7CC97D01122637009000C901A4
:1047E000E0FF1226F73A1222C2991222C357122270
:1047F000C208E0FF1227744A9000C46CE0701012E7
:1048000022C2991222C3571222C20812205C0E74CF
:10481000151222C2941222C3571222C208E090003D
:10482000C8EC12205BEC1222C2991222C3B4E4FB42
:104830007D071223F0CD1222C2991222C426240F22
:104840001222C208E0701C9000C912F0EF1222C3BD
:10485000B47CC97D12122746A29000C912E030E74D
:104860003680301222C2991222C426240F1222C28C
:1048700008E0541F6401701F1222C38F24101222FB
:10488000C208E054406440600E1222C3AE7D801224
:1048900026F1971222C3DD7EC97F1112277EF79081
:1048A00000C911E030E4041222C3DD7EC97F10127A
:1048B00027B7B29000C9101222C35F240A1222C285
:1048C00008E0FCA3E0FD9000C90EE0FAA3E0FB02C3
:1048D00026C8109000C8E9E06003014A567411121E
:1048E00022C2948E83759300240D1222C208E064C4
:1048F0000870079000C8EC04801A1222C299122294
:10490000C3571222C208E0FF1227795EEF6009E464
:104910009000C8EC12205BEC9000C46D1222C35FC3
:1049200024081222C2087D1E12205C1E12205BCCBD
:1049300012279898EF70479000C459E064057038CA
:104940001222C2991222C3B4122718559000C9121C
:104950001222C3997D0612278E9B1222C39C7D07CB
:1049600012205B257D0512205B251222C3612408DD
:104970001222C20812205BE37F0C12267DC812228D
:10498000C2991222C426240D1222C208E012000E7F
:10499000684A520249AD0449C00849AD1049AD1FEB
:1049A00049AD2249AD2349AD2A00004A271222C34E
:1049B0008F24081222C208E0FF12275C2A014A5203
:1049C0009000C912E4F0A304F07EC97F12122725DB
:1049D000F09000C912E0FAA3E0FB4A9000C8E16041
:1049E0001FE0FCA3E0FD8C8375930024081222C213
:1049F00008E0FFED2402FDE43CFC1225F59980124D
:104A00001222C32224081222C208E0FDE4FF12266B
:104A1000E46B9000C459E06039640260359000C4D2
:104A20008A12205BDA802B1222C2991222C35712FB
:104A300022C208E0FF1226C0489000C459E0600C72
:104A4000640260089000C48912205BDA7F0B122692
:104A50007DC80224883E1222C4B460030157527FED
:104A60000E014C2A1222C23BA3A31222C2D0600321
:104A70000157529000C8EDF0A3F0A3F09000C8EDEC
:104A8000F09000C8EDE0FFC3942074809480502C17
:104A90001222C25FA3A3A31222C36524071222C25B
:104AA00008E5821222C207E070099000C8EDE00418
:104AB000F080099000C8EDE004F080C59000C8EDDA
:104AC000E0FF2402FCE433A3F0A3CCF01222C25F87
:104AD0001222C4BCE4A3F0FE1225971D9000C8EB7F
:104AE0001222C49270030157529000C8EBE0FEA35B
:104AF000E0FF1222C25F1222C4C52407FDE43CFC81
:104B000012205BF69000C8EEE0FEA3E0FF7B017A86
:104B1000C879E912249B669000C8EB01570EE41295
:104B200022C4991222C298FF1222C2431222C4BC8C
:104B30008F821222C2451222C4DE70121222C519BF
:104B400064016005EF640370057F04014C2A900046
:104B5000C8EAE060030157529000C8E9E0600764CA
:104B60000260030157527F05014C2A02252E41782D
:104B7000E97CC87D017BA17A0079567E007F101206
:104B8000000A339000C8F97404F07EC87FF97CC82D
:104B90007DE91227A7771222C2992402FDE43EFC88
:104BA0009000C8F9E0FB9000C91974C8F0A374E93B
:104BB000F07F01022761689000C476E0FFE4FD12F7
:104BC000272E961227AA13EF70067F0F12267DC894
:104BD0007F010227B9191222C2992404FFE43EFE84
:104BE000122718559000C8E91222C3997D06122792
:104BF0008E9B9000C46D1222C3177D0712205C1E8D
:104C00009000C46D1222C317E0FB7D0512278E9B16
:104C10001222C39C1222C25FA3A312205BE31227BD
:104C2000AA13EF60030157527F0F02267DC812229C
:104C3000C2998E83759300240E1222C208E0900060
:104C4000C8FDF0E4FD7F021224DEBA1222C4177CF4
:104C5000C87DFE1226C2599000C8FDE06401900094
:104C6000C8E9702074091222C2981222C357122276
:104C7000C208E09000C8EAF07D017F011227627649
:104C80007D01802A740A1222C2981222C35712226E
:104C9000C208E09000C8EAF0E4FDFF12276839E49A
:104CA0009000C46EF07D01FF12276276E4FD7F0163
:104CB00012257B7E7EC87FE91222CF3B8000022630
:104CC0002FD31222C2991222C3B40224B4AE1222EC
:104CD000C3FF1222C267A3A3A3E0640770131222CA
:104CE000C2A2E58224041222C208A3E0FD0226E843
:104CF0001E1222C3FF1222C267A3A3A3E0640560B1
:104D0000030157521222C2A2E58224041222C208D1
:104D1000A3E0FD0226E9381222C23BA3A3E0FEA3D2
:104D2000E0AA06F97B0102247A881222C23BA3A3DF
:104D3000E0FEA31222C317EEF0A3EFF01222C2434B
:104D4000E09000C8EBF0FDE4FF0227B0E71222C2BA
:104D50003BA3E0FF7AC87BE97D0112254E001222B9
:104D6000C466700412262FD31222C23BA3A31222C0
:104D7000C23FE0700C9000C477E0FFE4FD12272EE4
:104D8000967EC87FEA12277B4D9000C8EAE020E4B7
:104D9000030157521222C23BA3E0FF022693DC809C
:104DA000001222C299FF1222C243A3A3E0FDA3E096
:104DB000CD1222C3C31222C245A3E09000C8EDF079
:104DC0001222C46E1222C2D49000C8ECF08F82125C
:104DD00022C245E09000C8EBF0221222C23BA3A3FE
:104DE000E0FEA31222C317EEF0A3EFF01222C2439B
:104DF000E06401701C9000C8E91222C23FA3E0FFEA
:104E00009000C46FE06F7003015752EFF00226F775
:104E10003A9000C8E91222C23FE0640260030157E1
:104E2000529000C8EB1222C4167CC87DEB122720DA
:104E3000989000C8EBE06401701A1227C227EF6453
:104E40000C70119000C8E91222C23FA3E0FF7D015F
:104E5000122618009000C8E91222C263E0FF759381
:104E600000A3A3E0FD0226EB0E1222C299FF12223C
:104E7000C243A3E0F99000C8E9F08F821222C24534
:104E8000A3A3E0FFA3E09000C8EACFF0A3EFF0AF48
:104E9000019000C8EAE0FAA3E0FBF5828A831222BF
:104EA000C4CF7C001222C331A3A3E0FAA3E0FB022B
:104EB0002688F71222C299FF1222C2431222C3BBD4
:104EC0001222C2451222C2AAA3E0FD0226A559124F
:104ED00022C2991222C3B41222C499EFF01222C244
:104EE00043E06402701A1222C2CCFD1222C417EDF4
:104EF0006F600D9000C46CE070067F041224DEBA6F
:104F00001222C46E1222C243E06402701D8F82120C
:104F100022C2D6FF7CC87DEB122693649000C8EBBA
:104F2000E0FF122730D5E4FF802C9000C8E9122260
:104F3000C23FE0640160030157521227C186EF703F
:104F4000030157521227C194EF60030157527F01AA
:104F50001227B2DA7F01022722631222C299FF12BE
:104F600022C2431222C3BB1222C245A3E0FFEC546B
:104F70001EFCED5402FD022759031222C29912228F
:104F8000C3B41222C499EFF01222C2D41222C52750
:104F9000B5071D1227C227EF640D70149000C8E9F1
:104FA0001222C23FE0FF1227B688E4FD1226180045
:104FB0001222C46E1222C243A3E0700B8F8212220F
:104FC000C2D6FFE4FD80071222C2CCFF7D0102267B
:104FD000EC281222C2998E8375930024041222C2F7
:104FE000081222C4BE1224883E1222C4B4703C129D
:104FF00022C23BA3E0FF7CC87DF31226936490009D
:10500000C8F3E0FF122730D51222C23BA3E0FF1203
:10501000205C017B017D021223F0CD9000C46CE086
:1050200070091222C23BA312205C0E7EC87FF07B67
:1050300003E4FD1200004F9000C8F07418F0FF1256
:105040002709A19000C8F1EF1222C2981222C426AB
:1050500024041222C208E09000C8F2F08F821222CB
:10506000C245A31222C4DE9000C8F0E0FF12262C35
:105070002F9000C8EBEFF0A3E41222C52074C8F013
:10508000A374F11222C23AA3E0FF7CC87DEA022495
:10509000C8B91222C2999000C8E91222C41EEFF0CA
:1050A0009000C8E91222C2631222C4CD7B011226ED
:1050B0004C989000C8E91222C2631222C4CD122675
:1050C000EC861222C2CC1222C5276F600301575210
:1050D0001227C227EF640D60030157529000C8E900
:1050E0001222C23FE0FF1227B688E4FD0226180014
:1050F0001222C2999000C8ED1222C41EEFF0A374D0
:1051000004F09000C8EDE0FEA3E0FF1222C2D4122A
:1051100022C4997403F0E49000C8ECF09000C8EB4E
:10512000F08F821222C245A3E060079000C8EC74A1
:1051300001F09000C8ED1222C23FE060079000C865
:10514000EB7401F09000C8EFE0FF7E007B017AC8AD
:1051500079E902249B669000C8ED74061222C23AD7
:10516000A3A31222C32224041222C208E0FEA3E059
:10517000FF9000C8EDE0FD7C00EF2D12205AEB708F
:10518000030157521222C52EF5828E837593007447
:10519000201222C3FE1222C267A3A3E0FB1222C286
:1051A000ADA3A3A31222C263EBF0EF2401FFE4122C
:1051B00022C25D1222C4C5FD12205BF69000C8ED2C
:1051C000E01222C24C1222C34924061222C2081243
:1051D00022C32CE58224041222C20812205B0C1286
:1051E00027BD5F9000C8EB01570E9000C8EF740513
:1051F0001222C298FF1222C2D4FCA3E08CF012004B
:105200000E9052AC300F54473010545D301153E5BE
:10521000301253FB301354113014542730155242BE
:1052200030165296301752C23018530C3019532290
:10523000301A53B9301B53CF301C547D301D000041
:1052400057529000C8F07408F08F821222C245A312
:10525000A31222C32224061222C2081220588170EF
:10526000030157521222C3CE1222C202E412205767
:10527000531222C34D24081222C2081222C32CE565
:105280008224061222C20812205B0C1225461990B5
:1052900000C8EB01570E12205950700301575212EB
:1052A00022C1F37401122058B801570E122058F091
:1052B00070030157521222C1F374021220582101C7
:1052C000570E9000C8F0740D1222C23AA3A3122206
:1052D000C322240B1222C2081220588170030157E6
:1052E000521222C3CE1222C202740312205753124A
:1052F00022C34D240D1222C2081222C32CE582249F
:105300000B1222C20812205B8201570E122059781C
:1053100070030157521222C1F3740412205918016C
:10532000570E9000C8F074051222C23AA3A31222AD
:10533000C23FA3A3E0FEA3E0FF9000C8EFE0FD7C26
:1053400000EF2DFFEC3EFEA3E02F12205AEB70037E
:105350000157521222C3CE1222C20274051222C376
:10536000FE1222C267A3A3E0FE1222C2ADA3A3A332
:105370001222C263EEF0EF1222C24C1222C4C5FD0B
:105380009000C8F0E0FB120012109000C8EFE0247B
:1053900001FFE433FEA3E07C002FFFEC3E1222C2AB
:1053A000511222C34924051222C2081222C32CA37F
:1053B000A3A312205B8201570E12205950700301E3
:1053C00057521222C1F37406122058B801570E1218
:1053D00020585970030157521222C1F37409122048
:1053E00057E901570E1220585970030157521222E3
:1053F000C1F3740A122057E901570E12205A6C703B
:10540000030157521222C1F3740B122059A0015705
:105410000E1220597870030157521222C1F3740CF6
:105420001220591801570E9000C8EFE024041220F2
:105430005B5170030157521222C1F3740DF07B04CB
:1054400012205AB601570E122058F070030157521D
:105450001222C1F374071220582101570E9000C880
:10546000EFE0240312205B5170030157521222C156
:10547000F37408F07B0312205AB601570E12205A1B
:105480006C70030157521222C1F3740E122059A0FE
:1054900001570E1222C2991222C42624041222C2DB
:1054A00008E0FDA3E09000C8EDCD1222C3C7122290
:1054B000C245A3A3E0FF9000C8EFF01222C25FA391
:1054C000A3E09000C8F0F09000C8F37405F0EF126C
:1054D000000E6856710354EC04564205550B0655F0
:1054E000BC0756570856B409000056EB1222C31EDB
:1054F00024381222C20812205A3F70030156F312B8
:1055000022C3131222C1FD7402801D1222C31E2465
:10551000381222C20812205A3F70030156F3122299
:10552000C3131222C1FD74031222C26F9000C8ED92
:105530001222C23F122059D87B0212205BBE1222D7
:10554000C31E24071222C208E0FF9000C8F3E0FE49
:105550002407FDE433FC9000C8E91222C34C122258
:10556000C484EE2408FFE433CF2BCF3A1222C2C505
:10557000FCA3E0240812205B7224181222C2B5FC9E
:10558000A3E0241812205B7224281222C2B5FCA3C7
:10559000E02428FDE43CFC7B10120012109000C8AF
:1055A000F3E024381222C2B51222C34D243A12224B
:1055B000C2081222C32CE582243880761222C31E30
:1055C00024171222C208E0FEA3E02415FFE43EFEE9
:1055D0009000C8F3E07C002FFFEC3EFE9000C8EB8B
:1055E000F0A3EFF01225971D9000C8E91222C49293
:1055F00070030156F31222C3131222C1FD74041268
:1056000022C26F9000C8ED1222C23F122059D87BEF
:105610001012205BBE9000C8F3E024151222C2B520
:105620001222C34D24191222C2081222C32CE58271
:1056300024171222C208E0FAA3E0FB1200112F0186
:1056400056F312205A9470030156F31222C3131218
:1056500022C1FD7405801312205A9470030156F381
:105660001222C3131222C1FD74061222C26F015608
:10567000F39000C8F3E0240312205B366075122219
:10568000C3131222C1FD74071222C26F9000C8ED2D
:105690001222C23FE0FF9000C8F3E02402FDE43391
:1056A000FC9000C8E9E0FAA3E08A83759300122217
:1056B000C484803F9000C8F3E0240912205B366068
:1056C000321222C3131222C1FD74081222C26F903B
:1056D00000C8F3E024021222C2B5FCA3E02401FDBD
:1056E000E43CFC7B07120012108008E49000C8EB39
:1056F000F0A3F01222C52E4E60589000C8E9E0FCDD
:10570000A3E0FD4C604C12254D049000C8E9E0FE7A
:10571000A3E0FF022682B01222C2991222C2D4FE56
:10572000A3E0FFEE14702BEF24F26002802412221B
:10573000C23BA312000DD9E92403F9E43AFA12009E
:105740000AB164027D0270047F018002E4FF122727
:10575000627622F09000C8E1E0FCA3E0FDF5828CC7
:1057600083759300A3A3E0FE8D828C83759300A3C1
:10577000A3A3E0FCA3E0F5828C83759300EEF0EF29
:105780002401FFE433FE9000C8EBE0FCA3E02FFF10
:10579000EC3EFE9000C8E1E0FCA3E0F5828C83754E
:1057A0009300A3A3A3E0FCA3E0FD9000C8F0E0FBFE
:1057B000120012109000C8EFE02401FFE433FEA3B2
:1057C000E07C002FFFEC3EFE9000C8EBE0FCA3E085
:1057D0002FFFEC3EFE9000C8E1E0FCA3E0F5828CD8
:1057E00083759300A3A3A3E022F0EF2401FFE43329
:1057F000CF2DCF3CFE9000C8E1E0FCA3E02402FDE9
:10580000E43CFC7B02120012109000C8E9E0FEA309
:10581000E0FFA3E0FCA3E0FD122546199000C8EBD1
:1058200022F0EF2401FFE433CF2DCF3CFE9000C8DF
:10583000E1E0FCA3E02402FDE43CFC7B0312001247
:10584000109000C8E9E0FEA3E0FFA3E0FCA3E0FDA8
:10585000122546199000C8EB229000C8EFE0240200
:10586000FFE433CF2401CF3400FE9000C8E9F0A359
:10587000EFF01225971D9000C8EBEEF0A3EFF04E6D
:1058800022E0FEA3E0FF9000C8EFE0FD7C00EF2DDA
:10589000FFEC3EFEA3E02FFFEC3ECF2401CF34000F
:1058A000FE9000C8E9F0A3EFF01225971D9000C804
:1058B000EBEEF0A3EFF04E22F0EF2401FFE433CF44
:1058C0002DCF3CFE9000C8E1E0FCA3E02402FDE403
:1058D0003CFC7B08120012109000C8E9E0FEA3E037
:1058E000FFA3E0FCA3E0FD122546199000C8EB22BF
:1058F0009000C8EFE02403FFE433CF2401CF34004D
:10590000FE9000C8E9F0A3EFF01225971D9000C8A3
:10591000EBEEF0A3EFF04E22F0EF2401FFE433CFE3
:105920002DCF3CFE9000C8E1E0FCA3E02402FDE4A2
:105930003CFC7B06120012109000C8E9E0FEA3E0D8
:10594000FFA3E0FCA3E0FD122546199000C8EB225E
:105950009000C8EFE02408FFE433CF2401CF3400E7
:10596000FE9000C8E9F0A3EFF01225971D9000C843
:10597000EBEEF0A3EFF04E229000C8EFE02406FF1C
:10598000E433CF2401CF3400FE9000C8E9F0A3EF48
:10599000F01225971D9000C8EBEEF0A3EFF04E2219
:1059A000F0EF2401FFE433CF2DCF3CFE9000C8E19F
:1059B000E0FCA3E02402FDE43CFC7B021200121098
:1059C0009000C8E9E0FEA3E0FFA3E0FCA3E0FD1225
:1059D0002546199000C8EB22A3E0FF9000C8F3E031
:1059E000FE2402FDE433FC9000C8E9E0FAA3E0FBEA
:1059F0008A837593002DF582E5833CF583759300CA
:105A0000EFF0EE2403FFE433CF2BCF3AFE9000C833
:105A1000EDE0FCA3E02403FDE43CFC7B0212001259
:105A2000109000C8F3E02405FFE433FE9000C8E9BD
:105A3000E0FCA3E02FFFEC3EFE9000C8EDE022E08A
:105A4000FEA3E02438FFE43EFE9000C8F3E07C00B3
:105A50002FFFEC3EFE9000C8EBF0A3EFF01225976D
:105A60001D9000C8E9EEF0A3EFF04E229000C8EFC1
:105A7000E02402FFE433CF2401CF3400FE9000C8BD
:105A8000E9F0A3EFF01225971D9000C8EBEEF0A30C
:105A9000EFF04E229000C8F3E02402FFE433FE90C2
:105AA00000C8EBF0A3EFF01225971D9000C8E9EEB7
:105AB000F0A3EFF04E22EF2401FFE433CF2DCF3CD3
:105AC000FE9000C8E1E0FCA3E02402FDE43CFC12EF
:105AD0000012109000C8E9E0FEA3E0FFA3E0FCA3E1
