:020000040020DA
:1000000002200D6E9000F4DE12000D747810EC4D9D
:100010004E4F70047CA57DA5C3EC13FCED13FDEEE3
:1000200013FEEF13FF5010EC64CCFCED644CFDEEBE
:10003000644EFEEF64CEFFD8DF9000F4DE12000DB8
:10004000B5EE547FFE229000F4DEEEF0EFA3F0A3B5
:1000500074A5F0A3F0223030303000000000000022
:10006000000000000000000000000000000007FF8A
:1000700002278262000000000227C8180227C77802
:1000800002238047022699D8222A2B22022245EBFE
:1000900002216DC702246010C0E0F5E0C0E09000CE
:1000A000F53CE06401700975E00215E070FC802405
:1000B0009000F53CE06402700975E01415E070FCF6
:1000C00080129000F53CE06403700975E03015E0A3
:1000D00070FC8000D0E0E5E0D0E0220000000000ED
:1000E000000000000000000000000022022493B97C
:1000F00000000000220000000000000000000000DE
:1001000000000000000000000000000000000000EF
:1001100000000000000000000000000000000000DF
:1001200000000000000000000000000000000000CF
:10013000000000000000000000000006FF0227058C
:10014000010322220227CA88E09028FE00F1030959
:100150000000F3010AF40401000004F203090001A5
:10016000F3023506F40619110E19110FF2030900F6
:1001700004F3023510F41035061901000900173593
:1001800006190017090104F203090006F3023509F4
:10019000F40909656E09006A090100F20309000902
:1001A000F3023508F408350619110E090106F203A9
:1001B000090100F3022508F4084156524350204338
:1001C00054F203090102F3022504F4044D4348509C
:1001D000F203090311F30109F4020001FFE08D2885
:1001E000FE90F103090000F3010AF4040100000588
:1001F000F203090001F3023503F40319110CF203B1
:10020000090004F3023510F4103506190100090045
:10021000173506190017090104F203090006F30255
:100220003509F40909656E09006A090100F203093C
:100230000009F3023508F408350619110E09010604
:10024000F203090100F3022508F408415652435015
:10025000205447F203090102F3022504F4044D433C
:100260004850F203090311F30109F4020002FF50A0
:10027000DCD855E405D2AF9FA98FE54A7DFE4353F4
:10028000534942DB92001053DC4318A20016962417
:1002900047C62361BAD94B4D1E4353534942DCD460
:1002A000001350DB6316962447C62361BAD94B4D21
:1002B0001E4353534941DCD70042DB61000142DC5D
:1002C00056000042DCE8000253DBC70CA500B39BDC
:1002D0007234BEECD4A8F44341884353534942DC02
:1002E000D2001350DB51B39B7234BEECD4A8F4435C
:1002F00041884353534941DCD60042DB4F00015350
:10030000DB7F1CA7007E3B07FF1C51492FB3398AB6
:100310004C4353534942DBA3001350DC627E3B073E
:10032000FF1C51492FB3398A4C4353534941DBA534
:100330000042DC60000142DB9E000042DBA60002BE
:10034000605ADBE9EFFBDCD8DB9200100001EFDB49
:10035000DC43DCD400130001DB63DCD7DB6100F796
:100360000D10EFD9DC56DCE800022111EFDBDBC712
:10037000DCD200130001DB51DCD6DB4F00F70D109F
:10038000EFDBDB7FDBA300130001DC62DBA5DC60BD
:1003900000F70D10EFD9DB9EDBA60002211148DC2F
:1003A000580000DBE900A000A841ED540044ED4EE8
:1003B0000000000047ED5820434C43433A2041EDF4
:1003C0005F8241ED55006042ED60FF00FF010202D7
:1003D00003030404050506060707080809090A0AB5
:1003E0000B0B0C0C0D0D0E0E260F290F10101711F4
:1003F0001A121D1323142415FF16FF17FF18FF19D7
:10040000FF1AFF1BFF1CFF1DFF1EFF1F58C4A50086
:10041000A3000100A8000100C5000100F3000100D5
:10042000F7000100FA000141ECA70041ECCE0042C8
:10043000F32200F041F3200041F31F0041F31C00C0
:1004400041F31B0041F31A0042F111000043F0FF99
:1004500000000043F1EB00000043F1EE000000411A
:10046000F2AC0141D0CD0041D0D00141D2050041D4
:10047000D2060041D2010041D0C13341CBA000429D
:10048000CBA6000042E0040A1842E018000245E052
:100490002902D200292A42E04D000542E13A292AE8
:1004A00044E0594D43485042E138000445E03702EA
:1004B000D400242A42E063000542E008242A44E0F4
:1004C00065424D383342E006000445E02402D60080
:1004D000252A42E04B000542E136252A44E055300A
:1004E00030303042E134000445E01F02D800272AB2
:1004F00042E03E000542E12A272A46E04F425442AC
:100500004D383342E128000645E01A02DA00262A77
:1005100042E03C000542E126262A46E045313030E3
:1005200030303342E124000645E03202DC00282A64
:1005300042E05D000542E002282A44E05F303030AE
:100540003042E000000445E04002DE00232A42E1A0
:1005500022000542E016232A48E12C00000000009A
:1005600000000042E014000845E11B02E0002A2AD6
:1005700042E00A000542E0302A2A48E00C00000070
:10058000000100000042E02E000860AAE069EFFBD5
:10059000E004E01800020001EFDBE029E04D000577
:1005A0000001E13AE059E13800F70A01EFDBE037FA
:1005B000E06300050001E008E065E00600F70A01DD
:1005C000EFDBE024E04B00050001E136E055E134CB
:1005D00000F70A01EFDBE01FE03E00050001E12A21
:1005E000E04FE12800060001EFDBE01AE03C0005E7
:1005F0000001E126E045E12400060001EFDBE032E6
:10060000E05D00050001E002E05FE00000F70A01A4
:10061000EFDBE040E12200050001E016E12CE014F0
:1006200000080001EFDBE11BE00A00050001E030FB
:10063000E00CE02E0008000148E1130000E0690032
:10064000D000E050E2B8C2EA3379AFA9CD83244CA0
:10065000E0874353534942E30A001053E2E09AF221
:100660000045106CF2B716219670445CB7435353A3
:100670004942E37C001350E27745106CF2B7162133
:100680009670445CB74353534941E3910042E37A87
:10069000025842E306000042E392000244E2B40141
:1006A00000002942E308000453E37E18F6003F6A85
:1006B000776644F021B57749B64B4353534942E23C
:1006C00075001350E2A33F6A776644F021B577497D
:1006D000B64B4353534941E29A0042E27300014250
:1006E000E394000042E29B000253E2871AF900788B
:1006F0006D43F61088DE94A345D12D4353534942F0
:10070000E2A1001350E2F6786D43F61088DE94A360
:1007100045D12D4353534941E2B30042E29F0001CA
:1007200042E29D000042E2C80002606EE30CEFFB73
:10073000E2B8E30A00100001EFDBE2E0E37C001323
:100740000001E277E391E37A00F71F11EFD9E306A6
:10075000E39200022111EFF9E2B4E3080004001172
:10076000EFDBE37EE27500130001E2A3E29AE2739D
:1007700000F70D10EFD9E394E29B00022110EFDBAC
:10078000E287E2A100130001E2F6E2B3E29F00F784
:100790000D10EFD9E29DE2C80002211148E26B0082
:1007A00000E30C00F000FA50E795E4A5815029978A
:1007B000F0FC1A44D5044353534942E7C800105390
:1007C000E81802C20032A23EF5B468DFDB483927E0
:1007D000984353534942E792001350E7B832A23E80
:1007E000F5B468DFDB483927984353534941E79410
:1007F0000042E7B6000153E82B18C400EDFDAD231D
:10080000D3EEDAE5276CE3954353534942E7A5005D
:100810001350E7CCEDFDAD23D3EEDAE5276CE3957D
:100820004353534941E7A70042E7CA000142E84663
:10083000000042E7A80002603CE7DCEFFBE795E739
:10084000C800100001EFDBE818E79200130001E791
:10085000B8E794E7B600F70E01EFDBE82BE7A50059
:10086000130001E7CCE7A7E7CA00F70D10EFD9E8BE
:1008700046E7A80002211148E83E0000E7DC00C07E
:1008800000C541F53C0041DA89006030DA8CA8E20D
:100890000DA8E1C3A8E1FDA8E1AFA8E1EAA8E198AD
:1008A000A8E1D4A8E17EA8E171A8E127A8E161A8A8
:1008B000E113A8E14EA8E0FCA8E138A8E0E241D9A4
:1008C0008B0041D98C0041D98D0041D98E0141D98D
:1008D0008F0041EDA20044EDA30000000042EFEFC5
:1008E000001842EFEB011842EFFB002842EFFD0138
:1008F0002842EFE7022842EFDB032842EFF9002904
:1009000042EFE5012942EFD9022942EFDF032942F4
:10091000EFDD042942EFD7052942EFF3002A42EF29
:10092000E1012A42EFE9042A42EFF1052A42EFE30E
:10093000A62A42EFFFC92A42EFED292B42EFF72A00
:100940002B42EFF53A2B50F1970000000000000019
:1009500000000000000000008742E4AA000245E316
:10096000A80A0300002A42E45800056020E462421D
:1009700054353531315F53444B0000000000000016
:100980000000000000000000000000000000004225
:10099000E49B000A45E48C020500012A42E4A6001B
:1009A0000542E4A8000042E3A6000245E3DB02079B
:1009B00000042A42E482000548E4840800000A0298
:1009C000010D0042E4A4000845E496020900A62AAD
:1009D00042E4B1000541E3960042E3B1000145E481
:1009E00091020B00C92A42E4AE000541E4B0004286
:1009F000E3AF0001606EE3E0EFFBEFEFE4AA00027B
:100A00000001EFDBE3A8E45800050001EFF3E46226
:100A1000E49B00201B11EFDBE48CE4A60005000141
:100A2000EFE1E4A8E3A600020001EFDBE3DBE482F0
:100A300000050001EFE9E484E4A400080001EFDB15
:100A4000E496E4B100050001EFE3E396E3B10001B1
:100A50000001EFDBE491E4AE00050001EFFFE4B03C
:100A6000E3AF0001000148E45A0000E3E0000100A8
:100A70000B42E4A2000245E49D201200052A42E355
:100A800097000544E3990100FFFF42E44E00044251
:100A9000E4AC000042E3AD00026028E3B3EFFBEFFB
:100AA000EBE4A200020001EFDBE49DE39700050008
:100AB00001EFF1E399E44E00040000EFD9E4ACE368
:100AC000AD0002201148E4500000E3B30010001311
:100AD00041F2E00043F2E500010341F2DD0041F2A2
:100AE000DE0041F2DF0041F09C0050EA22666DD04A
:100AF00038E26F4AA483CCD0C94343534942E9AD9D
:100B0000001053E9B21832001803A6285ED8EC9101
:100B10001C48A3AC4353534942EA1D001350EA4713
:100B20001803A6285ED8EC911C48A3AC4353534944
:100B300041EA1F0042EA45000142EA13000042EA8E
:100B400020000253EA320435004F84F610761AD49E
:100B5000BD4941E4184353534942E9AF001350EAF9
:100B6000034F84F610761AD4BD4941E41843535319
:100B70004941E9B10042EA010001603CE9C5EFFBEF
:100B8000EA22E9AD00100001EFDBE9B2EA1D001333
:100B90000001EA47EA1FEA4500F70D10EFD9EA1312
:100BA000EA2000022111EFDBEA32E9AF0013000175
:100BB000EA03E9B1EA0100F70D1048EA150000E97F
:100BC000C50030003544E23D003300010041F548E6
:100BD00000C2D530F707B2D563F0FF05F030E70D5E
:100BE000B2D5F404008463F0FF05F080018430D5B1
:100BF00002F40422BC000BBE0029EF8DF084FFAD8F
:100C0000F022E4CCF875F008EF2FFFEE33FEEC3362
:100C1000FCEE9DEC984005FCEE9DFE0FD5F0E9E45E
:100C2000CEFD22EDF8F5F0EE008420D21CFEADF0F2
:100C300075F008EF2FFFED33FD4007985006D5F013
:100C4000F222C398FD0FD5F0EA22C2D5EC30E709B5
:100C5000B2D5E4C39DFDE49CFCEE30E716B2D5E4CA
:100C6000C39FFFE49EFE12200BF4C3E49DFDE49CB1
:100C7000FC800412200BF430D507C3E49FFFE49EF0
:100C8000FE22F8EB700C09E5F027C7F5F019E837FC
:100C9000C72289828A831410E707F593E802000BC4
:100CA0001FF593E4740193F5F0E49322BB000B0964
:100CB000C5F027F7C5F01937F722F8EB89828A8348
:100CC0001410E707F593E802000B09F593740193FC
:100CD00025F0F5F0E4933822EB7006E9F802200DD8
:100CE0001289828A831410E706F59302000D9CF5A1
:100CF0009302200D1FEB7006E9F802200D2F898268
:100D00008A831410E706F59302000DD9F5930220AB
:100D10000D38E6FB08E6F908E6FA08E6CBF822E427
:100D200093F8740193F9740293FA740393FB22E627
:100D3000FB08E6FA08E6F922E493FB740193FA74DF
:100D40000293F9220227A364E493A3F85407240C26
:100D5000C8C333C4540F4420C8834004F4568001F0
:100D600046F6DFE4800C0102040810204080902049
:100D70000148E47E019360CCA3FF543F30E5095461
:100D80001FFEE493A360010ECF54E0B4E029E49386
:100D9000FBA3E493FAA3E493F9A3E493C083C08292
:100DA00012000AE3759320D082D083A309E9700171
:100DB0000ADFE7DEE580BB54C025E0602B4089E414
:100DC00093A3FAE493A3F8E493A3C8C582C8CAC561
:100DD00083CA759300F0759320A3C8C582C8CAC59D
:100DE00083CADFE3DEE1808AE493A3F8E493A340BF
:100DF00003F68001F208DFF402200D72A895D500F9
:100E000004D104A8AECE0001B701A8912C00019E28
:100E100047A8B81700019E69A8B82E00019EBAA87D
:100E2000915300019ED1A886DB0001587DA8917ADC
:100E30000002BA8CA7FF7C0003D495A8938F000111
:100E400040AEA7B51200032D73A8455A0003EBF777
:100E5000A6B9C300047A35A8C1FF000324C2A8AE16
:100E6000EA0000100FA8288E0002830BA8C2100011
:100E70000396B6A8C22100039797A8B4F30004868E
:100E8000D1A8BF6D00044D67A862090001B5AAA8EA
:100E90007A1400017A0AA84C9700036114A8C501CE
:100EA00000008D66A7A976000288E1A876F4000309
:100EB000B920A8338F000151A2A88E190004E0992F
:100EC000A7F9C500026772A6EC620001BE52A81124
:100ED00044000320A2A8BE010002CB010006EA02E2
:100EE0000007EA00EA0100080000090000000A000B
:100EF00005000000000A00050000010005000201D5
:100F0000000C656E00000D656E000011000600000B
:100F1000AABB000E000143686174626F61726400D5
:100F200000040002000A00030000000000000000AE
:100F30000000DECAFADEDECADEAFDECACAFE3F65E8
:100F4000098601000A0004781D35330D0D13054490
:100F50007F502440503000022040401408001620EA
:100F60000A1016201E0F0F5555160A540B041200B6
:100F70000010120700000319FF40F07F40000077C7
:100F8000015E00F001E000C8204E00004839302426
:100F90002018126000000000000010008000008097
:100FA0005F9B34FB0000FFFF00000000000000001A
:100FB00000000000FFFF0000000000000000000033
:100FC00000000000000022222222222222222222CD
:100FD0002222222222220000000000000000000045
:100FE000424D38335F4D53504B323000000000000B
:100FF0000000000000424D38335F4D53504B3230FB
:1010000000000000022546BF0226882F00000D0ABE
:101010000D0A22220227BBC9022765060226594E65
:10102000022618500226EABF0226BE39022512BA4D
:1010300002210868022256470227854F0225A34E47
:1010400002240CB20223CA2A0226FDCE0221B438A1
:10105000022703A40223B9D8022690A40227461E21
:101060000226C71D02276E920226A02A022781812E
:10107000022669600226247C022694590226BB5966
:101080000225A28402258A5202278A330224D6C767
:101090000000000000000000000000000000000050
:1010A000C10300000020011001130114C101000060
:1010B00000000000000000000000424C455F424D6F
:1010C000383353444B004D41474943E49000C51425
:1010D000F09000C510F0A3F0A3F09000DB47E064AF
:1010E00001601012237D75701EA2904003D3800111
:1010F000C340149000D499E07002A3E06006E4FFBE
:101100001222A6DB7FFF2212237CE7C39000D4AF1C
:101110007005E094108003E09411FF9000D4AEE0DD
:101120009400FE9000D4CFE0FDC3EF9DFFEE94004D
:101130009000C50EF0A3EFF09000624EE0FF640651
:101140007003011E89EF640C7003011E899000C5B5
:101150000EE07002A3E07003011E899000DA43E004
:10116000600764016003011E891227AC2BEF600346
:10117000011E899000D48612237C60240C12237CEB
:1011800006E0FEA3E012237C3A12237C06E0600313
:10119000011E7E9000D4D0E030E0659000E979E057
:1011A000705E12237D759000C51770057409F0807C
:1011B000037412F012201F0FEFF09000C5181223D5
:1011C0007C3512237C06E4F0A37499F09000C517D7
:1011D00012237C52E582240712237C06EDF0900056
:1011E000C51812237C70240812237C06740DF07F2E
:1011F0000712000451E49000D9A2F09000DA26F022
:101200009000D4C4E0600301136912237C117AC5F5
:101210007B157D1012201F349000D4BEE0700301B6
:1012200013669000C515E0649C600301136690008E
:10123000C51104F012237C117AC57B157D117C0049
:1012400012201ED47AC57B167D1212201F34900006
:10125000C515E0FF9000D9A2E06F602212237D8DBA
:1012600070079000C511F080299000D9A2EFF0908E
:1012700000C516E09000D4DC12237D7C8014900021
:10128000C516E0FF9000D4DCE06F6006EFF012249A
:10129000F3F09000C511E0640160030113E7A3E0DF
:1012A00060030113E79000C51712237D959000C5D8
:1012B00017F012237D38C39F4003011350E4A3F0BD
:1012C0009000C518E0FD12237DAE506312237C11FF
:1012D0009000C51AE02410FB9000C519E03400FA14
:1012E0007C00EB2DFDEC3A12201EB69000D51DE0DF
:1012F0002410FDE433FC9000C51AE02DFD9000C5DC
:1013000019E03CFC9000C518E07A002DFDEA3CFC99
:101310007AC57B16122785239000C516E0FF900042
:10132000C515E0B507099000C518E004F08091905C
:1013300000C518E0640370189000D51DE0FF900010
:10134000C51912237D619000C517E004F00112B2A7
:1013500012237D386F70030113E7E49000C511F08C
:101360009000C51480297FFF2212237CE77025900E
:1013700000C5110412237CF4701112237D8D7007B7
:101380009000C511F0800412237D7D9000D9A274D5
:10139000FFF080539000D4BEE0604C12237C117AA1
:1013A000C57B177D117C00122785239000C517E0AF
:1013B00054F8F09000C511740112237CF454F81213
:1013C000237D40FEB507089000D4D0E030E018122D
:1013D000237D8D70079000C511F0800BEE440790BF
:1013E00000D9A212237D7C9000C511E07003011E7C
:1013F00089A3E060601200048A12237C2612237CF9
:1014000006E4F0A3740B12237CF4FB12237BFBEBAA
:10141000F07F08120004519000D4D0E054FEF0E4B4
:10142000FF1222A6DB9000625CE0607612237CC68D
:101430006005EF6409706BE49000DB43F012000478
:101440008A12237BDB741EF09000C517E0FCA3E03A
:10145000FD7F0780499000624EE0FF640D6043EF1E
:101460006404603EEF640360399000DA3DE0640498
:1014700060309000624EE0640A6027EF640C6022E6
:101480001200048A12237C2612237C06E4F0A37443
:101490000B12237CF4FB12237BFBEBF07F08120082
:1014A00004519000C50EE0FEA3E09000D486122304
:1014B0007D2AA3A3EEF0A3EFF08D828C83759300B9
:1014C000A3A3E475F01012000B099000F52BE09037
:1014D00000C510F06003011C8D12237CE77008909A
:1014E00000C51304F0800C9000D4BEE0540F9000AF
:1014F000C513F09000E963E0605312237CC66005D9
:10150000EF640970489000D4B512237C6A24091254
:10151000237C06EFF09000D4AB12237C88240812C1
:10152000237C06EFF09000D49DE0540F6401700A14
:101530009000D4A8E09000D488F012237C8A24097B
:1015400012237C06E09000E98DF00117E2E49000A0
:10155000C518F09000D4E5E004F012237C6A240959
:1015600012237C0612237CD29000D4EDE02FF09061
:1015700000D4B8E0FBA3E09000C519CBF0A3EBF0DA
:101580009000D483E0F4607EE004F09000D485E025
:10159000FEEFC39E400C9000C513E09000D485F090
:1015A000801E9000D49BE0FF9000C513E0FEC39F17
:1015B00040089000D49BEEF080069000D484EEF0BA
:1015C0009000D483E06414703D74FFF09000D49BCD
:1015D000E0700A9000D485E09000D49BF09000D495
:1015E00084E0700A9000D49BE09000D484F09000D6
:1015F000D49BE0FF9000D485E02FFF9000D484E0DE
:101600002F9000D488F09000C519E0FFA3E090006F
:10161000D4EA12237CCF9000D4F3E4F0A3EFF0904F
:1016200000D4ED12237C88240812237C06EFF0906E
:1016300000C5177408F09000612AE07003011727B5
:101640009000D4BEE0FF9000C51B12237CE670071B
:1016500012237CFB0117019000C51BE0FD7C00C339
:1016600012237D9F402012237CFB9000D207E004D0
:10167000F012237D9D500301170112237CFBE4909F
:1016800000D207F0807BED64074C701F12237CFBB7
:101690009000D495E004F0E0D312237DAF406212B5
:1016A000237CFBE49000D495F080569000C51BE0AD
:1016B000FD7C006406702112237CFB9000D496E030
:1016C00004F0E0D3940474809480403512237DA606
:1016D000E49000D496F08029D3ED9405EC648094D6
:1016E00080501E12237DA69000D498E004F0E09470
:1016F0000674809480400A12237DA6E49000D4985A
:10170000F09000D49CE060199000C51BE012237D8E
:10171000AE400E9000D49CE014F09000C517E01489
:10172000F09000D4E9EFF012237CB1A3E0FD8F82AA
:1017300012237C1B2DFDED30E0149000C50FE0243A
:101740000F12201E909000C50FE0240E8016122369
:101750007C119000C50FE0240E12201E909000C551
:101760000FE0240DFD9000C50EE012201F1B90001D
:10177000C513E0FB9000D4E5E0FE2BFD9000C515FD
:10178000E02DFDA3E02D540FFDC2AF9000E980E0F5
:1017900054F04401F09000D488E09000E98BF09080
:1017A00000E98DEEF09000D4EDE09000E98EF0EBD2
:1017B000540FFFA3E054F04FF0AF05EF540FC454A3
:1017C000F0FFE0540F4FF09000DB4BA3E09000E9F6
:1017D0008AF012237C117CE97D807B1012001210AC
:1017E000D2AF12237D756003011A089000C513E083
:1017F00025E02402FF9000C51BF07E00D3941074F6
:101800008094805055EF94047480948050061200A8
:10181000048A80289000C51B12237D9D500612006B
:10182000049D80189000C51BE0D3941074809480B0
:101830005006120004B080041204EF80EE12237DE3
:10184000D8EFF09000C51312237C52E582240812D1
:10185000237C06EDF0EF2409807512201F0FEFF0B6
:101860009000C51BE0FFC39401FDED541FD394000D
:10187000E49400400AEF9401C413540704800C90D0
:1018800000C51BE0C39401C4135407FF1204875F13
:101890009000C51812237C70240812237C06EEF0F9
:1018A000A3EFF09000C51312237C88240812237C38
:1018B00006E0FCA3E012237D30EFF09000C5181283
:1018C000237C60240812237C06E0FEA3E02401FFB1
:1018D000E43E9000C520F0A3EFF09000C51812235D
:1018E0007C3512237C06E4F0A37429F09000C51B1C
:1018F000E0C3940112237C53E582240712237C0663
:10190000EDF09000C512E09000C518600C12237C29
:101910006012237C04E4F0800B12237C6012237C91
:10192000047401F0E49000C51AF012237CD49000F6
:10193000C51AE0FEC39F40030119FEEE700A900035
:10194000C51EF0A304F0806B12237C1112237C943B
:1019500012201EB612237C94CD2401CD12201F1B11
:101960009000C515E0FEA3E0FDEDFF9000C51CEE64
:10197000F0A3EFF09000C51CE0FEA3E07802CEC318
:1019800013CE13D8F9FFEE5401FEEF2401FFE43E1D
:10199000FE9000C51CF0A3EFF09000C51FE02401ED
:1019A00012237C9BCD2FFFED3ECF2402CF3400F0DD
:1019B000A3EFF09000C51AE025E0A3F0FB12237C12
:1019C0001112237C94FC7A0012237DCCEA38FA129F
:1019D000201ED412237C94CD2401CD3400FC900031
:1019E000C51BE02401FBE433FA12237DCCE83AFA6C
:1019F000122785239000C51AE004F001192A12234A
:101A00007DFD7F081200045112237CB1A3E0FD8FFD
:101A10008212237C1B2DFDED30E0269000D486122F
:101A2000237C42E5822DF582E5833CF583759300A6
:101A3000E412237D5712237CBAE475F00112000BE7
:101A40000912237CC46008EF64096003011B8C90B9
:101A500000625CE07003011B8C9000E944E0FF70C1
:101A600003011B8C9000C517E0FE12237C6C12232F
:101A70007C04EEF012237C8A240712237C06EFF00C
:101A80009000644C7401F012237C5C12237C04E00F
:101A9000700412237DE912237C5C240912237C0646
:101AA00012237C88240912237C06E0FED39F400485
:101AB000EE9F802312237C5C240912237C06E0F431
:101AC00004FF9000D486E0FCA3E08C83759300248F
:101AD0000912237C06E02F0490006F51F09000F073
:101AE0005AE0FD600C12237CD49000D4F712237DC1
:101AF000619000D4EEE025E0FEE43312237DD8CEE1
:101B000012237CE670109000DB43E0601712237D07
:101B1000D7740FF0800E9000DB43E0600712237D46
:101B2000D77464F0ED60659000D48612237C602445
:101B30000912237C06E0FF605312237DFDC3900051
:101B4000D4F8E09D9000D4F7E09C40409000D4C2CF
:101B5000EFF01200048A9000C51A12237BDF741F75
:101B600012201EEDE49000D4F7F0A3F09000DB43C8
:101B7000E0601914F0E0640670121200048A90000C
:101B8000C51A12237BDF740B12201EED9000E8FBB8
:101B9000E0FF7E0064036005EF64097008E49000D4
:101BA000DB16F0800AEF4E70069000DB1604F09012
:101BB00000D48612237C3512237C067401F0900039
:101BC000C51312237C52E582240512237C06ED12F4
:101BD000237D5712237CBAE0FEA3E0FF9000D49946
:101BE000EE12237D629000D499E0FEA3E0FF7DB168
:101BF0007C00120011589000D4E8EF12237D57FFAB
:101C0000F5828E8312237C4A12237E0712237C6C7A
:101C1000240C12237C06E0FAA3E0F5828A837593F4
:101C200000EEF0A3EFF012237C8A240C12237C0632
:101C3000E0FFA3E09000D48612237CCF9000D48BE9
:101C400012237D619000F00612000D74E4FFED5444
:101C500002FDE4FCED603212237D75602C9000D40F
:101C6000C3E060259000E963E0701E9000D4ECE0D2
:101C70006402700F9000624EE0640D700612233F04
:101C8000598006E49000D4F9F0D2AF805112201FA1
:101C90002712237CC66005EF6409703F9000625CE8
:101CA000E060261200048A9000C517EEF0A3EFF062
:101CB00012237C3A12237C06E4F0A3749412237B53
:101CC000FA740C12201EFE80129000612AE0600B54
:101CD0009000683BE060041227AC487FFF22900030
:101CE000D4ECE06003011E46C2AF9000D208E004CD
:101CF00012237CD39000D481E02FF0D2AF9000D497
:101D00007FE0FEA3E0FF8E83759300240C12237CFA
:101D10000612237C42A3A312237E077DB17C00120E
:101D20000011589000D4F1EFF09000624EE0640D85
:101D30006011C2AF9000625AE4F0A374C8F0D2AF51
:101D4000011E339000D4C4E0FF7E00F4700F9000B9
:101D5000D4EEE0FD9000D481E0C39D5028EFF44E16
:101D60007003011E089000D208E0C394167480949A
:101D70008050129000D4EEE0FF9000D481E0C39F29
:101D80005003011E0812237CC66005EF64097044ED
:101D90009000DB43E060079000E963E0703690005C
:101DA000625CE060101200048A12237BDB74011273
:101DB000201EFE80079000E963E06077C2AF9000CC
:101DC000625A740CF0A37480F0D2AF9000D4EC741B
:101DD00001F0805FC2AFE49000625AF0A3F0D2AF8E
:101DE0009000DB43E0600E9000E963E06007900044
:101DF000DB437402F09000D4E8E09000D490F090BF
:101E000000D4EC7402F0802B12237CC46005EF64D4
:101E10000970149000612AE09000625A600D74010C
:101E2000F0A3742CF0800A9000625AE4F0A374C806
:101E3000F0D2AF9000C50EE0FFA3E09000D51FCF19
:101E4000F0A3EFF080439000D4ECE0FF7E0064014B
:101E5000701AC2AF9000D208E004F09000C513E001
:101E6000FD9000D481E02DF0D2AF801DEF64024ED2
:101E700070179000D481F09000D208F0800B1220EF
:101E80001F279000C51474FFF09000C514E0FF22D6
:101E9000FD9000C50EE03400FC7AC57B1512278545
:101EA000239000D486E0FEA3E0F5828E8375930034
:101EB000E0FEA3E0FF22FC7AC57B15122785239064
:101EC00000D486E0FEA3E0F5828E83759300E0FEE9
:101ED000A3E0FF22122785239000D486E0FEA3E032
:101EE000F5828E83759300E0FEA3E0FF22F0900060
:101EF000C51AE0FCA3E0FD7F071200045122F09018
:101F000000C517E0FCA3E0FD7F0712000451221278
:101F100000048A9000C518EEF0A3223400FC7AC5B4
:101F20007B161227852322E4FF1222A6DBE4900011
:101F3000D9A2F0227C00122785232212219651E09B
:101F4000F9759300A3E09000C677F0E4FE9000C618
:101F50008CF0AF01FD1227B7039000C677E020E0B8
:101F600003011FE812219B7FF460109000C68DEFE3
:101F7000F07AC67B8C7D021225692E1227C83CEFB1
:101F800060519000ED5FE0648170289000C68CE0A5
:101F90006402701FFF1227B94E9000ED5F7482F04B
:101FA0009000ECF2E060419000C68DE0FF122575D4
:101FB0005080359000ECF2E0600A9000C68DE0FFA2
:101FC0001225D0C57F011227B94E9000ED5F7481B4
:101FD000F080159000C68CE064029000ED5F700503
:101FE0007482F080037480F09000ED5FE09000C692
:101FF00078F0E4A3F07EC67F781222BDDA7F00225B
:10200000227F0122229000C80AEFF0A3ECF0ED122B
:1020100021D1D39000C80AE01221CFCFAF82900027
:10202000C80FF0A3EFF09000C80B1221D066240770
:102030001221CF8FE024F6604824FE60030120C700
:102040009000C811EE1221D34824091221CF8FE04D
:10205000FEA3E0FF122750B49000C8131221D2EB68
:1020600050028001C340057E007F01229000C8130A
:10207000E0FF9000C80BE0FCA3E0FD1222EF05801A
:102080003B9000C80B1221D06624051221CF8F127D
:1020900021D1DB24191221CF8FED1221D057240634
:1020A0001221CF8F1221D1F5241A1221CF8FEFF0F8
:1020B0009000C80A1221D1EC1223FC389000C80D00
:1020C000EEF0A3EFF0802F9000C80B1221D0662411
:1020D000051221CF8F1221D1DB24191221CF8FEDD0
:1020E0001221D05724061221CF8F1221D1F5241AA4
:1020F0001221CF8FEFF09000C80DE0FEA3E0FF2289
:102100000226DCC70227C948020404FD020407F5C1
:102110000227C53E022797570227C7470224F99393
:10212000022602A1022669E1022499229000C6AD8E
:102130001221D30B1221D1D0AB07AA061221D12430
:10214000940AEE940040030121C8EB240A1221D125
:1021500020940AEE94005070EB24141221D12094A4
:102160000AEE94005062EB241E1221D120940AEE54
:1021700094005054EB24281221D1209408EE9400AE
:102180005046EB24301221D1209408EE94005038B0
:10219000EB24381221D1209430EE9400502AEB2405
:1021A000681221D1209410EE9400501CEB24781278
:1021B00021D1209430EE9400500EEB24A81221D1AE
:1021C000209430EE940040057E007F03227FD87E6D
:1021D0000012257EA59000EF131221D0757004FE29
:1021E0007F01221221D4799000C6ADE0FCA3E0FD6E
:1021F0007BD87A001200112FE4FEFF2201020017A3
:102200000E12010A4254353531315F303032030449
:10221000010100019000C871EEF0A3EFF07EC87FCD
:10222000737B06E4FD1200004F12226E72FF122231
:102230006E42E0FCA3E08CF012000E90231C000123
:10224000279300022D3500032B6D00042C2D000573
:102250002C7E0006377200072C8200082CCA000969
:102260002CE9000A2DC910012DD510022E201003D3
:102270002E3110042F6A1005377210072EDD10085A
:102280002E4F100A2DC5100B2EA7100C3772100DF3
:102290002EA5100F37721015377210163772101DD9
:1022A0002FB3101E2FCB2001305C3001377230026B
:1022B000307930033772300430CD30053183300C43
:1022C00031E8300D3260300E32F7300F32F7301017
:1022D00032F7301132F7301232F7301332F7301450
:1022E00032F7301532F7301632F7301732F7301830
:1022F00032F7301932F7301A32F7301B32F7301C10
:1023000032F7301D35BE40013772400235EB5001C7
:10231000370D5002377250030000373912226E8C8D
:10232000E582240412226E07E09000C87912226E22
:102330008BE582240512226E07E09000C87A1222F3
:102340006E39A3A3E0FF9000C890F012203AEE90FF
:1023500000C88FEFF09000C879E060046401703C21
:102360009000C87AE064027023740512226E12A3F2
:10237000A3E0FF12227109122615D51222713090A6
:1023800000C87D60030124CEF00125019000C87AC9
:10239000E06003012501A3740701243312227109AF
:1023A0006402704DA3E064027011740612226E1272
:1023B000A3A3E0FF122615D50125019000C87AE0FD
:1023C0006003012501A37408122270019000C87CEB
:1023D000F01227ABD4EF600301250112226EAA127E
:1023E0002270177410F0E4FB7D0E12277363012531
:1023F000011222711064037041A3E0FD7C006402AD
:102400007024A3740B12227001540FFE9000C87C3C
:10241000E054F04EFEF09000C88F122270D4FBEE14
:10242000540F4B0124FCED4C60030125019000C8C2
:102430007B740C122270010124FCEF64047056902E
:1024400000C87AE0FB7A0064027020740D12226EDC
:10245000E6FFF012226E5D12226F2F9000C87DF011
:10246000543F122271BB7411F08063EB4A60030188
:10247000250112226FFB5403FF9000C87C12226FCB
:1024800014FFF012226E5D12226F2F9000C87CF0B4
:10249000543FF0806C9000C879E064057063A3E05D
:1024A000FB7A006402702C741012226EE6F054C79E
:1024B000FFF012226E5DA3A3A3E01222704FFEEF85
:1024C000543F4E9000C87D122271BB7411F074010C
:1024D000F0802EEB4A702A12226FFB5403FF90000B
:1024E000C87C12226F14F054C7FFF012226E5DA355
:1024F000A3A3E01222704FFEEF543F4E9000C87C21
:10250000F09000C87AE0FF64026003EF701590005D
:10251000C879E06406600C7EC87F7B1222BDDA12A7
:1025200024792B9000C87AE06402600301270E90A2
:1025300000C895F0A3F07F091226755F12251922B5
:102540009000C89512226F54602C12226E3AA3A3F9
:10255000E075F010A4FFAEF012227109EF4D90006B
:10256000C897122270FBFD12226EAAAB0512226FD1
:10257000617D170137351226BC2C7EC87F7312226D
:1025800071097B011223B18912226E3AA3A3E0FFE5
:102590007CC87D739000C879E0FB9000C8A97401E5
:1025A000F01222B4149000C879E06007640160035F
:1025B0000126839000C471E05407601512226EAAB0
:1025C00012226E5D122270BE7402F07D091227661F
:1025D000147D017F05122563047EC87F9212277E39
:1025E000DE9000C892E030E5151222708F1226B8F6
:1025F00070EF640270081222708F12268CE6900031
:10260000C892E030E32D1222708F7CC87D9712278C
:102610002BB97EC87F99122796629000C89AE03045
:10262000E0119000C897A3E030E1081222708F12E9
:10263000276D021222708F7D011226C6519000C8AC
:1026400079E0600301270E7EC87F9312277F0B7EFF
:10265000C87F9412277F659000C893E020E50301AE
:10266000270EA3E020E30912227185700301270ED3
:1026700012226E3AA3A312226F407D0112240AE6B1
:1026800001270E12227096702F7EC87F9112278329
:10269000979000C891E030E7067F021226F44A7D49
:1026A000017F06122563041227ABD4EF60607D0220
:1026B0007F011224DB9580569000C879E064037096
:1026C0001E9000C471E030E44512226EAA12226E00
:1026D0005D122270BE04F07D0A12276614802F124C
:1026E00022711064046005EF640570229000C879BF
:1026F000E06404700F12226E3AA3A3A3E0FF122736
:1027000019F2800A7EC87F737D101226ECE69000D5
:10271000C87AE0600301377212227096702B122281
:102720006E3AA3A312227138B5070E9000C46DE073
:102730007007FD7F011224C07C7F0212203B3D60A8
:1027400003013772FD7F0680461222711064046017
:1027500005EF6405700D12226E3AA3A3A3E0FF02F9
:10276000270D759000C879E06007640160030137A8
:102770007212203ACCFF12203B3D60030137727F7A
:102780000112272D6CEF4E6003013772FD7F0502A9
:1027900025630412226E721222709E240C12226E85
:1027A00007E09000C87912226E8BE582240912227C
:1027B0006E071222714A640160030137729000C8EB
:1027C000957408F09000C89E122271B4122270967F
:1027D00060030129CA12227008122715049000C84C
:1027E00090EF12226E7112226F6A12226E07E0FFC2
:1027F0001227AFA89000C88FEFF06404605CE0255A
:10280000E025E0245EF582E434C412226F286403DC
:1028100070489000C8A2F0A3740212226E711222B6
:102820006F6A12226E07E0540FFF9000C8A4E054B4
:10283000F04FFF12227001540FC454F0FEEF540FFA
:102840004E9000C8A4F078A57CC87D017B017AC8B1
:1028500079A2122270CA1226D0F59000C890E064C6
:102860000860717EC87F957CC87D961227A3DE9094
:1028700000C890E02496F582E434C812226F28FF45
:10288000540F9000C893F0EF54F0C4540F9000C858
:1028900092F0A3E0FF1227BD399000C894EFF01228
:1028A00027C874EF7EC87F9170061227A438800471
:1028B00012277DFD12226E7212226F6A12226E079B
:1028C000E0FF7CC87D91122628119000C891E0FF9E
:1028D0001226F2E612226E7212226F6A12226E071E
:1028E000E0FF1227780F9000C46DE0701012226E86
:1028F0007212226F6A12226E0712203B2274151286
:10290000226E6D12226F6A12226E07E09000C87C60
:1029100012203AFF12226E721222700EE4FB7D0723
:102920001223B18912226E721222709E240F12227B
:102930006E07E0701C9000C8A2F0EF1222700E7CAF
:10294000C87DA2122747A39000C8A2E030E73880D4
:102950003212226E721222709E240F12226E07E033
:10296000541F6401702112226E8CE5822410122201
:102970006E07E054406440600E122270087D8012A1
:1029800026ECE612226FB67EC87FA1122783C39081
:1029900000C8A1E030E40412226FB67EC87FA01206
:1029A00027BE639000C8A0E0FF12226F808C837561
:1029B0009300240A12226E07E0FCA3E0FD9000C8F9
:1029C0009EE0FAA3E0FB0226C1E49000C879E06033
:1029D00003012B5F741112226E6D8E837593002498
:1029E0000D12226E07E0640870079000C87C048016
:1029F0001A12226E7212226F6A12226E07E0FF1202
:102A0000277CEFEF6009E49000C87C12203AFF12A7
:102A1000226EAA12226F801222714012226E07E0EB
:102A2000FB7D1E1227931D12203ACC12279D7DEFAD
:102A300070549000C45AE06405704512226E721200
:102A400022700E122715049000C8A2EFF0FB12228C
:102A50006EAA7D061227931D12226EAA7D071220F0
:102A60003AC112226EAA7D0512203AC112226EAA24
:102A700012226F801222714012226E0712203B2B0D
:102A80007F0C1226755F12226E721222709E240D28
:102A900012226E07E012000E682B5B022AB5042A90
:102AA000CA082AB5102AB51F2AB5222AB5232AB585
:102AB0002A00002B3012226E8CE582240812226E2E
:102AC00007E0FF12275E10012B5B9000C8A2E4F024
:102AD000A304F07EC87FA21227250A9000C8A2E0B6
:102AE000FAA3E0FB4A9000C871601CE0FCA3E0FD83
:102AF0001222714012226E07E0FFED2402FDE43C39
:102B0000FC1225BE468014E0FEA3E012226F6A127A
:102B1000226E07E0FDE4FF1226DEA79000C45AE013
:102B20006039640260359000C48B12203AE5802B36
:102B300012226E7212226F6A12226E07E0FF1226B4
:102B4000BA1B9000C45AE0600C640260089000C494
:102B50008A12203AE57F0B1226755F022452361244
:102B600022713060030137727F0E012D3112226E07
:102B70003AA3A3A312226E3EE060030137729000D5
:102B8000C87DF0A3F0A3F09000C87DF09000C87D50
:102B9000E0FFC3942074809480502E12226E5D1248
:102BA0002270758C83759300240712226E07E582CC
:102BB00012226E06E070099000C87DE004F08009E2
:102BC0009000C87DE004F080C39000C87DE0FF2441
:102BD00002FCE433A3F0A3CCF012226E5DA3A31297
:102BE0002271C2E4A3F0FE12257EA59000C87B12DC
:102BF000226F5470030137729000C87BE0FEA3E09F
:102C0000FF12226E5D122270752407FDE43CFC1257
:102C1000203B099000C87EE0FEA3E0FF7B017AC85C
:102C200079791224706E9000C87B0135B5E490006C
:102C3000C879F0A312226E71FF12226E42A3A3A3E1
:102C4000E09000C87912226E8B1222714870121225
:102C500022711064016005EF640370057F04012D8B
:102C6000319000C87AE060030137729000C879E0C3
:102C70006007640260030137727F05012D31022570
:102C800011A578797CC87D017BA17A0079567E00F8
:102C90007F1012000A339000C8897404F07EC87F48
:102CA000897CC87D791227ACBA12226E722402FD8B
:102CB000E43EFC9000C889E0FB9000C8A974C8F00D
:102CC000A37479F07F01022764649000C477E0FF69
:102CD000E4FD12272DFC1227AFDEEF70067F0F12E6
:102CE00026755F7F010227BFA412226E722404FFA3
:102CF000E43EFE12203B44F0FB12226EAA7D061237
:102D000027931D12226EAA7D0712203ADA12226E34
:102D1000AA7D0512203ADA12226EAA12226E5DA353
:102D2000A312203B2B1227AFDEEF60030137727F27
:102D30000F0226755F12226E728E83759300240E29
:102D400012226E07E09000C88DF0E4FD7F0212248D
:102D5000C07C1222706E7CC87D8E1226BC959000BD
:102D6000C88DE064019000C8797020740912226E49
:102D70007112226F6A12226E07E09000C87AF07D0D
:102D8000017F011227653C7D01802A740A12226EA0
:102D90007112226F6A12226E07E09000C87AF0E486
:102DA000FDFF12276B9DE49000C46FF07D01FF12C0
:102DB00027653CE4FD7F01122563047EC87F7912FC
:102DC00022BDDA80000226221512226E72122270B3
:102DD0000E02249A7B12226F80FD12226E65A3A33D
:102DE000A3E06407701312226E94E5822404122279
:102DF0006E07A3E0FD0226E25A12226F80FD122226
:102E00006E65A3A3A3E06405600301377212226E0E
:102E100094E582240412226E07A3E0FD0226E374E7
:102E200012226E3A12226FE4AA06F97B010224589C
:102E30006412226E3A12226FE4122270F712226E8E
:102E400042A3E09000C87BF0FDE4FF0227B71A120E
:102E5000226E3AA3A3E0FF7AC87B797D011225692F
:102E60002E1222709670041226221512226E3AA398
:102E7000A3A312226E3EA3E0700C9000C478E0FF82
:102E8000E4FD12272DFC7EC87F7A12277EDE90009B
:102E9000C87AE020E40301377212226E3AA3A3E05D
:102EA000FF02268CE6800012226E72FF12226E4212
:102EB000A3A3A3E0FDA3E0CD12226E84A3A3E09020
:102EC00000C87DF0122270A512226E42E09000C868
:102ED0007C12226E8BA3E09000C87BF02212226E3F
:102EE0003A12226FE4122270F712226E42A3E064BB
:102EF00001701D9000C87912226E3EA3A3E0FF90DE
:102F000000C470E06F7003013772EFF00226F2E642
:102F10009000C87912226E3EA3E06402600301377C
:102F2000729000C87B1222706D7CC87D7B12271EB8
:102F3000CD9000C87BE06401701B1227C915EF64B7
:102F40000C70129000C87912226E3EA3A3E0FF7DA0
:102F5000011226072F9000C87912226E61E0FF75DA
:102F60009300A3A3E0FD0226E54A12226E72FF122F
:102F7000226E42A3A3E0F99000C87912226E8BA3BF
:102F8000A3A3E0FFA3E09000C87ACFF0A3EFF0AFD7
:102F9000019000C87AE0FAA3E0FBF5828A8312224E
:102FA000715B7C0012226F77A3A3E0FAA3E0FB021F
:102FB00026820112226E72FF12226E4212226E7B54
:102FC00012226E9BA3E0FD02269E5E12226E7224E8
:102FD00002FFE43E12226F9212226E42A3E06402CC
:102FE000701F9000C87912226E3EE0FD1222706EB2
:102FF000ED6F600D9000C46DE070067F041224C078
:103000007C122270A512226E42A3E06402701C1290
:10301000226E8CE0FF7CC87D7B12268C6E9000C8EF
:103020007BE0FF122719A4E4FF802D9000C87912DD
:10303000226E3EA3E0640160030137721227C83C90
:10304000EF70030137721227C851EF600301377226
:103050007F011227B94E7F01022720E512226E72EE
:10306000FF12226E4212226E7BA3A3E0FFEC541EDD
:10307000FCED5402FD02275A7712226E722402FFE1
:10308000E43E12226F9212226E4212227138B5076C
:10309000151227C915EF640D700C9000C879122223
:1030A0006E3E12203B14122270A512226E42A3A380
:1030B000E0700A12226E8CE0FFE4FD800C9000C8E4
:1030C0007912226E3EE0FF7D010226E66412226E36
:1030D000721222715112226E07122271C2122452F0
:1030E0003612227130703B12226E3AA3A3E0FF7CAD
:1030F000C87D8312268C6E9000C883E0FF122719CA
:10310000A412226E3A12203A8F7B017D021223B163
:10311000899000C46DE0700A12226E3AA3A31220B7
:103120003B227EC87F8012203B349000C8807418F8
:10313000F0FF122706A09000C881EF12226E7112D4
:1031400022709E240412226E07E09000C882122290
:103150006E8BA3122271489000C880E0FF12261ED9
:10316000729000C87BEFF0A3E4122271BB74C8F028
:10317000A3748112226E39A3A3E0FF7CC87D7A027A
:1031800024ABCC12226E722402FFE43E12226F9313
:103190009000C87912226E61122271597B011226A9
:1031A0003ED29000C87912226E6112227159122605
:1031B000E6C29000C87912226E3E12227138B5071D
:1031C000151227C915EF640D700C9000C8791222F2
:1031D0006E3E12203B141227ABD4EF7003013772FE
:1031E0007D027F010224DB9512226E722402FFE42D
:1031F0003E9000C87DF0A3EFF0A37404F09000C8E7
:103200007DE0FEA3E0FF12226E42122271C2A3747F
:1032100003F0E49000C87CF09000C87B12226E8B13
:10322000A3A3E060169000C87C7401F01227ABD411
:10323000EF60087D027F011224DB959000C87D12AB
:10324000226E3EA3E060079000C87B7401F09000FE
:10325000C87FE0FF7E007B017AC879790224706E16
:103260009000C87D740612226E3912226FE4122279
:10327000715112226E07E0FEA3E0FF9000C87DE0CE
:10328000FD7C00EF2D12203A55700301377290003B
:10329000C87BE0FEA3E0FF12226E42742012226F70
:1032A0007FFD12226E65A3A3E0FB12226E9FA3A3F3
:1032B000A312226E61EBF0EF2401FFE412226E5B99
:1032C00012227075FD12203B099000C87DE0122289
:1032D0006E4A12226FCB240612226E0712226F72E0
:1032E000E582240412226E0712203A761227C418AF
:1032F0009000C87B0135B59000C87F740512226E1E
:1033000071FF12226E42E0FCA3E08CF012000E90DE
:1033100033BA300F356230103577301134F6301251
:10332000350C301335223014353730153350301604
:1033300033A4301733D03018341D30193433301AD9
:1033400034CA301B34E0301C35A2301D0000377207
:103350009000C880740812226E8B12226FE48E8354
:10336000759300240612226E07122038D9700301CB
:10337000377212226FEC12226E01E41220377312A0
:10338000226FCF240812226E0712226F72E5822468
:103390000612226E0712203A7612252C939000C84E
:1033A0007B0135B512203970700301377212226D1E
:1033B000F27401122038A10135B5122039107003C2
:1033C00001377212226DF27402122038410135B5B4
:1033D0009000C880740D12226E3912226FE48E8321
:1033E000759300240B12226E07122038D970030146
:1033F000377212226FEC12226E017403122037739F
:1034000012226FCF240D12226E0712226F72E582F4
:10341000240B12226E0712203AA00135B512203972
:1034200098700301377212226DF274041220393839
:103430000135B59000C880740512226E39A3A3A38C
:1034400012226E3E12226FE4FF9000C87FE0FD7CE6
:1034500000EF2DFFEC3EFEA3E02F12203A55700343
:1034600001377212226FEC12226E01740512226F64
:103470007FFD12226E65A3A3E0FE12226E9FA3A31E
:10348000A312226E61EEF0EF12226E4A12227075C4
:10349000FD9000C880E0FB120012109000C87FE091
:1034A0002401FFE433FEA3E07C002FFFEC3E122258
:1034B0006E4F12226FCB240512226E0712226F72FA
:1034C000A3A3A312203AA00135B5122039707003CE
:1034D00001377212226DF27406122038A10135B53F
:1034E00012203879700301377212226DF2740912BA
:1034F0002038090135B5122038797003013772126E
:10350000226DF2740A122038090135B5122039F8FB
:10351000700301377212226DF2740B122039C00150
:1035200035B512203998700301377212226DF2748A
:103530000C12203938807E9000C87FE024041222CB
:103540006F8912257EA59000C87B12226F547003EC
:1035500001377212226DF2740DF07B0412203A20B2
:10356000805312203910700301377212226DF274E9
:103570000712203841803E9000C87FE024031222C9
:103580006F8912257EA59000C87B12226F547003AC
:1035900001377212226DF27408F07B0312203A2078
:1035A0008013122039F8700301377212226DF27401
:1035B0000E122039C0E0FEA3E0FF02267A47122255
:1035C0006E72FF12226E42122270D2FD12226E8C97
:1035D000122271179000F195E060030137721222F8
:1035E0006EAA12226F5B7D100137357EC87F7A127A
:1035F000203B3412226E3A12203A8F12203B4412A2
:10360000226E718E83759300240512226E07E0FFEF
:103610007E00700B9000C87A04F0A3F00136F9EF39
:1036200064014E707012226E3AA3A3E0FF12203A9A
:10363000EEA9079000C879E9F0E4A3F0A3E054F004
:103640004401FF12226F7FFD8C83759300240412C6
:10365000226E07E0FE540FC454F0FBEF540F4B12E0
:10366000227049FFA3E0543F4FFFF012226E9F12D9
:10367000226F2FFF9000C87CF0E95407FEEF54F84A
:103680004E12226E711222715112226E07E0FF1249
:103690002719F280649000C87112226FCE2405129F
:1036A000226E07E0640260030137729000C87AF06E
:1036B000A3E054F0FFF012226F77E5822404122277
:1036C0006E07E0FE540FC454F0FDEF540F4D12226C
:1036D0007049FFA3E0543F4FFFF012226F77122290
:1036E0006F2FFF9000C87CF09000C879E05407FE6F
:1036F000EF54F84E9000C87CF078A57CC87D017B23
:10370000017AC8797A122270CA02277C9512226E39
:1037100072FF12226E42122270D2FD12226E8C12A1
:10372000227117F09000F195E0704712226EAA12F4
:10373000226F5B7D1002266FE912226E3AE0FEA333
:10374000E0FFEE14702CEF24F26002802512226E4E
:103750003AA3A312000DD9E92403F9E43AFA1200BE
:103760000AB164027D0270047F018002E4FF122727
:10377000653C22F09000C871E0FCA3E0FDF5828C6E
:1037800083759300A3A3E0FE8D828C83759300A3C1
:10379000A3A3E0FCA3E0F5828C83759300EEF0EF29
:1037A0002401FFE433FE9000C87BE0FCA3E02FFF80
:1037B000EC3EFE9000C871E0FCA3E0F5828C8375BE
:1037C0009300A3A3A3E0FCA3E0FD9000C880E0FB6E
:1037D000120012109000C87FE02401FFE433FEA322
:1037E000E07C002FFFEC3EFE9000C87BE0FCA3E0F5
:1037F0002FFFEC3EFE9000C871E0FCA3E0F5828C48
:1038000083759300A3A3A3E022F0EF2401FFE43328
:10381000CF2DCF3CFE9000C871E0FCA3E02402FD58
:10382000E43CFC7B02120012109000C879E0FEA379
:10383000E0FFA3E0FCA3E0FD12252C939000C87BE1
:1038400022F0EF2401FFE433CF2DCF3CFE9000C8DF
:1038500071E0FCA3E02402FDE43CFC7B03120012B7
:10386000109000C879E0FEA3E0FFA3E0FCA3E0FD18
:1038700012252C939000C87B229000C87FE0240280
:10388000FFE433CF2401CF3400FE9000C879F0A3C9
:10389000EFF012257EA59000C87BEEF0A3EFF04E6E
:1038A00022F0EF2401FFE433CF2DCF3CFE9000C87F
:1038B00071E0FCA3E02402FDE43CFC7B0812001252
:1038C000109000C879E0FEA3E0FFA3E0FCA3E0FDB8
:1038D00012252C939000C87B22E0FEA3E0FF90000D
:1038E000C87FE0FD7C00EF2DFFEC3EFEA3E02FFF44
:1038F000EC3ECF2401CF3400FE9000C879F0A3EF56
:10390000F012257EA59000C87BEEF0A3EFF04E22CA
:103910009000C87FE02403FFE433CF2401CF3400BC
:10392000FE9000C879F0A3EFF012257EA59000C8A4
:103930007BEEF0A3EFF04E22F0EF2401FFE433CF53
:103940002DCF3CFE9000C871E0FCA3E02402FDE412
:103950003CFC7B06120012109000C879E0FEA3E048
:10396000FFA3E0FCA3E0FD12252C939000C87B226E
:103970009000C87FE02408FFE433CF2401CF340057
:10398000FE9000C879F0A3EFF012257EA59000C844
:103990007BEEF0A3EFF04E229000C87FE02406FFFC
:1039A000E433CF2401CF3400FE9000C879F0A3EFB8
:1039B000F012257EA59000C87BEEF0A3EFF04E221A
:1039C000F0EF2401FFE433CF2DCF3CFE9000C8710F
:1039D000E0FCA3E02402FDE43CFC7B021200121098
:1039E0009000C879E0FEA3E0FFA3E0FCA3E0FD1295
:1039F000252C939000C87B229000C87FE02402FF12
:103A0000E433CF2401CF3400FE9000C879F0A3EF57
:103A1000F012257EA59000C87BEEF0A3EFF04E22B9
:103A2000EF2401FFE433CF2DCF3CFE9000C871E0BE
:103A3000FCA3E02402FDE43CFC120012109000C83C
:103A400079E0FEA3E0FFA3E0FCA3E0FD12252C93A8
:103A50009000C87B22FFEC3ECF2401CF3400FE90C3
:103A600000C879F0A3EFF012257EA59000C87BEE88
:103A7000F0A3EFF04E22E0FAA3E0FB1200112F902A
:103A800000C879E0FEA3E0FFA3E0FCA3E0FD22A3D1
:103A9000A3E0FF7CC87D7312273C7B7EC87F732226
:103AA000E0FAA3E0FB1200112F9000C879E0FEA31A
:103AB000E0FFA3E0FCA3E0FD12252C939000C87B5F
:103AC000229000C8A2E0FB1227931D22E4FDFF1202
:103AD000276B9DE49000C46FF0229000C879E0FB52
:103AE0001227931D22E0FFE4FD12272DFC227CC843
:103AF0007D7312273C7B7EC87F731227150422F04A
:103B00007EC87F7B1222BDDA229000C87DE0FB12C6
:103B100000121022A3E0FF1227BD25E4FD122607A4
:103B20002F22E0FD7F041224C07C22E0FB7D0812DE
:103B300027931D227B03E4FD1200004F2212272D44
:103B40006CEF4E22122715049000C879EF229000E6
:103B5000C63DEEF0A3EFF07EC67F407B20E4FD1271
:103B600000004F12222E2B12222CF2E012000E68BF
:103B70003BD4013C5C023D0C033D4F043D92053DAE
:103B8000D9063EA3073FA50841C90943310A469516
:103B90000B3FA50C473A0D47F00E48370F4853101E
:103BA00048A01148D812493D1349581449B3154942
:103BB000CE164C8E174CB3184D82194E1C1A4E5A05
:103BC0001B3FA51C41C91D4EA11E4EC01F4ED84013
:103BD00000004F0812222CC470501227B363122227
:103BE0002D2E7003014F0812222E2B12222CF212BE
:103BF000222F9F12222CFF12222FA912222D611296
:103C0000222F8BEC12222DCA12222E7412222EBFCA
:103C100012222E8912222FB012222EB112222FB080
:103C20009000C64004F0A3EF801312222CEA122267
:103C30002D277003014F08740112222EF712222E35
:103C40002A12222CF2A3A3E0FD12222DD8CDF0A33C
:103C5000ED12222CC39000C64401483312222CEAF4
:103C600012222D277003014F08740212222EF7F042
:103C70009000C63D12222D3B240612222CCFFD12AD
:103C8000222DD8CDF0ED12222D60E582240A1222D9
:103C90002CCF9000C64412204F1C12222D8B240AD8
:103CA00012222CCF6003014F0812222E0F12222C59
:103CB000D4FEA3E0FF4E600412267A471222307829
:103CC000FFAEF012204F3912222E1412222E74ED64
:103CD00012222E1412222CD4FEA3E0FF4E600812F2
:103CE00022307812204F441222308212222EB21239
:103CF000222CD47003014F08EE12222CFF12222C2A
:103D0000D412222D99AD82FC022688A812222CEA18
:103D100012222D277003014F0812222DF112222C9E
:103D2000D412222D4A600A9000C66012222CEEE4C2
:103D3000F012222CEAA3A3E0700812222EBF122751
:103D40000BDB740512222CDB12222DD70148331213
:103D5000222CEA12222D277003014F0812222DF186
:103D600012222CD412222D4A600A9000C660122220
:103D70002CEEE4F012222CEAA3A3E0700812222E0B
:103D8000BF12270BDB740312222CDB12222DD7016A
:103D9000483312222CEA12222D277003014F0812F9
:103DA000222DF112222CD412222D4A600A9000C634
:103DB0006012222CEEE4F012222CEAA3A3E0700899
:103DC00012222EBF12270BDB9000C6407404122271
:103DD0002CDF12222DD701483312222CEA12222D79
:103DE000277003014F089000EF0EE0FFA3E0900062
:103DF000C684CFF0A3EFF0E4A3F01222305390007A
:103E0000C686E0C39B4003013E8A9000C684E0FE64
:103E1000A3E0FF12222CF2A3E01222301E2460F550
:103E200082E434C612222FA912222D61E0FFEC2574
:103E3000E025E02461F582E434C612222E40900091
:103E4000C68412222D3B240812222CCF1222301EAF
:103E50002462F582E434C612222FA912222D61E5D4
:103E600082240A12222CCFFFEC25E025E02463F502
:103E700082E434C612222E409000C68412222EE321
:103E80009000C686E004F0013DFA12222D0BA3E05B
:103E9000FD9000C68A74C6F0A37460F0E4A3F0023B
:103EA00024D7FC12222CEA12222D277003014F087E
:103EB00012222E2B12222CF212222E7F12222CD40E
:103EC0006D6003014F08741A12222D5AA312222D7D
:103ED000D612222D61E582242D12222CCF9000C60D
:103EE0004312204F1C9000C63D12222D3B242D1260
:103EF000222CCF6003014F0812222D6212222F8A3A
:103F00009000C63FE0FD12222ED312222E74ED1235
:103F1000222EC712222FB0ED12222E0312222CD4F1
:103F2000FEA3E0FF4E600412267A479000C63FE0F1
:103F300012222ED312222CD4FEA3E07802C333CE59
:103F400033CED8F9FF12204F3912222E0312222E1F
:103F500074ED12222E0312222CD4FEA3E04E700325
:103F6000014F08ED12222E0312222CD4FEA3E0FFF3
:103F7000ED12222ED3F583759300A3E025E025E012
:103F8000FB9000C63EE02405FD9000C63DE03400F5
:103F9000FC1200121012222EBF12222E03F583757E
:103FA00093000143027EC67F607B13E4FD12000094
:103FB0004F12222CEA12222D277003014F08E0FF36
:103FC00012222E49F5837593007401F0A37403F057
:103FD00012222DAB12222E56E0640C70187593003D
:103FE000A3A3A3E0FD122773949000C67312222DA1
:103FF000537018800012222CEAA3A3A3E0FF12271B
:1040000077249000C673EEF0A3EFF09000C673E043
:104010007002A3E0706112222DAB12222E55E064D3
:1040200008701212222D18A3E09000C68B122230C5
:104030002A0225F49812222DAB12222E55E0641C80
:10404000701212222D18A3E09000C68B1222302A83
:104050000225E62512222DAB12222E55E0640C60BB
:1040600003014F0812222D18A3E0FD9000C68B1209
:1040700022302B0225E6D79000C6607401F0122290
:104080002FDEA3E0FF12222CF2A3A3E09000C6666D
:1040900012222D61A3A3A3E0FFA3E09000C667CF87
:1040A000F0A3EFF09000C67312222D3D24051222DA
:1040B0002CCF9000C672F09000C66C740112222DB5
:1040C00061E582240812222CCF9000C66DF090008A
:1040D000C67312222D91240912222CCFFF9000C604
:1040E0006EF07E007006A37404F08022EF64024E2E
:1040F00070099000C66F7406F080139000C67312AA
:10410000222D8F240B12222CCF9000C66FF090002E
:10411000C66FE0FF7E0012257EA59000C6701222B9
:104120002D537003014F089000C670E0FEA3E0FF1E
:104130009000C66FE012204F449000C67312222EEA
:10414000A6240912222CCFFFED240BFDE43CFC90A9
:1041500000C670E0FAA3E0FB1224D59212222DAB28
:1041600012222E55E06408701312222D1812222FED
:10417000FE9000C68BF01225F498804612222DABDB
:1041800012222E55E0641C70289000C67312222D56
:104190008F240512222CCF9000C672F08D8212223D
:1041A0002D1612222FFE9000C68BF01225E62580D8
:1041B0001112222D0B12222FFE9000C68BF0122519
:1041C000E6D79000C670014D7A12222CEA12222DF9
:1041D000277003014F0812222CEAA3A3E0FF9000EE
:1041E000C63FE012222E8912222CD46F6003014FA9
:1041F000089000C640740612222EBE9000C641F000
:1042000012222E0312222CD4FCA3E0FD12222EC671
:1042100012222CD475F004A4FFED2FFFEC35F090A2
:1042200000C660F0FCA3EFF0FD7EC67F427B041267
:104230000012109000C63D12222D3B240912222CA0
:10424000CF60079000C6467401F012222D62E5820D
:10425000241512222CCF60079000C6497401F090FB
:1042600000C63D12222D3B240F12222CCF601112CA
:10427000222D62E582241112222CCF9000C64DF02F
:1042800012222DAB12222EAA241112222CCF12227E
:104290002DE2241212222CCF12222D8A2413122254
:1042A0002CCFFAA3E0FB74C612222F49744FF012F0
:1042B00024D45B12204F3012222D8B241612222C74
:1042C000CF6003014F0812222EBF12222EC71222E6
:1042D0002CD404F012222EC612222CD4FD12222E2F
:1042E000BF12222ED312222CD4FAA3E06D7001EA61
:1042F000601E9000C660E475F00412000B09900087
:10430000C660E0FCA3E012222E56E0FD0226DA870A
:1043100012222DFE12222CD4FEA3E0FF4E700301C8
:104320004F0812267A4712222DFE12222FB0A3F038
:104330002212222CEA12222D277003014F0812228A
:104340002CEA12222D46701A12222CFA12222CD498
:1043500012222DAAF58212222D2012222F50741221
:1043600080259000C66012222CEEE06401701E12BF
:10437000222CFA12222CD412222DAAF58212222DDE
:104380002012222F507413F0E4FB01451A12222D43
:10439000AB12222EAA241112222CCF640160030139
:1043A00044D412222DE3241312222CCFFFC0071273
:1043B000222DE3241412222CCF12222D8A2415122E
:1043C000222CCF12222F417462F0D0071224D45B2A
:1043D00012222D37240912222CCF600301447512BA
:1043E000222D62E582240B12222CCF12222F29606B
:1043F0006612222D37240C12222CCF122230896013
:104400005612222D62E582240D12222CCF12223068
:1044100093604412222D37240E12222CCF12223008
:104420009D603412222D62E582240F12222CCF12BD
:104430002230A7602212222D37241012222CCF12F4
:1044400022303D501212222D62E582241112222CBC
:10445000CF12223048507D12222CFA12222CD41274
:10446000222DAAF58212222D2012222F507429F01B
:104470007B0701451A12222D37240912222CCF6402
:1044800002705112222D62E582240B12222CCF12CF
:10449000222F29602212222D37240C12222CCF1217
:1044A000222F58601212222D62E582240E12222C35
:1044B000CF122230B1701D12222CFA12222CD412EB
:1044C000222DAAF58212222D2012222F507429F0BB
:1044D0007B0780469000C63D12222D3B240B122202
:1044E0002CCF640170389000C6440412222D61E57F
:1044F00082240C12222CCFFEA3E064024E601F1215
:10450000222CFA12222CD412222DAAF58212222D4C
:104510002012222F507429F07B040227B315122297
:104520002CFA12222CD412222DAAF58212222D202E
:10453000A3E0FDE49000C68AF0FB1227B3159000BB
:10454000C660E0FEA3E0FF12222CF27401F01222FA
:104550002DAB12222EAA241712222CCF64017065D3
:104560009000C6470412222D61E582240A12222CF3
:10457000CF640170509000C63F12222E4812222CA8
:10458000D4FEA3E0FF64037003EE64017037EF64B0
:10459000037003EE6401702D1222308212222CFF70
:1045A00012222CD412222D9912222F938D828C83C9
:1045B00012222CC8FD12222FB812222CCFFAA3E00F
:1045C000FB122677579000C640740712222EF8F08F
:1045D0009000C63D12222D3B12222CCD9000C642E7
:1045E00012222D61A3A3A3E09000C643F09000C661
:1045F0003D12222D91241212222CCF9000C64A1275
:10460000222D61E582241312222CCF9000C64BF09C
:104610007EC67F4D12204F0912222E0F12222CD45B
:10462000FEA3E0FF4E604E12222FC812222FD8C3E5
:104630009F502012222DABF58212222D2012223003
:10464000077001EA600D12222EDF9000C673E004AD
:10465000F080D89000C673E06F601A12222CEA1224
:10466000222E9512222D2012222FE57CC67D447B1E
:104670001A1200121012222E2B12222CF2A3122236
:104680002F9E12222DF212222FA912222CC3FFECF0
:1046900012222E352212222CEA12222D277003011B
:1046A0004F08A3740812222EBE9000C641F01222B9
:1046B0002DAB8C8375930012222CCD9000C642F056
:1046C0006003014F00EF12222DF212222CD412228D
:1046D0002FEF12222CF27401F0759300E582240A68
:1046E00012222CCF64016003014F0012223082128B
:1046F000222E4912222CD4FCA3E064037003EC6444
:10470000016003014F009000C63FE0FD12222CFF24
:1047100012222CD4FFED12222EEB12222CD4FD12E9
:10472000222D9A12222F9312222FB812222CCFFA66
:10473000A3E0FB12267757014F0012222CEA122227
:104740002D277003014F0812222E2B12222CF21259
:10475000222E7F12222CD46D6003014F087409129F
:10476000222D5AE582241612222CCF9000C65D120B
:10477000222D61E582240912222CCF60079000C609
:10478000437401F09000C63D12222D3B24151222E5
:104790002CCF60079000C6467401F012222D62E50E
:1047A00082240F12222CCF600F12222D8B24111283
:1047B000222CCF9000C64AF012222DAB12222EAA34
:1047C000241112222CCF12222DE2241212222CCFDD
:1047D00012222D8A241312222CCFFAA3E0FB900080
:1047E000C68B74C6F0A3744CF01224D45B014F0046
:1047F00012222CEA12222D277003014F0812222CBC
:10480000EA12222D469000C63D700D12222D0FA3F4
:10481000E0FD7B120227B4C112222D0FA3E0FDE4BC
:10482000FB1227B4C19000C640740C12222CDF1278
:10483000222DD6F0014F0012222CEA12222D2770D1
:1048400003014F08A3740D12222CDF12222DD6F083
:10485000014F0012222CEA12222D277003014F086B
:1048600012222CEA12222D46700D12222D0BA3E0EB
:10487000FD7B120227B6749000C66012222CEEE473
:10488000F012222D0BA3E0FDE4FB1227B67490007A
:10489000C640741012222CDF12222DD6F0014F00D8
:1048A00012222CEA12222D277003014F08A3741143
:1048B00012222CDF12222DD612204F2612222CEA91
:1048C000A3A3A3E06003014F0812222DED12222CB6
:1048D000D412222FEF014E9A12222CEA12222D27F7
:1048E0007003014F0812222CEA12222D46701D126D
:1048F000222CFA12222CD412222E5E12222D82A3F6
:10490000A3A3E0FB9000C68A7412802C9000C640DE
:10491000740E12222CDF12222DD612204F261222C4
:104920002CFA12222CD412222E5E12222D82A3A344
:10493000A3E0FBE49000C68AF00227AB4012222CD1
:10494000EA12222D277003014F08740F12222C9FA8
:104950009000C643F0014F0012222CEA12222D27AC
:104960007003014F0812222CEA12222D46702012E9
:10497000222CFA12222CD412222E5E12222D82A375
:10498000A3A3E0FB9000C68A7412F00227AB5E126C
:10499000222D0BA3E0FDE49000C68AF0FB1227ABAA
:1049A0005E9000C640741212222CDF12222DD6F027
:1049B000014F0012222CEA12222D277003014F080A
:1049C000741312222C9F9000C643F0014F00122254
:1049D0002CEA12222D277003014F0812222CEA1212
:1049E000222D46701A12222CFA12222CD412222DB9
:1049F000AAF58212222D2012222F6C74128023908D
:104A000000C66012222CEEE0701E12222CFA122236
:104A10002CD412222DAAF58212222D2012222F6CC4
:104A20007414F0E4FB014BB512222DAB12222EAA16
:104A3000241012222CCF64016003014B6F12222D2F
:104A4000E3241212222CCFFFC00712222DE32413DD
:104A500012222CCF12222D8A241412222CCF1222A1
:104A60002F417462F0D0071224D45B12222D372418
:104A70000912222CCF6003014B1012222D62E58215
:104A8000240B12222CCF12222F29606612222D37DE
:104A9000240C12222CCF12223089605612222D6251
:104AA000E582240D12222CCF122230936044122270
:104AB0002D37240E12222CCF1222309D6034122268
:104AC0002D62E582240F12222CCF122230A7602201
:104AD00012222D37241012222CCF1222303D5012D8
:104AE00012222D62E582241112222CCF122230488C
:104AF000507D12222CFA12222CD412222DAAF582D9
:104B000012222D2012222F6C7429F07B07014BB545
:104B100012222D37240912222CCF64027051122246
:104B20002D62E582240B12222CCF12222F29602223
:104B300012222D37240C12222CCF12222F58601251
:104B400012222D62E582240E12222CCF122230B1C5
:104B5000701D12222CFA12222CD412222DAAF582B8
:104B600012222D2012222F6C7429F07B0780469090
:104B700000C63D12222D3B240A12222CCF64017064
:104B8000389000C6430412222D61E582240B1222C4
:104B90002CCFFEA3E064024E601F12222CFA1222D8
:104BA0002CD412222DAAF58212222D2012222F6C33
:104BB0007429F07B040227BB5E12222D8B2416126F
:104BC000222CCF640170069000C64604F012222CFD
:104BD000FA12222CD412222DAAF58212222D20A301
:104BE000E0FDE49000C68AF0FB1227BB5E9000C691
:104BF00040740A12222E2012222CF212222DD612DA
:104C0000222D61E582241112222CCF9000C649F09A
:104C10009000C63D12222D91241212222CCF90001A
:104C2000C64AF07EC67F4C12204F0912222E0F1268
:104C3000222CD4FEA3E0FF4E7003014F0812222F56
:104C4000C812222FD8C39F502012222DABF58212FA
:104C5000222D20122230077001EA600D12222EDF71
:104C60009000C673E004F080D89000C673E06F70C7
:104C700003014F0812222CEA12222E9512222D2017
:104C800012222FE57CC67D437B1A020012101222ED
:104C90002CEA12222D277003014F08A3740B122255
:104CA0002EF8F012222D8B12222CCD9000C642F04D
:104CB000014F0012222CEA12222D277003014F0807
:104CC00012222CEA12222D46703C12222CFA1222B9
:104CD0002CD4FFC00712222E2B12222CF2A3A3E009
:104CE000FD12222CC4FAA3E0FB9000C63DA3E024F1
:104CF00006FFE43E9000C839F0A3EFF0A37412F071
:104D0000D0070225489F12222E2B12222CF21222AB
:104D10002F9E12222F3512222FA9F09000C6407428
:104D20001612222D5E12222DD6F012222D8B122267
:104D30002CCDFEA3E0FF9000C643EEF0A3EFF012EF
:104D4000257EA59000C64512222D537003014F0801
:104D50007EC67F45122230BB2406FDE43AFC1222B7
:104D60002D8212223064F583759300A3E0FB1200BC
:104D7000121012204F309000C645E0FEA3E0FF0164
:104D80004E1812222CEA12222D277003014F08A37D
:104D9000741712222E2012222CF2A3A3A3E0FCA34C
:104DA000E0FD9000C642ECF0A3ED12222D61E582F9
:104DB000241512222CCF9000C646F0E49000C64481
:104DC000F0A3F0D3ED9400EC940040399000C63D80
:104DD00012222CF012222F8A12257EA59000C644A2
:104DE00012222D537003014F087EC67F44122230D9
:104DF000BB2405FDE43AFC12222D82A3A3A3A3E069
:104E0000FB1200121012204F4C9000C644E0FEA38B
:104E1000E0FF4E7003014F0802267A4712222CEA67
:104E200012222D277003014F0812222CEA12222D84
:104E300046600A9000C66012222CEEE4F012222D89
:104E40000BA3E0FD1227B68C9000C640741412220A
:104E50002CDF12222DD6F0014F0012222CEA122252
:104E60002D277003014F08A3741512222CDF122284
:104E70002DD6F012204F4C12222CEAA3A3A3E060FF
:104E800003014F0812222DED12222CD412222D4A9A
:104E900060769000C660E0FEA3E012222CF2E4F0FF
:104EA0002212222CEA12222D27605DA374181222EE
:104EB0002CA0FFA3E09000C643CFF0A3EFF080400A
:104EC00012222CEA12222D27603EA3741912222CE2
:104ED000DF12222DD6F0802812222CEA12222D2752
:104EE0006026E0FF12222EEB12222CD4FD12279F07
:104EF000A99000C640744012222CDF12222DD7F058
:104F00007EC67F4012279F09227CC67D627B1112DC
:104F10000012107EC67F4012279F0922F07EC67FB6
:104F20004012279F0922F07EC67F4012279F092248
:104F30007EC67F4012279F092212257EA59000C6BB
:104F40003FE0FD22FBE4FD1200004F227EC67F40C1
:104F500012279F09229000C7F91220BD2A7EC77F21
:104F6000FE7B11FD1200004F1220BFF51220BB2A5C
:104F7000E012000E684FC70150940251740352B101
:104F80000452B10553D60655BE07565D0856E109D1
:104F9000571C0A57BD0B58120C58470D58C60E59CE
:104FA000450F5A24105A9E1159BA1259E7135B271C
:104FB000145B86155C01165DCA175C33185C4E19CC
:104FC0005C6A1A00005DAB8F821220B9341220BDDA
:104FD000D5122767BE9000C7FDEFF0640470028011
:104FE000189000C7FDE01220B9411220BAC0240C6D
:104FF0001220B91DE0640370109000C7F91220B9A7
:105000002EE0FF7D01022752221220BFF51220B9A7
:1050100032E0FD9000C7FB1220BC4724281220B9C3
:105020001DEDF08F821220B934E0FFE4FD1227520B
:10503000229000C7F91220B96824041220B91DE09B
:105040006003015DCA9000C7FB1220B990242312AF
:1050500020B91DE030E203015DCA1220B9751220AB
:10506000B91BE030E203015DCA9000C7FB1220B912
:105070006A24221220B91DE054FB1220B9742423A3
:105080001220B91D1220BE7A9000C85D7401F07B19
:105090000201516E9000C7F91220B92E12205DCB8B
:1050A0007003015DCAE01220B9411220BAC0240C7D
:1050B0001220B91DE06403700E9000C7F91220B9E8
:1050C0002EE0FF02278E429000C7F91220B9682413
:1050D000041220B91DE0FFF460259000C7FB1220E8
:1050E000BA2124291220BB9DC083C0821220C0ECAB
:1050F0008002C333D8FC4E759300D082D083F090E9
:1051000000C7F91220B96824041220B91DE0600319
:10511000015DCA9000C7FB1220B99024251220B966
:105120001DE054FB1220B97424231220B91DE05451
:10513000FBF09000C7FB1220B99024221220B91D69
:10514000E054FB1220B9741220B91B1220BE7A7DE4
:1051500003122623E31220BE7E7B027D1012205E06
:10516000757B037D1112205E751220BF7AFBE4FD72
:10517000022794FD9000C7F91220B92E12205DCBB2
:105180007003015DCA1220B93FAD82AC839000C7A5
:10519000FBECF0A3EDF09000C7F91220B9A5A3A392
:1051A000E0702612205E931220B916E054FB122004
:1051B000B97424231220B91DE054FB1220B96324D2
:1051C000221220B91DE054FBF09000C7F91220B95B
:1051D0002EA3E06004640170371220B964242C12FD
:1051E00020B91DE0FFF4600D1220BA1D2F1220B966
:1051F0001DE0547FF09000C7FB1220B990242C12C0
:1052000020B91D1220B972242D1220B91D74FFF08F
:105210009000C7FEE4F0A304F09000C7FDE090000A
:10522000C800F09000C8027402F09000C7F9122084
:10523000B92EA3E0FFF460269000C7FB1220BA212C
:1052400024291220BB9DC083C0821220C0EC8002A2
:10525000C333D8FCF45E759300D082D083F0900005
:10526000C7F91220B92EA3E070339000C7FB1220BB
:10527000B99024291220B91DE41220B974242512F2
:1052800020B91DE054FBF0E49000C803F07EC77F16
:10529000FE1226B5EB1220BE7E122721C99000C750
:1052A000F91220B92E1220C2356003015DCA0153E4
:1052B000CA1220BFF51220BB2AE0640470028008E5
:1052C0009000C7F91220BDEC759300A31220C3F61D
:1052D0008F821220B934A3E09000C810F09000C86B
:1052E0000F12205DDC7003015DCAE01220B941128B
:1052F00020BDC79000C810E0FFF460269000C7FBF7
:105300001220BA2124291220BB9DC083C082122002
:10531000C0EC8002C333D8FCF45E759300D082D019
:1053200083F09000C810E060030153BD1220BE7EE0
:1053300012205E931220B916E054FB1220B9742497
:10534000231220B91DE054FBF09000C7FB1220B9D6
:105350009024251220B91DE054FB1220B974242298
:105360001220B91DE054FB1220B963242C1220B97D
:105370001DE0FFF4600D1220BA1D2F1220B91DE0B0
:10538000547FF09000C7FB1220B990242C1220B952
:105390001D1220B972242D1220B91D1220B97224B9
:1053A000291220B91DE41220BE7D1220BFAA7B0263
:1053B000FD122794FD1220BE7E122721C99000C83D
:1053C0000F1220C2356003015DCAFD1226359D9083
:1053D00000DF6D0156DD9000C7FAE02401FF900068
:1053E000C7F9E03400FE9000C80FF0A3EFF01220E0
:1053F000BB2A12205DDC7003015DCAE49000C82D59
:10540000F0A3F09000C7FDE01220B9411220BAC00D
:10541000242A1220B91DE0FEA3E0FF9000C82D123F
:1054200020BC2C7003015DCA9000C82D1220BB2641
:10543000E0FD759300A3E0FFC39D505E1220C3FD05
:10544000EF1220C2D31220B9FAE58224041220B947
:105450001D1220C1C72405FD9000C80FE03400FCD8
:105460007B1A120012101220C3FD1220B9A9A3E06A
:1054700075F004A4FFAEF01220B9FAA3A31220C164
:10548000C79000C80F1220C0087B041200121090B1
:1054900000C82D1220B92EE004F09000C82D122073
:1054A000BB26E0FD759300A3E06D6003015DCA902B
:1054B00000C82DA3E0FF7CC87D137AC87B111221A0
:1054C00019109000C812EFF0F47003015585900098
:1054D000C82D1220B92EA31220BC05C083C0821291
:1054E00020C31FD082D0831220BEFCFD1220B964DD
:1054F00024281220B91DE0FF9000C812E004FB90A0
:1055000000C83274C8F0A37413F01223F2F49000B0
:10551000C8121220BA2C242C1220B91DEFF09000D2
:10552000C82D1220BB7AA3A3E0FAA3E0F5828A83F8
:10553000C083C0821220C31FD082D0831220BEFC41
:10554000FE1220B9FAE582242D1220B91DEEF0904A
:1055500000DF601220BA322F1220B91DE04480F023
:105560009000C812E0FF1220B9FAE5822F1220B98C
:105570001DE0547F6404700D1220BE7EE4FBFA7DB2
:10558000C21225DA2E9000C82D1220B96824041208
:1055900020B91D12205EBC9000C82D1220B92E1219
:1055A00020BDD512267A479000C82D12205EBC126D
:1055B00020B964242A1220B91DE4F0A3F02290003F
:1055C000C7F91220B92E12205DED7003015DCAE00B
:1055D0001220B9411220BDC79000C7FB1220B9901C
:1055E000242E1220B91DE4F01220C16E1220B9A998
:1055F000A3A3A3E0C39401FB1220B975242C1220AD
:10560000B91DEB1220B9F9A31220BA2B242D1220B8
:10561000B91DEF1220B9F9E582242C1220B91DE042
:10562000FF9000DF601220BA322F1220B91DE04433
:10563000801220B963242C1220B91D1220C3F6E079
:10564000FF1220B9FAE5822F1220B91D1220C3578C
:105650006003015DCA1220BE7EE40157B59000C709
:10566000F91220B92E12205DED7003015DCAE0121F
:1056700020B9411220BAC0242E1220B91DE4F090A6
:1056800000C7F91220B92EA3E0701E1220BA2E24F2
:10569000281220B91DE0FF1220B9FAE582242D124C
:1056A00020B91DE0FD02279F491220B964242C1265
:1056B00020B91DE0FFF4600D1220BA1D2F1220B991
:1056C0001DE0547FF09000C7FB1220B990242C12EB
:1056D00020B91D1220B972242D1220B91D74FFF0BB
:1056E000229000C7F91220B92E12205DFE7003012E
:1056F0005DCA9000C7F91220B968241D1220B91D97
:10570000E06003015DCA9000C7FDE01220B94112BC
:1057100020BAC0242E1220B91DE4F0229000C7F94F
:105720001220B92E12205DFE7003015DCA1220B94D
:1057300064242E1220B91DE064016003015DCA904B
:1057400000C7FDE0F91220B9411220BDC71220BAEE
:105750002E242E1220B91D7401F09000C7F91220DA
:10576000BB7AA3A3E0C39401FB1220B9FAE582241B
:105770002C1220B91DEB1220B974242C1220B91D53
:10578000E09000DF601220BF432D1220B91DE044DD
:10579000801220B974242C1220B91D1220C3F6E007
:1057A000FF1220BA402F1220B91D1220C3576003E8
:1057B000015DCAAF01FBFA7DC20225DA2E9000C757
:1057C000F91220B92E12205E0F7003015DCA9000FD
:1057D000C7F91220B92EA3E06003015DCA9000C78B
:1057E000FDE01220B9411220BAC0242E1220B91DAA
:1057F00074011220B97424281220B91DE0FF900012
:10580000C7FB1220BA21242D1220B91DE0FD02276A
:105810009F699000C7F91220B92E12205E0F700305
:10582000015DCA1220B93F1220BB86242E1220B976
:105830001D7401F09000C7FE7420F0A374011220C3
:10584000B9F6E582015BF29000C7F91220B92E1279
:10585000205E207003015DCA9000C7F91220B92EA6
:10586000A3E06003015DCA9000C7FDE01220B941CA
:105870001220BAC0242E1220B91D74011220B9744E
:1058800024291220B91DE054029000C7FB701212A7
:1058900020B96824281220B91DE0FF1227AC8280AD
:1058A0001E1220BA3224281220B91DE0FF1220B99E
:1058B000FAE582242D1220B91DE0FD12279F6912FE
:1058C00020B94F015BF29000C7F91220B92E1220C7
:1058D0005E207003015DCAE49000C80FF0A3F012CF
:1058E00020B93B1220BB86242E1220B91D7402F071
:1058F0001225F8A87E009000C80FEEF0A3EFF06428
:10590000017003015DCA1220C0F9F460179000C74E
:10591000F91220B9A5A3E0FEEF6E60089000DF6DDC
:1059200012205EA39000C7F91220B92E12205EB19A
:10593000700C9000C7F91220B92E1220C2891220D3
:10594000B94F015BF29000C7F91220B92E12205E08
:10595000317003015DCA1220BFF51220B932A3A332
:10596000E06003015DCA9000C7FDE01220B941125A
:1059700020BB86242E1220B91D7402F09000DF6D2A
:10598000E0FDF460148F821220B934E0FFED6F6007
:10599000081220C0F912205EA39000C7F91220B9A6
:1059A0002E12205EB1700C9000C7F91220B92E1291
:1059B00020C2891220B94F015BF29000C7F9122072
:1059C000B92E12205E317003015DCA1220B93F1258
:1059D00020BB86242E1220B91D7401F0122796EEEA
:1059E0001220B94F015BF29000C7F91220B92E12B4
:1059F000205E427003015DCA9000C7F91220B92EE3
:105A0000A3A3E06003015DCA1220B93B1220BB864C
:105A1000242E1220B91D7401F0122796EE1220B91F
:105A20004F015BF29000C7F91220B92E12205E429E
:105A30007003015DCA1220B93F1220BB86242E12CA
:105A400020B91D12205EAA1220B964242C1220B99C
:105A50001DE0FFF4600D1220BA1D2F1220B91DE0C9
:105A6000547FF09000C7FB1220B990242C1220B96B
:105A70001D1220B972242D1220B91D74FFF0900060
:105A8000C7F91220B92E1220C0F7B5060AE4FD129C
:105A900026359D1220C01F1220B94F015BF29000E5
:105AA000C7F91220B92E12205E537003015DCA900F
:105AB00000C7F91220B92EA3E06003015DCA1220CD
:105AC000B93B1220BB86242E1220B91D12205EAADB
:105AD0001220B964242C1220B91DE0FFF4600D12CD
