:020000040020DA
:1000000002200E849000F5DE12000D747810EC4D85
:100010004E4F70047CA57DA5C3EC13FCED13FDEEE3
:1000200013FEEF13FF5010EC64CCFCED644CFDEEBE
:10003000644EFEEF64CEFFD8DF9000F5DE12000DB7
:10004000B5EE547FFE229000F5DEEEF0EFA3F0A3B4
:1000500074A5F0A3F0223030303000000000000022
:10006000000000000000000000000000000007FF8A
:10007000022747540000000002278BFA02278B5A00
:100080000223502102266572222A2B22022233CC1F
:1000900002215D27022437E4C0E0F5E0C0E09000D3
:1000A000F63EE06401700975E00215E070FC802402
:1000B0009000F63EE06402700975E01415E070FCF3
:1000C00080129000F63EE06403700975E03015E0A0
:1000D00070FC8000D0E0E5E0D0E0220000000000ED
:1000E000000000000000000000000022022469134C
:1000F00000000000220000000000000000000000DE
:1001000000000000000000000000000000000000EF
:1001100000000000000000000000000000000000DF
:1001200000000000000000000000000000000000CF
:10013000000000000000000000000006FF0227058C
:100140000103222202278E6AE09028FE00F10309B3
:100150000000F3010AF40401000004F203090001A5
:10016000F3023506F40619110E19110FF2030900F6
:1001700004F3023510F41035061901000900173593
:1001800006190017090104F203090006F3023509F4
:10019000F40909656E09006A090100F20309000902
:1001A000F3023508F408350619110E090106F203A9
:1001B000090100F3022508F4084156524350204338
:1001C00054F203090102F3022504F4044D4348509C
:1001D000F203090311F30109F4020001FFE08D2885
:1001E000FE90F103090000F3010AF4040100000588
:1001F000F203090001F3023503F40319110CF203B1
:10020000090004F3023510F4103506190100090045
:10021000173506190017090104F203090006F30255
:100220003509F40909656E09006A090100F203093C
:100230000009F3023508F408350619110E09010604
:10024000F203090100F3022508F408415652435015
:10025000205447F203090102F3022504F4044D433C
:100260004850F203090311F30109F4020002FF50A0
:10027000DD3055E405D2AF9FA98FE54A7DFE43539B
:10028000534942DBEA001053DC9B18A20016962467
:1002900047C62361BAD94B4D1E4353534942DD2C07
:1002A000001350DBBB16962447C62361BAD94B4DC9
:1002B0001E4353534941DD2F0042DBB9000142DCAC
:1002C000AE000042DD40000253DC1F0CA500B39BD2
:1002D0007234BEECD4A8F44341884353534942DD01
:1002E0002A001350DBA9B39B7234BEECD4A8F443AC
:1002F00041884353534941DD2E0042DBA70001539F
:10030000DBD71CA7007E3B07FF1C51492FB3398A5E
:100310004C4353534942DBFB001350DCBA7E3B078E
:10032000FF1C51492FB3398A4C4353534941DBFDDC
:100330000042DCB8000142DBF6000042DBFE0002B6
:10034000605ADC41F0DEDD30DBEA00100001F0BE77
:10035000DC9BDD2C00130001DBBBDD2FDBB900F7DC
:100360000D10F0BCDCAEDD4000022111F0BEDC1F40
:10037000DD2A00130001DBA9DD2EDBA700F70D103D
:10038000F0BEDBD7DBFB00130001DCBADBFDDCB821
:1003900000F70D10F0BCDBF6DBFE0002211148DC9B
:1003A000B00000DC4100A000A841EE6C0044EE6605
:1003B0000000000047EE7020434C43433A2041EEDA
:1003C000778241EE6D006042EE78FF00FF0102028D
:1003D00003030404050506060707080809090A0AB5
:1003E0000B0B0C0C0D0D0E0E260F290F10101711F4
:1003F0001A121D1323142415FF16FF17FF18FF19D7
:10040000FF1AFF1BFF1CFF1DFF1EFF1F6020C4A55E
:10041000009300010096000100A3000100A8000164
:1004200000C5000100F3000100F7000100FA00011F
:1004300041EDBF0041EDE60042F3F900F041F3F772
:100440000041F3F60041F3F30041F3F20041F3F110
:100450000042F15A000043F20300000043F295000D
:10046000000043F29800000041F3620141D12500F1
:1004700041D1280141D25D0041D25E0041D25900F4
:1004800041D1193341CBF80042CBFE000042DE8E51
:100490000A1842DEA2000245DEB302D200292A4237
:1004A000DED7000542DFC4292A44DEE34D4348502D
:1004B00042DFC2000445DEC102D400242A42DEED40
:1004C000000542DE92242A44DEEF424D383342DEFC
:1004D00090000445DEAE02D600252A42DED5000596
:1004E00042DFC0252A44DEDF3030303042DFBE003C
:1004F0000445DEA902D800272A42DEC8000542DFF3
:10050000B4272A46DED94254424D383342DFB20086
:100510000645DEA402DA00262A42DEC6000542DFD6
:10052000B0262A46DECF31303030303342DFAE00E5
:100530000645DEBC02DC00282A42DEE7000542DE7A
:100540008C282A44DEE93030303042DE8A0004450F
:10055000DECA02DE00232A42DFAC000542DEA02311
:100560002A48DFB6000000000000000042DE9E00C6
:100570000845DFA502E0002A2A42DE94000542DE9B
:10058000BA2A2A48DE96000000000100000042DE80
:10059000B8000860AADEF3F0DEDE8EDEA200020004
:1005A00001F0BEDEB3DED700050001DFC4DEE3DF0D
:1005B000C200F70A01F0BEDEC1DEED00050001DE7B
:1005C00092DEEFDE9000F70A01F0BEDEAEDED5006F
:1005D000050001DFC0DEDFDFBE00F70A01F0BEDE8E
:1005E000A9DEC800050001DFB4DED9DFB2000600D5
:1005F00001F0BEDEA4DEC600050001DFB0DECFDF05
:10060000AE00060001F0BEDEBCDEE700050001DE44
:100610008CDEE9DE8A00F70A01F0BEDECADFAC003C
:10062000050001DEA0DFB6DE9E00080001F0BEDF9F
:10063000A5DE9400050001DEBADE96DEB8000800F3
:100640000148DF9D0000DEF300D000E050E2A7C2C9
:10065000EA3379AFA9CD83244CE087435353494211
:10066000E2F9001053E2CF9AF20045106CF2B7168F
:10067000219670445CB74353534942E36B001350D7
:10068000E26645106CF2B716219670445CB743538E
:10069000534941E3800042E369025842E2F5000019
:1006A00042E381000244E2A30100002942E2F70094
:1006B0000453E36D18F6003F6A776644F021B5777E
:1006C00049B64B4353534942E264001350E2923F10
:1006D0006A776644F021B57749B64B435353494195
:1006E000E2890042E262000142E383000042E28AC2
:1006F000000253E2761AF900786D43F61088DE9412
:10070000A345D12D4353534942E290001350E2E5F3
:10071000786D43F61088DE94A345D12D4353534999
:1007200041E2A20042E28E000142E28C000042E27D
:10073000B70002606EE2FBF0DEE2A7E2F900100013
:1007400001F0BEE2CFE36B00130001E266E380E359
:100750006900F71F11F0BCE2F5E38100022111F0FE
:10076000DCE2A3E2F700040011F0BEE36DE26400F6
:10077000130001E292E289E26200F70D10F0BCE39F
:1007800083E28A00022110F0BEE276E290001300BC
:1007900001E2E5E2A2E28E00F70D10F0BCE28CE28D
:1007A000B70002211148E25A0000E2FB00F000FA13
:1007B00050E848E4A581502997F0FC1A44D5044339
:1007C00053534942E87B001053E8CB02C20032A2E7
:1007D0003EF5B468DFDB483927984353534942E874
:1007E00045001350E86B32A23EF5B468DFDB4839B0
:1007F00027984353534941E8470042E869000153B1
:10080000E8DE18C400EDFDAD23D3EEDAE5276CE396
:10081000954353534942E858001350E87FEDFDAD2E
:1008200023D3EEDAE5276CE3954353534941E85A65
:100830000042E87D000142E8F9000042E85B000266
:10084000603CE88FF0DEE848E87B00100001F0BE75
:10085000E8CBE84500130001E86BE847E86900F7DA
:100860000E01F0BEE8DEE85800130001E87FE85A08
:10087000E87D00F70D10F0BCE8F9E85B00022111FB
:1008800048E8F10000E88F00C000C541F63E004294
:10089000E81A2CFE42E831000245E7831892003442
:1008A0001242E808000542E81E341241E8120042F4
:1008B000E81C000142E78B000042E817000245E80F
:1008C00020189500351242E842000542E78F3512A4
:1008D00041E8440042E78D000142E82D000042E774
:1008E00081000245E833089800361242E788000587
:1008F00042E815361241E78A0042E8130001605AC7
:10090000E7ABF0DEE81AE83100020001F0BEE78351
:10091000E80800050001E81EE812E81C00F70910CD
:10092000F0BCE78BE81700022011F0BEE820E84297
:1009300000050001E78FE844E78D00F70910F0BCDF
:10094000E82DE78100022011F0BEE833E7880005BA
:100950000001E815E78AE81300F7091048E80A00E3
:1009600000E7AB0090009841DAE1006030DAE4A8DB
:10097000A7EAA8A7A0A8A7DAA8A78CA8A7C7A8A78E
:1009800075A8A7B1A8A75BA8A74EA8A704A8A73ECB
:10099000A8A6F0A8A72BA8A6D9A8A715A8A6BF41C6
:1009A000D9E30041D9E40041D9E50041D9E601414C
:1009B000D9E70041EEBA0044EEBB0000000042F06F
:1009C000D2001842F0CE011842F0DE002842F0E0DA
:1009D000012842F0CA022842F0BE032842F0DC009F
:1009E0002942F0C8012942F0BC022942F0C2032981
:1009F00042F0C0042942F0BA052942F0D6002A424A
:100A0000F0C4012A42F0CC042A42F0D4052A42F074
:100A1000C6A62A42F0E2C92A42F0D0292B42F0DAD7
:100A20002A2B42F0D83A2B50F2410000000000007F
:100A30000000000000000000008742E49900024529
:100A4000E3970A0300002A42E44700056020E451CE
:100A50004254353531315F53444B000000000000F3
:100A60000000000000000000000000000000000086
:100A700042E48A000A45E47B020500012A42E4952B
:100A8000000542E497000042E395000245E3CA02F4
:100A90000700042A42E471000548E4730800000AD4
:100AA00002010D0042E493000845E485020900A616
:100AB0002A42E4A0000541E3850042E3A00001458D
:100AC000E480020B00C92A42E49D000541E49F0036
:100AD00042E39E0001606EE3CFF0DEF0D2E49900C5
:100AE000020001F0BEE397E44700050001F0D6E400
:100AF00051E48A00201B11F0BEE47BE49500050060
:100B000001F0C4E497E39500020001F0BEE3CAE4FB
:100B10007100050001F0CCE473E49300080001F0DB
:100B2000BEE485E4A000050001F0C6E385E3A00073
:100B3000010001F0BEE480E49D00050001F0E2E464
:100B40009FE39E0001000148E4490000E3CF00015B
:100B5000000B42E491000245E48C201200052A4279
:100B6000E386000544E3880100FFFF42E43D000402
:100B700042E49B000042E39C00026028E3A2F0DE16
:100B8000F0CEE49100020001F0BEE48CE3860005A3
:100B90000001F0D4E388E43D00040000F0BCE49BD5
:100BA000E39C0002201148E43F0000E3A200100093
:100BB0001341F3B70043F3BC00010341F3B4004118
:100BC000F3B50041F3B60041F1A00050EAD5666DDF
:100BD000D038E26F4AA483CCD0C94343534942EA98
:100BE00060001053EA651832001803A6285ED8EC9E
:100BF000911C48A3AC4353534942EAD0001350EA36
:100C0000FA1803A6285ED8EC911C48A3AC435353B2
:100C10004941EAD20042EAF8000142EAC600004235
:100C2000EAD3000253EAE50435004F84F610761A41
:100C3000D4BD4941E4184353534942EA620013507A
:100C4000EAB64F84F610761AD4BD4941E4184353EE
:100C5000534941EA640042EAB40001603CEA78F09A
:100C6000DEEAD5EA6000100001F0BEEA65EAD000D5
:100C7000130001EAFAEAD2EAF800F70D10F0BCEA34
:100C8000C6EAD300022111F0BEEAE5EA62001300D1
:100C900001EAB6EA64EAB400F70D1048EAC80000B9
:100CA000EA780030003544E101003300010041F6EC
:100CB0004A00C2D530F707B2D563F0FF05F030E740
:100CC0000DB2D5F404008463F0FF05F08001843098
:100CD000D502F40422BC000BBE0029EF8DF084FF86
:100CE000ADF022E4CCF875F008EF2FFFEE33FEEC08
:100CF00033FCEE9DEC984005FCEE9DFE0FD5F0E92F
:100D0000E4CEFD22EDF8F5F0EE008420D21CFEAD1D
:100D1000F075F008EF2FFFED33FD4007985006D532
:100D2000F0F222C398FD0FD5F0EA22C2D5EC30E7ED
:100D300009B2D5E4C39DFDE49CFCEE30E716B2D5C4
:100D4000E4C39FFFE49EFE12200CD5C3E49DFDE4A6
:100D50009CFC800412200CD530D507C3E49FFFE42F
:100D60009EFE22F8EB700C09E5F027C7F5F019E8B4
:100D700037C72289828A831410E707F593E80200B7
:100D80000B1FF593E4740193F5F0E49322BB000B81
:100D900009C5F027F7C5F01937F722F8EB89828AE1
:100DA000831410E707F593E802000B09F59374012B
:100DB0009325F0F5F0E4933822EB7006E9F8022071
:100DC0000E2889828A831410E706F59302000D9C91
:100DD000F59302200E357401FF3395E0FEFDFCA370
:100DE000A3A3E0CF2FF0E582158270021583E0CE39
:100DF0003EF0E582158270021583E0CD3DF0E5827C
:100E0000158270021583E0CC3CF022EB7006E9F805
:100E100002200E4589828A831410E706F5930200AA
:100E20000DD9F59302200E4EE6FB08E6F908E6FA26
:100E300008E6CBF822E493F8740193F9740293FA6C
:100E4000740393FB22E6FB08E6FA08E6F922E49332
:100E5000FB740193FA740293F92202276876E493F3
:100E6000A3F85407240CC8C333C4540F4420C883C8
:100E70004004F456800146F6DFE4800C01020408C9
:100E80001020408090200148E47E019360CCA3FFB5
:100E9000543F30E509541FFEE493A360010ECF5484
:100EA000E0B4E029E493FBA3E493FAA3E493F9A369
:100EB000E493C083C08212000AE3759320D082D0ED
:100EC00083A309E970010ADFE7DEE580BB54C02592
:100ED000E0602B4089E493A3FAE493A3F8E493A39E
:100EE000C8C582C8CAC583CA759300F0759320A38C
:100EF000C8C582C8CAC583CADFE3DEE1808AE4933D
:100F0000A3F8E493A34003F68001F208DFF4022083
:100F10000E88A85B2F0004D104A873E10001B7017B
:100F2000A8561900019E47A87C2500019E69A87C4F
:100F30003C00019EBAA8564000019ED1A84BA100DA
:100F400001587DA856670002BA8CA7C80B0003D4CD
:100F500095A8587C000140AEA780AE00032D73A871
:100F60000A580003EBF7A689A400047A35A8859BEC
:100F7000000324C2A873FD0000100FA7EEBE0002FC
:100F8000830BA885AC000396B6A885BD0003979790
:100F9000A87930000486D1A8834F00044D67A826A5
:100FA000210001B5AAA83F0500017A0AA811D800BE
:100FB000036114A888AA00008D66A7757F000288C7
:100FC000E1A83BE50003B920A7F814000151A2A84D
:100FD00052DF0004E099A7C35600026772A6B96108
:100FE0000001BE52A7D8A8000320A2A881E30002F6
:100FF000CB01000000000000000000000000000025
:10100000000022220225184B022652E400000D0A9D
:101010000D0A222202277FAB022729F902262690F9
:101020000225E4090226B4A2022687C10224E6FAB8
:101030000220F3C50222442802274A15022573F52F
:101040000223E46A02239E390226C65D0221A9BC5E
:101050000226CAB402238BE102265ADF02270B9E26
:10106000022690A60227335102266ADE0227467323
:10107000022635100225F03302265E940226854AA8
:101080000225732B02255AF702274EF90224A96E76
:101090000000000000000000000000000000000050
:1010A0000000000000000000000000000000000040
:1010B0000000000000000000000000000000000030
:1010C0000000000000000000000000000000000020
:1010D0000000000000000000000000000000000010
:1010E0000000000000000000000000000000000000
:1010F00000000000000000000000000000000000F0
:1011000000000000000000000000000000000000DF
:101110003F65098601000A0004781D35330D0D1363
:1011200005447F5024405030000220404014080005
:1011300016200A1016201E0F0F5555160A540B04C0
:1011400012000010120700000319FF40F07F40005A
:101150000077015E00F001E000C8204E0000483931
:101160003024201812600000000000000000000081
:10117000000000000000000000000000000000006F
:10118000000000000000000000000000000000005F
:1011900000001000800000805F9B34FB0000FFFF18
:1011A000000000000000000000000000FFFF000041
:1011B00000000000000000000000000000002222EB
:1011C0002222222222222222222222222222000043
:1011D0000000000000000000424D38335F4D5350C6
:1011E0004B323000000000000000000000424D388B
:1011F000335F4D53504B323000000000C1030000FC
:101200000020011001130114C101000000000000C2
:10121000000000000000424C455F424D383353440B
:101220004B004D414749439000C6421220BE321246
:1012300020B8EE7EC67F477B11FD1200004F1220C2
:10124000BD4C1220B6A3E012000E68127902150FF1
:101250000317690419480519C0061A2D0A1C190D2F
:101260001E590E1C670F1C99131D5A151ED0161DF2
:10127000E2171ED01800001EBCEF2405FFE43E124A
:10128000201FE81220B9B41220B731240B1220B667
:1012900079E0640160030114888F821220B6A5A34F
:1012A000E060030113AF1220BEA87003011ED0122C
:1012B00020BD2F60171220B82E9000C6421220B712
:1012C000641220BCC1FD7B1602278DC21220B82EED
:1012D0009000C6421220B7641220BCC1FD7B187A70
:1012E000CC122691729000C6461220B6881220BBFE
:1012F000D41220B8DCA3A31220BBF51220B752E50C
:101300008224071220B679EAF0EB1220B750E5826A
:10131000240C1220B679E0640170097B02FA7D107A
:101320001225A4FD9000C6441220B792240C12206E
:10133000B679740212201F131220BF4C1220B792EC
:1013400024071220B679E0FFA3E09000C651CFF049
:10135000A3EFF07EC67F55ED240EFDE43CFC7B033D
:10136000120012109000C6507401F09000C6530491
:10137000F0E4A312201FC21220B82E9000C644121F
:1013800020B78124071220B679E0FCA3E0FD1226E5
:10139000CCB2E4FF122708CCEF700C7F01122708B3
:1013A000CCEF7003011ED0E4FD7F03022689641296
:1013B00020BD561220B768A3A3E024FE604024FE9F
:1013C0006003011ED01220BAE764047003011ED02E
:1013D000EF1220B68A1220BEB01220B87D240C1263
:1013E00020B6791220BC8C7402F07EC67F49ED24B1
:1013F00005FDE43C12201F56A374040119BC122001
:10140000BDFD1220B8C3FE9000C658F0A3EFF01245
:10141000201FDD1220B9757003011ED0E01220B626
:101420008A1220BEB01220B87D240C1220B679E0BA
:10143000640370379000C6441220B792240C122027
:10144000B6791220BC8C740AF07EC67F4BED240165
:1014500012201F7E1220BC1CF09000C6421220B643
:101460009FA3E09000C64A12201FC212201F89903D
:1014700000C659E02403FD9000C658E03400122055
:101480001F56A374020119BC9000C6421220B6C8B0
:10149000240B1220B679E0600764026003011ED0BD
:1014A0009000C6421220B69FA3E06003011ED01236
:1014B00020BAE764047003011ED0EF1220B68A122E
:1014C00020BBD41220B8DCA3A31220BBF51220B796
:1014D00052E58224091220B679EAF0A3EB1220B774
:1014E00051E582243B1220B679E054F91220B7511D
:1014F000E582243B1220B679E0F012201FA22405D9
:101500001220B8C212201FBA1220BCFE0119BC1250
:1015100020BDFD1220B8C312201FE81220B9B4125A
:1015200020B792240B1220B679E064016003011603
:10153000831220BEA870111220B82EED2402FDE403
:101540003CFC7B0D0225F5909000E24DE020E77217
:1015500030E46F7EC67F5A1226632DE49000C65990
:10156000F09000C65AE0FE9000C659E0FFC39E50BE
:10157000267CC67D5B1225CA571220BDFD1220B8FD
:10158000C3FE7CC67D5D7B06120011CD5009900024
:10159000C659E004F080CA9000C65AE0FF9000C629
:1015A00059E06F701D1220BD6060171220B82E1216
:1015B00020B8BBFC7B131225F5901220BAE7022558
:1015C0008B27E4FF12275A579000C658EFF01220DD
:1015D000BDAA40379000E24DE020E71C30E419122C
:1015E00020BD6060131220B82E1220B8BBFCE4901E
:1015F00000C6B3F07B0180511220B82E1220B8BB78
:10160000FC9000C6B37401F0FB803E9000E24DE018
:1016100020E72030E41D1220BD6060171220B82E94
:101620001220B8BBFC9000E259E0FBE49000C6B386
:10163000F080161220B82E1220B8BBFC9000E259A0
:10164000E0FB9000C6B37401F0122706349000C688
:1016500046E075F03FA4243DF582E434E175930043
:10166000AF82FE9000C643E024081220B8C2FC7B83
:1016700003120012109000C646E01220B947122053
:10168000BA3C229000C6421220B6C8240B1220B6E3
:1016900079E0600764026003011ED01220BEA870CA
:1016A0000F1220B82E1220B8BBFC7B0D02259C41E6
:1016B0007EC67F591220B8BB12201FBA9000C65FA9
:1016C0001220BB499000C6631220BB499000C66B34
:1016D0001220BF561220BAE675F03FA42468F582A6
:1016E000E434E11220B893640270319000E24BE0E0
:1016F000A330E115EF1220BEB81220B89330E309F1
:101700001220BD68740DF080071220BD687408F0C7
:101710009000C669E4F0A37463F080339000E24B5C
:10172000E0A330E1199000C646E01220BEB81220B6
:10173000B89330E3091220BD68740CF080071220C2
:10174000BD687407F09000C669E4F0A37460F07897
:10175000B07CC67D017B017AC679597F151220BE07
:10176000491220B82E0225965C9000C6421220B67F
:101770009F1220B96A7003011ED0E01220B68AAF12
:1017800082FE1220B9AE1220B7641220BCC1FD1235
:1017900020B6D524091220B679E0FEA3E06D7002D0
:1017A000EE6C60030118449000C6441220B7312447
:1017B0003B1220B679E054F91220B6D4243B122013
:1017C000B679E0F01220BE4F740312201EF61220EC
:1017D000BAE79000C64FF0E49000C655F09000C6FE
:1017E000441220B792243D1220B679E064017008BB
:1017F0001220B752E582801B9000C6421220B781AA
:1018000024051220B679E06408701F9000C64412C7
:1018100020B792243A1220B679E054FE1220B75134
:10182000E582243A1220B679E0F09000C6441220F6
:10183000B78124091220B67974FFF0A3F01224D0E6
:10184000DB011EC89000C6421220B69F1220BCDEEB
:101850001220B78124071220B679E0FCA3E06F7054
:1018600002EC6E6003011ED09000C6441220BC95AD
:101870001220B674E09000C65812201F13FF1220E9
:10188000BF4C1220B78124071220B679E0FDA3E0F7
:101890009000C651CDF0A3ED1220BDBB9000C64212
:1018A0001220B78124051220B679E09000C654F0CA
:1018B0006408600301193D9000E24FE0FEF4601DF2
:1018C000EF1220BD171220B893FFEEB5070F90005E
:1018D000E24FFFE4FD122602EC1220BC519000C63C
:1018E00058E07003740FF07EC67F591220BC31128D
:1018F000201FF29000C6581220BCE31220B78124AA
:10190000221220B679EF1220BAE612258B27122078
:10191000BAE71220BA319000C658E0FEEF1220BD9F
:1019200023F583759300EEF09000C6461220BA604E
:10193000AF82FE7CC67D5912201FF280081220BAA9
:10194000E712258B27011EC89000C6421220B69FC1
:10195000A3E0FF6405600DEF64186008EF64136096
:1019600003011ED09000C6421220B69F1220B96A11
:101970007003011ED0E01220B68A1220B9AC1220EA
:10198000B69FA3E06418701C1220B82E9000C644C5
:101990001220B78124071220B6791220BE751227B3
:1019A0008DC280109000C6441220B6C8240C1220AC
:1019B000B679E4F012201ED11220BC1CF0011EC822
:1019C0009000C643E02403FF1220B8C3FE1226F3A2
:1019D0009C1220B9757003011ED01220BD4C12203C
:1019E000B6A3A3E0701D1220BC8E7404F0EF240295
:1019F000FFE43E9000C64AF0A3EFF01220BC1CF0BA
:101A0000011EC81220BAE775F03FA42440F582E415
:101A100034E11220B893FE04F0EE1220BDAA400378
:101A2000011ED07B407A017D830225A4FD1220BDDA
:101A3000561220B768A3A3E0147003011B9D24F87D
:101A4000603724FA7003011B7324EA6003011ED07F
:101A50007EE27F3AED240412201F7E1220BE4FA3A7
:101A60007406F07EC67F499000C643E0240412202D
:101A7000B8C212201FCC011EC89000C6421220B668
:101A8000C824041220B6791220B96C7003011ED04C
:101A9000E01220B68AAF82FE1220B9AE1220B792B1
:101AA00024061220B679E0FB9000C6581220B6D466
:101AB000240B1220B679EBF09000E258E06401703C
:101AC000271220B751A3A3A3E06003011ED090000A
:101AD000C658E064017003011ED01220B82E1220F7
:101AE000BC317B01022654C89000C6421220B69F2A
:101AF000A3A3E0704D9000E24DE030E61D9000C6DB
:101B0000441220B792240B1220B679E070341220D0
:101B1000B82E1220BC147B0180249000E259E070A2
:101B2000219000C6441220B792240B1220B679E00F
:101B30006401700E1220B82E1220BC14E4FB122691
:101B400054C81220BE4F740712201EF69000C644DF
:101B50001220B6C8240B1220B679E09000C650F0CF
:101B60009000C6421220B69FA3A3E09000C64FF09B
:101B7000011EC89000C6421220B69FA3A3E06003D6
:101B8000011ED01220BC8E7405F09000E240E0905F
:101B900000C64AF0E49000C649F0011EC89000C695
:101BA000421220B69FA3A3E0600764026003011EF7
:101BB000D09000C643E02404FF1220B8C3FE1226D2
:101BC000F39C9000C646EFF01220B7C14003011EFF
:101BD000D0E01220B947F5837593001220BC8C74B5
:101BE0000AF07EC67F4B12201F359000C64212209D
:101BF000B69FA3A3E09000C653F012201FD412207A
:101C00001F8912201F3574FF9000C651F0A31220C7
:101C1000BDBBA37402F0011EC89000C643E02403BC
:101C2000FF1220B8C3FE1226F39C1220B975700370
:101C3000011ED0E01220B68A1220B9ACE0FEA3E06B
:101C4000FF1220B6A3A3E06003011ED01220B6D578
:101C500024091220B6791220BCE31220B781240B8C
:101C60001220B679EFF0229000E24DE030E413123A
:101C700020BD60600D1220B82E1220B8BBFC0226D9
:101C8000DE911220BE4FA37408F07EC67F49122059
:101C9000B8BB12201FCC011EC89000C643E024052B
:101CA000FF1220B8C3FE1226F39C1220B9757003F0
:101CB000011ED0E0F91220B68A1220B9ACE0FEA3D2
:101CC000E0FF1220B6A3A3E06003011ED08F8212B2
:101CD00020B6A51220BCDE1220B79224091220B62D
:101CE000791220B74DE582243B1220B679E054F9F1
:101CF0001220B751E582243B1220B679E0F0AF0103
:101D000012201FA224051220B8C2FC7B061200126A
:101D1000101220BCFEF09000C6421220B7312410F1
:101D20001220B679E0FDA3E09000C652CDF0A3EDFD
:101D30001220B6D4240E1220B679E0FFA3E0900062
:101D4000C650CF1220B9B21220B6CA24121220B641
:101D500079E09000C654F0011EC89000C6421220DF
:101D6000BAEF24081220B67912000D749000C658FC
:101D7000EF1220B79F24081220B67912000D747854
:101D80001812000D169000E2301220B9B41220B9DA
:101D90003E24081220B67912000D74781012000D3E
:101DA000169000E22FEF1220B79F24081220B67978
:101DB00012000D74780812000D169000E22E122009
:101DC000B9B4E0FCA3E0FD1220B7681220B97E127E
:101DD000201FD47EE27F311220B8BBFC7B060200BC
:101DE00012101220BD4C1220B6A3A3E07003011EF6
:101DF000D0EF12201FDD1220B9757003011ED0E054
:101E00001220B68A1220BEB01220B87D240C1220F7
:101E1000B679E4F09000C6421220B69FA3E06418A1
:101E2000701C1220B82E9000C6441220B7812407DF
:101E30001220B6791220BE7512278DC28010900034
:101E4000C6441220B6C8240C1220B679E4F0122041
:101E50001ED11220BC1CF0806F9000C6421220B62A
:101E60009F1220B96A60551220B688AD821220BB3D
:101E7000D7E0FCA3E0FD1220B768A3A3E0703D12F9
:101E800020B752E58224051220B679E06402900062
:101E9000C64470151220B781240D1220B679740142
:101EA000F07D171225EDCC80131220B6C8240D1238
:101EB00020B679E41220BAE612275C021220BD5641
:101EC0001220B7681220B97E7EC67F47122670ACFA
:101ED000229000C647E4F0A37409F07EC67F4A90C2
:101EE00000C645E02401FD9000C644E03400FC7BC0
:101EF000061200121022A3F07EC67F499000C6454C
:101F0000E02401FD9000C644E03400FC7B06120092
:101F1000121022F09000C647E4F0A37402F07EC6CF
:101F20007F49ED2401FDE43CFC7B06120012109079
:101F300000C646E0229000C645E02401FD9000C6A0
:101F400044E03400FC7B06120012109000C646E00C
:101F50009000C64FF022FC7B06120012109000C6C3
:101F600046E09000C64FF074FF9000C651F0A3F019
:101F70009000C6507401F0E49000C653F022FDE4D6
:101F80003CFC7B0612001210229000C646E0FF12B5
:101F9000258B279000C647E4F0A37402F07EC67F2D
:101FA00049221225EB629000C647E4F0A37403F0C7
:101FB0007EC67F499000C643E022FC7B06120012D9
:101FC0001022F07EC67F47122670AC22FC7B0612E0
:101FD000001210227EC67F47122670AC222403FF17
:101FE000E43EFE1226F39C22FE12274C4E9000C6C1
:101FF00046227B0612001210229000F236E0FF22E9
:10200000227F0122229000C7BE122611289000C70D
:10201000BDEFF004FF9000C7C3F07E001204CF4C68
:102020009000C7C4EEF0A3EFF01200048A9000C73E
:10203000C1EEF0A3EFF08E83759300122610B2E488
:10204000F07422122610D92406122610B4E4F0905F
:1020500000C7C0E014601914601F14602514602BC1
:1020600014603124057034122610BF7413F0802BD5
:10207000122610BF7412F08022122610BF7415F0C1
:102080008019122610BF7414F08010122610BF742D
:1020900017F08007122610BF7416F09000C7BDE03D
:1020A000FB601D9000C7C5E02401FF9000C7C4E09D
:1020B0003400FE9000C7BEE0FCA3E0FD1200121049
:1020C0009000C7C3E0FF9000C7C1E0FCA3E0FD8C17
:1020D000837593002407122610B4EFF09000C7C454
:1020E000E0FEA3E0FF122610F2E58224081226107B
:1020F000B4EEF0A3EFF07F0812000451E4FEFF22DB
:102100000226A52E02278D2A020404FD020407F5EB
:10211000022788E702275C6B02278B190224CD7CFB
:102120000225D0450226359102246E7D9000C53AE5
:10213000EFF0C3748094804006122691FB40057E28
:10214000007F03229000C53AE0FF122691F3501B56
:102150001226921C122691E855801226922DFEF826
:10216000EF088002C313D8FC0121F09000C53A1299
:102170002691EF4021D3EF12269209501912269191
:10218000D855901226922DC39408FEF8EF088002CD
:10219000C313D8FC805A9000C53A122692044025F9
:1021A000D3EF12269215501DE0C39410122691DC35
:1021B00055A01226922DC39410FEF8EF088002C39A
:1021C00013D8FC802B9000C53A1226921040291299
:1021D0002691FB5023E0C39418122691DC55B012CF
:1021E00026922DC39418FEF8EF088002C313D8FC82
:1021F0008D828C83759300F0E4FEFF2201020017AC
:102200000E12010A4254353531315F303032030449
:10221000010100019000C644EEF0A3EFF07EC67FFE
:10222000477B20E4FD1200004F12221C1B12221AD1
:10223000E2E012000E68229A0123220223D2032434
:102240001504245805249F06256907266B08288F46
:102250000929F70A2D5B0B266B0C2E000D2EB60EEE
:102260002EFD0F2F19102F66112F9E1230031330E1
:102270001E143079153094163354173379183448B6
:102280001934E21A35201B266B1C288F1D35671E5A
:1022900035861F359E40000035CE12221AB470508C
:1022A000122777A012221B1E70030135CE12221CAA
:1022B0001B12221AE212221D8F12221AEF12221D65
:1022C0009912221B5112221D7BEC12221BBA1222E0
:1022D0001C6412221CAF12221C7912221DA0122291
:1022E0001CA112221DA09000C64704F0A3EF80138A
:1022F00012221ADA12221B1770030135CE74011252
:10230000221CE712221C1A12221AE2A3A3E0FD12D9
:10231000221BC8CDF0A3ED12221AB39000C64B01C8
:102320002EF912221ADA12221B1770030135CE740D
:102330000212221CE7F09000C64412221B2B240636
:1023400012221ABFFD12221BC8CDF0ED12221B5023
:10235000E582240A12221ABF9000C64B122035E2F1
:1023600012221B7B240A12221ABF60030135CE12EF
:10237000221BFF12221AC4FEA3E0FF4E60041226A5
:10238000457912221E68FFAEF0122035FF12221C82
:102390000412221C64ED12221C0412221AC4FEA391
:1023A000E0FF4E600812221E681220360A12221E1A
:1023B0007212221CA212221AC470030135CEEE1230
:1023C000221AEF12221AC412221B89AD82FC0226A5
:1023D000535D12221ADA12221B1770030135CE1236
:1023E000221BE112221AC412221B3A600A9000C674
:1023F0006712221ADEE4F012221ADAA3A3E07008B0
:1024000012221CAF1226D33F740512221ACB1222BD
:102410001BC7012EF912221ADA12221B17700301B0
:1024200035CE12221BE112221AC412221B3A600A74
:102430009000C66712221ADEE4F012221ADAA3A371
:10244000E0700812221CAF1226D33F740312221A26
:10245000CB12221BC7012EF912221ADA12221B17E5
:1024600070030135CE12221BE112221AC412221B64
:102470003A600A9000C66712221ADEE4F012221AAD
:10248000DAA3A3E0700812221CAF1226D33F9000FB
:10249000C647740412221ACF12221BC7012EF9124A
:1024A000221ADA12221B1770030135CE9000F02693
:1024B000E0FFA3E09000C68BCFF0A3EFF0E4A3F021
:1024C00012221E439000C68DE0C39B40030125509D
:1024D0009000C68BE0FEA3E0FF12221AE2A3E012F6
:1024E000221E0E2467F582E434C612221D991222A0
:1024F0001B51E0FFEC25E025E02468F582E434C6BA
:1025000012221C309000C68B12221B2B2408122290
:102510001ABF12221E0E2469F582E434C612221D4F
:102520009912221B51E582240A12221ABFFFEC25C0
:10253000E025E0246AF582E434C612221C309000C3
:10254000C68B12221CD39000C68DE004F00124C07B
:1025500012221AFBA3E0FD9000C69174C6F0A3748A
:1025600067F0E4A3F00224ABD712221ADA12221B7E
:102570001770030135CE12221C1B12221AE21222FE
:102580001C6F12221AC46D60030135CE741A122218
:102590001B4AA312221BC612221B51E582242D12B4
:1025A000221ABF9000C64A122035E29000C644129B
:1025B000221B2B242D12221ABF60030135CE1222BA
:1025C0001B5212221D7A9000C646E0FD12221CC347
:1025D00012221C64ED12221CB712221DA0ED122241
:1025E0001BF312221AC4FEA3E0FF4E60041226451C
:1025F000799000C646E012221CC312221AC4FEA320
:10260000E07802C333CE33CED8F9FF122035FF1263
:10261000221BF312221C64ED12221BF312221AC495
:10262000FEA3E04E70030135CEED12221BF3122201
:102630001AC4FEA3E0FFED12221CC3F583759300BC
:10264000A3E025E025E0FB9000C645E02405FD90D1
:1026500000C644E03400FC1200121012221CAF121B
:10266000221BF3F5837593000129C87EC67F677B23
:1026700013E4FD1200004F12221ADA12221B177007
:10268000030135CEE0FF12221C39F58375930074E7
:1026900001F0A37403F012221B9B12221C46E0647B
:1026A0000C7018759300A3A3A3E0FD122738B59012
:1026B00000C67A12221B437018800012221ADAA375
:1026C000A3A3E0FF12273C159000C67AEEF0A3EF1B
:1026D000F09000C67AE07002A3E0706112221B9BAA
:1026E00012221C45E06408701212221B08A3E0901D
:1026F00000C69212221E1A0225C24612221B9B12EB
:10270000221C45E0641C701212221B08A3E09000FA
:10271000C69212221E1A0225B27312221B9B12228B
:102720001C45E0640C60030135CE12221B08A3E0B7
:10273000FD9000C69212221E1B0225B3259000C6F2
:10274000677401F012221DCEA3E0FF12221AE2A349
:10275000A3E09000C66D12221B51A3A3A3E0FFA328
:10276000E09000C66ECFF0A3EFF09000C67A122280
:102770001B2D240512221ABF9000C679F09000C6C6
:1027800073740112221B51E582240812221ABF9091
:1027900000C674F09000C67A12221B81240912220E
:1027A0001ABFFF9000C675F07E007006A37404F097
:1027B0008022EF64024E70099000C6767406F080A5
:1027C000139000C67A12221B7F240B12221ABF908C
:1027D00000C676F09000C676E0FF7E0012254F4AD4
:1027E0009000C67712221B4370030135CE9000C6BD
:1027F00077E0FEA3E0FF9000C676E01220360A9054
:1028000000C67A12221C96240912221ABFFFED2458
:102810000BFDE43CFC9000C677E0FAA3E0FB122439
:10282000A83912221B9B12221C45E0640870131267
:10283000221B0812221DEE9000C692F01225C246FD
:10284000804612221B9B12221C45E0641C702890BB
:1028500000C67A12221B7F240512221ABF9000C6DE
:1028600079F08D8212221B0612221DEE9000C69274
:10287000F01225B273801112221AFB12221DEE9063
:1028800000C692F01225B3259000C677013440129D
:10289000221ADA12221B1770030135CE12221ADA1D
:1028A000A3A3E0FF9000C646E012221C7912221A70
:1028B000C46F60030135CE9000C647740612221C17
:1028C000AE9000C648F012221BF312221AC4FCA3D9
:1028D000E0FD12221CB612221AC475F004A4FFED0A
:1028E0002FFFEC35F09000C667F0FCA3EFF0FD7E03
:1028F000C67F497B04120012109000C64412221BAE
:102900002B240912221ABF60079000C64D7401F0F3
:1029100012221B52E582241512221ABF6007900072
:10292000C6507401F09000C64412221B2B240F12D3
:10293000221ABF601112221B52E582241112221AA0
:10294000BF9000C654F012221B9B12221C9A241125
:1029500012221ABF12221BD2241212221ABF1222D2
:102960001B7A241312221ABFFAA3E0FB74C61222A8
:102970001D397456F01224A702122035F612221BBC
:102980007B241612221ABF60030135CE12221CAF1F
:1029900012221CB712221AC404F012221CB61222F0
:1029A0001AC4FD12221CAF12221CC312221AC4FA2E
:1029B000A3E06D7001EA601E9000C667E475F00444
:1029C00012000B099000C667E0FCA3E012221C462F
:1029D000E0FD0226A3AE12221BEE12221AC4FEA3B1
:1029E000E0FF4E70030135CE1226457912221BEE10
:1029F00012221DA0A3F02212221ADA12221B177033
:102A0000030135CE12221ADA12221B36701A122254
:102A10001AEA12221AC412221B9AF58212221B10E1
:102A200012221D40741280259000C66712221ADE01
:102A3000E06401701E12221AEA12221AC412221B2A
:102A40009AF58212221B1012221D407413F0E4FB2F
:102A5000012BE012221B9B12221C9A241112221A13
:102A6000BF64016003012B9A12221BD3241312228C
:102A70001ABFFFC00712221BD3241412221ABF123E
:102A8000221B7A241512221ABF12221D317469F0FA
:102A9000D0071224A70212221B27240912221ABFD0
:102AA0006003012B3B12221B52E582240B12221AD7
:102AB000BF12221D19606612221B27240C12221A33
:102AC000BF12221E79605612221B52E582240D127B
:102AD000221ABF12221E83604412221B27240E12C8
:102AE000221ABF12221E8D603412221B52E582244C
:102AF0000F12221ABF12221E97602212221B2724B5
:102B00001012221ABF12221E2D501212221B52E541
:102B100082241112221ABF12221E38507D12221A4C
:102B2000EA12221AC412221B9AF58212221B1012D8
:102B3000221D407429F07B07012BE012221B272461
:102B40000912221ABF6402705112221B52E582241C
:102B50000B12221ABF12221D19602212221B2724D7
:102B60000C12221ABF12221D48601212221B52E5BB
:102B700082240E12221ABF12221EA1701D12221AC6
:102B8000EA12221AC412221B9AF58212221B101278
:102B9000221D407429F07B0780469000C644122213
:102BA0001B2B240B12221ABF640170389000C64BF5
:102BB0000412221B51E582240C12221ABFFEA3E04C
:102BC00064024E601F12221AEA12221AC412221B39
:102BD0009AF58212221B1012221D407429F07B04E8
:102BE0000227775212221AEA12221AC412221B9AC0
:102BF000F58212221B10A3E0FDE49000C691F0FBC9
:102C0000122777529000C667E0FEA3E0FF12221A57
:102C1000E27401F012221B9B12221C9A241712222A
:102C20001ABF640170659000C64E0412221B51E564
:102C300082240A12221ABF640170509000C6461204
:102C4000221C3812221AC4FEA3E0FF64037003EEB4
:102C500064017037EF64037003EE6401702D12227B
:102C60001E7212221AEF12221AC412221B89122279
:102C70001D838D828C8312221AB8FD12221DA81288
:102C8000221ABFFAA3E0FB122643069000C647743F
:102C90000712221CE8F09000C64412221B2B1222BD
:102CA0001ABD9000C64912221B51A3A3A3E09000B5
:102CB000C64AF09000C64412221B81241212221A26
:102CC000BF9000C65112221B51E582241312221A12
:102CD000BF9000C652F07EC67F54122035CF12221C
:102CE0001BFF12221AC4FEA3E0FF4E604E12221DEB
:102CF000B812221DC8C39F502012221B9BF58212BE
:102D0000221B1012221DF77001EA600D12221CCF47
:102D10009000C67AE004F080D89000C67AE06F6038
:102D20001A12221ADA12221C8512221B1012221DDC
:102D3000D57CC67D4B7B1A1200121012221C1B126E
:102D4000221AE2A312221D8E12221BE212221D99C8
:102D500012221AB3FFEC12221C252212221ADA12B6
:102D6000221B1770030135CEA3740812221CAE90EB
:102D700000C648F012221B9B8C8375930012221A06
:102D8000BD9000C649F060030135C6EF12221BE278
:102D900012221AC412221DDF12221AE27401F075E7
:102DA0009300E582240A12221ABF640160030135F0
:102DB000C612221E7212221C3912221AC4FCA3E06F
:102DC00064037003EC640160030135C69000C646DD
:102DD000E0FD12221AEF12221AC4FFED12221CDBB0
:102DE00012221AC4FD12221B8A12221D8312221DD6
:102DF000A812221ABFFAA3E0FB122643060135C629
:102E000012221ADA12221B1770030135CE12221C6D
:102E10001B12221AE212221C6F12221AC46D6003C6
:102E20000135CE740912221B4AE582241612221A99
:102E3000BF9000C66412221B51E582240912221A97
:102E4000BF60079000C64A7401F09000C644122289
:102E50001B2B241512221ABF60079000C64D740167
:102E6000F012221B52E582240F12221ABF600F12A9
:102E7000221B7B241112221ABF9000C651F012228D
:102E80001B9B12221C9A241112221ABF12221BD23F
:102E9000241212221ABF12221B7A241312221ABFE2
:102EA000FAA3E0FB9000C69274C6F0A37453F0122C
:102EB00024A7020135C612221ADA12221B17700348
:102EC0000135CE12221ADA12221B369000C6447047
:102ED0000D12221AFFA3E0FD7B12022778FE1222B8
:102EE0001AFFA3E0FDE4FB122778FE9000C64774AA
:102EF0000C12221ACF12221BC6F00135C612221A5A
:102F0000DA12221B1770030135CEA3740D12221A98
:102F1000CF12221BC6F00135C612221ADA12221B6A
:102F20001770030135CE12221ADA12221B36700DE9
:102F300012221AFBA3E0FD7B1202277A999000C6A9
:102F40006712221ADEE4F012221AFBA3E0FDE4FB72
:102F500012277A999000C647741012221ACF1222B3
:102F60001BC6F00135C612221ADA12221B17700393
:102F70000135CEA3741112221ACF12221BC61220C1
:102F800035EC12221ADAA3A3A3E060030135CE12B6
:102F9000221BDD12221AC412221DDF01356012220B
:102FA0001ADA12221B1770030135CE12221ADA1216
:102FB000221B36701D12221AEA12221AC412221C77
:102FC0004E12221B72A3A3A3E0FB9000C6917412C1
:102FD000802C9000C647740E12221ACF12221BC6F4
:102FE000122035EC12221AEA12221AC412221C4EA6
:102FF00012221B72A3A3A3E0FBE49000C691F0028F
:1030000027707012221ADA12221B1770030135CEB4
:10301000740F12221A8F9000C64AF00135C6122290
:103020001ADA12221B1770030135CE12221ADA1295
:10303000221B36702012221AEA12221AC412221CF3
:103040004E12221B72A3A3A3E0FB9000C691741240
:10305000F00227708E12221AFBA3E0FDE49000C656
:1030600091F0FB1227708E9000C647741212221A3C
:10307000CF12221BC6F00135C612221ADA12221B09
:103080001770030135CE741312221A8F9000C64AAE
:10309000F00135C612221ADA12221B17700301350D
:1030A000CE12221ADA12221B36701A12221AEA12D1
:1030B000221AC412221B9AF58212221B1012221D00
:1030C0005C741280239000C66712221ADEE0701E24
:1030D00012221AEA12221AC412221B9AF582122212
:1030E0001B1012221D5C7414F0E4FB01327B1222CF
:1030F0001B9B12221C9A241012221ABF6401600327
:1031000001323512221BD3241212221ABFFFC0072C
:1031100012221BD3241312221ABF12221B7A241448
:1031200012221ABF12221D317469F0D0071224A78F
:103130000212221B27240912221ABF60030131D672
:1031400012221B52E582240B12221ABF12221D19D1
:10315000606612221B27240C12221ABF12221E792B
:10316000605612221B52E582240D12221ABF12222F
:103170001E83604412221B27240E12221ABF122221
:103180001E8D603412221B52E582240F12221ABFB8
:1031900012221E97602212221B27241012221ABF0D
:1031A00012221E2D501212221B52E58224111222CD
:1031B0001ABF12221E38507D12221AEA12221AC495
:1031C00012221B9AF58212221B1012221D5C7429F6
:1031D000F07B0701327B12221B27240912221ABF1F
:1031E0006402705112221B52E582240B12221ABF74
:1031F00012221D19602212221B27240C12221ABF30
:1032000012221D48601212221B52E582240E122245
:103210001ABF12221EA1701D12221AEA12221AC40B
:1032200012221B9AF58212221B1012221D5C742995
:10323000F07B0780469000C64412221B2B240A1202
:10324000221ABF640170389000C64A0412221B5132
:10325000E582240B12221ABFFEA3E064024E601F17
:1032600012221AEA12221AC412221B9AF582122280
:103270001B1012221D5C7429F07B0402277F401270
:10328000221B7B241612221ABF640170069000C60E
:103290004D04F012221AEA12221AC412221B9AF5C5
:1032A0008212221B10A3E0FDE49000C691F0FB12F5
:1032B000277F409000C647740A12221C1012221A5F
:1032C000E212221BC612221B51E582241112221A7D
:1032D000BF9000C650F09000C64412221B812412F9
:1032E00012221ABF9000C651F07EC67F53122035BD
:1032F000CF12221BFF12221AC4FEA3E0FF4E70035E
:103300000135CE12221DB812221DC8C39F502012B3
:10331000221B9BF58212221B1012221DF77001EA5C
:10332000600D12221CCF9000C67AE004F080D89085
:1033300000C67AE06F70030135CE12221ADA12222B
:103340001C8512221B1012221DD57CC67D4A7B1AB9
:103350000200121012221ADA12221B177003013512
:10336000CEA3740B12221CE8F012221B7B12221A2D
:10337000BD9000C649F00135C612221ADA12221B8E
:103380001770030135CE12221ADA12221B36703C56
:1033900012221AEA12221AC4FFC00712221C1B12A0
:1033A000221AE2A3A3E0FD12221AB4FAA3E0FB90D2
:1033B00000C644A3E02406FFE43E9000C83FF0A30B
:1033C000EFF0A37412F0D00702251A2B12221C1B57
:1033D00012221AE212221D8E12221D2512221D997E
:1033E000F09000C647741612221B4E12221BC6F024
:1033F00012221B7B12221ABDFEA3E0FF9000C64AD8
:10340000EEF0A3EFF012254F4A9000C64C12221B9B
:103410004370030135CE7EC67F4C12221EAB2406BC
:10342000FDE43AFC12221B7212221E54F58375939E
:1034300000A3E0FB12001210122035F69000C64CDB
:10344000E0FEA3E0FF0134DE12221ADA12221B177B
:1034500070030135CEA3741712221C1012221AE237
:10346000A3A3A3E0FCA3E0FD9000C649ECF0A3ED0C
:1034700012221B51E582241512221ABF9000C64D5C
:10348000F0E49000C64BF0A3F0D3ED9400EC940070
:1034900040399000C64412221AE012221D7A1225E9
:1034A0004F4A9000C64B12221B4370030135CE7E5B
:1034B000C67F4B12221EAB2405FDE43AFC12221BF0
:1034C00072A3A3A3A3E0FB120012101220361290E5
:1034D00000C64BE0FEA3E0FF4E70030135CE02268E
:1034E000457912221ADA12221B1770030135CE1207
:1034F000221ADA12221B36600A9000C66712221ABC
:10350000DEE4F012221AFBA3E0FD12277AB190004C
:10351000C647741412221ACF12221BC6F00135C6F8
:1035200012221ADA12221B1770030135CEA374156A
:1035300012221ACF12221BC6F01220361212221AA1
:10354000DAA3A3A3E060030135CE12221BDD122211
:103550001AC412221B3A60769000C667E0FEA3E010
:1035600012221AE2E4F02212221ADA12221B176047
:103570005DA3741812221A90FFA3E09000C64ACFF0
:10358000F0A3EFF0804012221ADA12221B17603EDD
:10359000A3741912221ACF12221BC6F080281222FD
:1035A0001ADA12221B176026E0FF12221CDB1222FD
:1035B0001AC4FD122764DB9000C647744012221A19
:1035C000CF12221BC7F07EC67F471227643B227CA6
:1035D000C67D697B11120012107EC67F47122764D8
:1035E0003B22F07EC67F471227643B22F07EC67FD7
:1035F000471227643B227EC67F471227643B221274
:10360000254F4A9000C646E0FD22FBE4FD12000073
:103610004F227EC67F471227643B229000C85CEE93
:10362000F0A3EFF07EC87F5E7B06E4FD1200004F42
:103630001222F211FF1222F231FCA3E08CF01200F0
:103640000E9036D200013ADF0002401200033E54D1
:1036500000043F1100053F6B0006467100073F6FF5
:1036600000083FB700093FD6000A4096100140A26B
:10367000100240FB1003410E100442391005467140
:10368000100741B410084127100A4092100B417BEB
:10369000100C4671100D4179100F467110154671CE
:1036A00010164671101D4286101E42A42001432FA1
:1036B000300146713002434D300346713004439D62
:1036C0003005445D300C44BD300D4530300E0000F7
:1036D00046261222F28A24041222F1AF1222F28428
:1036E00024051222F1AFE09000C8651222F1E1A397
:1036F000E0FF9000C87BF0122046CB1226DC6890D9
:1037000000C87AEFF09000C864E060046401703B88
:103710009000C865E06402702274051222F1BAA319
:10372000E0FF1222F3B11225DE6A1222F3C49000E8
:10373000C868600301386EF001388E9000C865E0FB
:10374000600301388EA374070137D31222F3B164EA
:1037500002704FA3E06402701074061222F1BAA343
:10376000E0FF1225DE6A01388E9000C865E0600334
:1037700001388EA374081222F3199000C867F01262
:10378000277104EF600301388E1222F2EB9000C91A
:1037900066E4F0A37410F0E4FB7D0E122738840178
:1037A000388E1222F41A64037030A3E0FD7C0064AA
:1037B000027013A3740B1222F3191222F242FBEED1
:1037C000540F4B013889ED4C600301388E9000C8CE
:1037D00066740C1222F319013889EF6404705F904B
:1037E00000C865E0FB7A006402702B740D1222F2AF
:1037F0003A1222F39CFFA3E054FC4FF054FB122238
:10380000F1FE1222F3409000C868F0543F1222F4F7
:10381000217411F08058EB4A70741222F313540390
:10382000FF9000C867E054FC4FF054FB1222F1FEF9
:103830001222F3409000C867F0543FF0805090008F
:10384000C864E064057047A3E0FB7A00640270235B
:1038500074101222F23A1222F39CA31222F1F312F4
:1038600022F3519000C8681222F4217411F07401FF
:10387000F0801BEB4A70171222F31354039000C818
:10388000671222F1F31222F3519000C867F0900002
:10389000C865E0FF64026003EF70159000C864E043
:1038A0006406600C7EC87F6612228BE01223CACDAC
:1038B0009000C865E064026003013A659000C8802A
:1038C000F0A3F07F091226410E1224E9229000C8CD
:1038D000801222F3AA60301222F1E2A3E075F01008
:1038E000A4FFAEF01222F3B1EF4D9000C882122275
:1038F000F2C5FD1222F2EBAB05E49000C966F0A31D
:10390000F07D1702263B191226861D7EC87F5E12A7
:1039100022F3B17B011223A2371222F1E2A3E0FFCE
:103920007CC87D5E9000C864E0FB9000C894740180
:10393000F012228F2A9000C864E0600764016003DF
:10394000013A0B9000C471E0540760151222F2EBAB
:103950001222F2001222F3907402F07D0912272B3A
:10396000077D017F051225348B7EC87F7D1227439A
:10397000A39000C87DE030E5151222F3731226B142
:10398000BCEF640270081222F3731226597A900079
:10399000C87DE030E32D1222F3737CC87D821226AD
:1039A000F8A17EC87F8412275FB89000C885E030F8
:1039B000E0119000C882A3E030E1081222F37312F4
:1039C0002731F31222F3737D011226936F9000C802
:1039D00064E06003013A657EC87F7E122743D07E93
:1039E000C87F7F1227442A9000C87EE030E576A386
:1039F000E020E3061222F402606B1222F1E2A3122D
:103A000022F25A7D011223D7B9805A1222F37A701A
:103A10002F7EC87F7C122748899000C87CE030E761
:103A2000067F021226BEE17D017F061225348B122D
:103A3000277104EF602F7D027F011224AF70802573
:103A40009000C864E06403701C9000C471E030E42E
:103A5000141222F2EB1222F2001222F39004F07DF3
:103A60000A12272B079000C865E060030146711217
:103A700022F37A702B1222F1E2A3E01222F428B58D
:103A8000070E9000C46DE07007FD7F01122493249F
:103A90007F02122047026003014671FD7F06803BD2
:103AA0001222F41A64047003014671EF6405700376
:103AB000014671EF60076401600301467112204600
:103AC000AAFF1220470260030146717F01122705F9
:103AD0006BEF4E6003014671FD7F050225348B12AA
:103AE00022F2111222F382240C1222F1AF1222F2DE
:103AF0008424091222F1AF1222F3E764016003016A
:103B000046719000C8807408F09000C889E4F0A362
:103B10007404F01222F37A6003013CE51222F29F52
:103B20001226DC689000C87BEF1222F19FE0FF12A2
:103B3000275F5B9000C87AEFF064046058E025E0EE
:103B400025E0245EF582E434C41222F41364037089
:103B5000449000C88DF0A374021222F19FE0540F2C
:103B6000FF9000C88FE054F04FFFF09000C87B1228
:103B700022F253FEEF540F4E9000C88FF078907CE5
:103B8000C87D017B017AC8798D7E007F0312000A0F
:103B90003312269A7F9000C87BE0640860697EC873
:103BA0007F807CC87D81122768D29000C87BE0248A
:103BB00081F582E434C81222F413FF540F9000C838
:103BC0007EF0EF54F0C4540F9000C87DF0A3E0FFE6
:103BD0001227811B9000C87FEFF012278C56EF7ED2
:103BE000C87F7C70061227692C8004122742C212FB
:103BF00022F1A0E0FF7CC87D7C1225FD3B9000C82F
:103C00007CE0FF1226BD7D1222F1A0E0FF12273DCD
:103C1000009000C46DE070081222F1A0122046E569
:103C20009000C86674151222F19FE09000C86712D8
:103C30002046C11222F2111222F2A5E4FB7D0712E6
:103C400023A2371222F2111222F382240F1222F140
:103C5000AFE0701C9000C88DF0EF1222F2A57CC876
:103C60007D8D12270D239000C88DE030E73680301F
:103C70001222F2111222F382240F1222F1AFE05429
:103C80001F6401701F1222F28A24101222F1AFE089
:103C900054406440600E1222F29F7D801226B724A9
:103CA0001222F2B77EC87F8C122748B59000C88CCC
:103CB000E030E4041222F2B77EC87F8B12278245DF
:103CC0009000C88B1222F2AC8C83759300240A12E8
:103CD00022F1AFE0FCA3E0FD9000C889E0FAA3E088
:103CE000FB02268B6C9000C864E06003013E4690A6
:103CF00000C86674111222F2108E83759300240D91
:103D00001222F1AFE0640870079000C867048012C7
:103D10001222F1A0E0FF122741B4EF6009E4900005
:103D2000C867122046C19000C46E1222F2AC8C8388
:103D30001222F1AAE0FB7D1E1227580A122046AA81
:103D400012275A33EF703D9000C45AE06405702E7C
:103D50001222F2111222F2A51226DC689000C88D00
:103D6000122046837D07122046727D05122046727E
:103D70001222F2AE8C831222F1AA122046EE7F0CA0
:103D80001226410E1222F2111222F382240D122267
:103D9000F1AFE012000E683E42023DB3043DC3089D
:103DA0003DB3103DB31F3DB3223DB3233DB32A00C5
:103DB000003E1F1222F28A1222F1ADE0FF122721EB
:103DC000B9807F9000C88DE4F0A304F07EC87F8D99
:103DD0001226EB3A9000C88DE0FAA3E0FB4A90006F
:103DE000C85C601AE0FCA3E0FD8C831222F1AAE01B
:103DF000FFED2402FDE43CFC12258EE8800C12222B
:103E0000F1A4E0FDE4FF1226A7CC9000C45AE060C4
:103E1000316402602D9000C48B122046B8802312BA
:103E200022F1A0E0FF122684E09000C45AE0600C6A
:103E3000640260089000C48A122046B87F0B1226E4
:103E4000410E02242B951222F3C460030146717FB8
:103E50000E01400E1222F1E2A3A31222F22D600302
:103E60000146719000C868F0A3F0A3F09000C86804
:103E7000F09000C868E0FFC3942074809480502DB7
:103E80001222F200A3A3A31222F33624071222F176
:103E9000AFE5822F1222F1AFE070099000C868E010
:103EA00004F080099000C868E004F080C49000C865
:103EB00068E0FF2402FCE433A3F0A3CC1222F1FF5C
:103EC0001222F3CCE4A3F0FE12254F4A9000C866FC
:103ED0001222F3AA70030146719000C866E0FEA3A7
:103EE000E0FF1222F200A3A3A3E0FCA3E02407FD5D
:103EF000E43CFC122046F79000C869E0FEA3E0FF16
:103F00007B017AC8796412244B3E9000C866014652
:103F10001DE41222F3891222F210FF1222F1EA129A
:103F200022F3CC8F821222F1EC1222F3E6701112EE
:103F300022F41A64016005EF640370047F048014A6
:103F40009000C865E070119000C864E060046402ED
:103F500070067F051226410E9000C865E0600301DF
:103F60004671FF1226C9600223CACD0224D7937876
:103F7000647CC87D017BA17A0079567E007F101297
:103F8000000A339000C8747404F07EC87F747CC843
:103F90007D64122771CD1222F2112402FDE43EFC51
:103FA0009000C874E0FB9000C89474C8F0A37464D7
:103FB000F07F01022729579000C477E0FFE4FD124B
:103FC00026F3E412276FBCEF70067F0F1226410E16
:103FD0007F0102275B991222F2112404FFE43EFEC6
:103FE0001226DC689000C864122046837D071220E8
:103FF00046997D05122046991222F200A3A31220B1
:1040000046EE12276FBCEF60030146717F0F022658
:10401000410E1222F2118E83759300240E1222F1AA
:10402000AFE09000C878F0E4FD7F021224932412E0
:1040300022F32B7CC87D7912268FDA9000C878E0B5
:1040400064019000C864701874091222F19FE09016
:1040500000C865F07D017F0112272A2F7D01802293
:10406000740A1222F19FE09000C865F0E4FDFF128F
:1040700027308EE49000C46FF07D01FF12272A2FB5
:10408000E4FD7F011225348B7EC87F6412228BE011
:1040900080000225ED321222F2111222F2A5022432
:1040A0006A6F1222F2AEFD1222F208A3A3A3E0640B
:1040B00007701A1222F221A3A3E01222F220E58255
:1040C00024041222F1AFA3E0FD0226ABDE1222F29D
:1040D000AEFD1222F208A3A3A3E06405600301462B
:1040E000711222F221A3A3E01222F220E58224041D
:1040F0001222F1AFA3E0FD0226ACF81222F1E2A3F6
:10410000A3E0FEA3E0AA06F97B01022430381222C4
:10411000F1E21222F3621222F1EAE09000C866F0A6
:10412000FDE4FF02277B281222F1E2A3E0FF7AC818
:104130007B647D0112250EC01222F37A70041225D1
:10414000ED321222F1E2A3A31222F1E6E0700C900C
:1041500000C478E0FFE4FD1226F3E47EC87F651218
:104160002743A39000C865E020E4030146711222B2
:10417000F1E2A3E0FF0226597A80001222F211FF39
:104180001222F1EAA3A3E0FDA3E0CD1222F2E01295
:1041900022F1ECA3E09000C868F01222F320122272
:1041A000F2319000C867F08F821222F1ECE09000AB
:1041B000C866F0221222F1E21222F3621222F1EA20
:1041C000E06401701C9000C8641222F1E6A3E0FFD5
:1041D0009000C470E06F7003014671EFF00226BDDD
:1041E0007D9000C8641222F1E6E06402600301469B
:1041F000719000C8661222F32A7CC87D661226F2EE
:10420000329000C866E06401701A12278CF7EF64E0
:104210000C70119000C8641222F1E6A3E0FF7D014A
:104220001225D42D9000C8641222F204E0FF759389
:1042300000A3A3E0FD0226AECE1222F211FF12224D
:10424000F1EAA3E0F99000C864F08F821222F1EC49
:10425000A3A3E0FFA3E09000C865CFF0A3EFF0AF09
:10426000019000C865E0FAA3E0FBF5828A83122280
:10427000F3D77C008B828A83759300A3A3E0FAA313
:10428000E0FB02264C3C1222F211FF1222F1EA124C
:1042900022F2D81222F1ECA3E01222F220A3E0FDD8
:1042A000022669F81222F2111222F2A51222F389D3
:1042B000EFF01222F1EAE06402701A1222F229FDF4
:1042C0001222F32BED6F600D9000C46DE070067F3D
:1042D00004122493241222F3201222F1EAE0640251
:1042E000701D8F821222F233FF7CC87D6612266118
:1042F000CE9000C866E0FF1226E0BAE4FF802C9062
:1043000000C8641222F1E6E0640160030146711204
:10431000278C17EF700301467112278C33EF60036F
:104320000146717F0112277D307F010226E7AD1221
:1043300022F211FF1222F1EA1222F2D81222F1EC3B
:10434000A3E0FF7C00ED5402FD022727A31222F216
:10435000111222F2A51222F389EFF01222F2311289
:1043600022F428B5071512278CF7EF640D700C9016
:1043700000C8641222F1E6122046D81222F320125D
:1043800022F1EAA3E0700B8F821222F233FFE4FDE8
:1043900080071222F229FF7D010226AFE81222F2E5
:1043A000118E8375930024041222F1AF1222F3CEF2
:1043B00012242B951222F3C4703C1222F1E2A3E0E6
:1043C000FF7CC87D6E122661CE9000C86EE0FF12A1
:1043D00026E0BA1222F1E2A3E0FF122046CB7B01D5
:1043E0007D021223A2379000C46DE070091222F101
:1043F000E2A3122046E57EC87F6B7B03E4FD12003A
:10440000004F9000C86B7418F0FF1226CDB09000DA
:10441000C86CEF1222F2101222F38224041222F14D
:10442000AFE09000C86DF08F821222F1ECA312224F
:10443000F3E69000C86BE0FF1225E98E9000C86695
:10444000EFF0A3E41222F42174C8F0A3746C1222DA
:10445000F1E1A3E0FF7CC87D6502247BD61222F245
:10446000119000C8641222F2F29000C8641222F285
:10447000041222F3D57B01122615B39000C86412F2
:1044800022F2041222F3D51226B0461222F2291289
:1044900022F428B5071512278CF7EF640D700C90E5
:1044A00000C8641222F1E6122046D812277104EFE8
:1044B00070030146717D027F010224AF701222F267
:1044C000119000C8681222F2F2A37404F09000C8A0
:1044D00068E0FEA3E0FF1222F2311222F389740396
:1044E000F0E49000C867F09000C866F08F82122256
:1044F000F1ECA3E060169000C8677401F012277118
:1045000004EF60087D027F011224AF709000C8683C
:104510001222F1E6E060079000C8667401F0900096
:10452000C86AE0FF7E007B017AC8796402244B3EB2
:104530009000C86874061222F1E1A3A3E0FEA3E094
:104540008E8375930024041222F1AFE0FEA3E0FFF6
:104550009000C868E0FD7C00EF2DFFEC3ECF240109
:10456000CF3400FE1222F389EFF012254F4A90005B
:10457000C8661222F3AA70030146719000C866E073
:10458000FEA3E0FFF5828E837593007420F0122263
:10459000F2AEFD1222F208A3A3E0FB1222F221A345
:1045A000A3A31222F204EBF0EF2401FFE43EFE127B
:1045B00022F200A3A3A3E0FCA3E0FD122046F790A3
:1045C00000C868E02401FFE433FE9000C866E0FC08
:1045D000A3E02FFFEC3EFE1222F200A3A3A3E0FA19
:1045E000A3E0FB8A8375930024061222F1AFE0FC5E
:1045F000A3E0FD8B828A83759300E5822404122256
:10460000F1AFE0FAA3E0FB1200112F1222F320A376
:10461000E0FCA3E0FD122787A59000C866E0FEA39A
:10462000E0FF022645791222F2111222F231FEA396
:10463000E0FFEE14703BEF24F2600624F960268060
:10464000301222F1E2A312000DD9E92403F9E43A71
:10465000FA12000AB164027D0270047F018002E454
:10466000FF02272A2F1222F2EBE4FB7D20122758AB
:104670000A229000C88DE0FB1227580A9000C46EF1
:10468000E0FF22EFF0FB9000C46EE0FF7D061227F2
:10469000580A9000C46EE0FF229000C864E0FB124C
:1046A00027580A9000C46EE0FF22E4FDFF12273075
:1046B0008EE49000C46FF022E0FFE4FD1226F3E4E4
:1046C00022F07EC87F6612228BE0227CC87D5E12BB
:1046D0002712D17EC87F5E22E0FF12278107E4FD0A
:1046E0001225D42D22E0FD7F041224932422E0FB26
:1046F0007D081227580A229000C868E0FB120012B9
:1047000010221227056BEF4E229000C7FF1220BA2D
:10471000557EC87F047B11FD1200004F1220B99E08
:10472000759300E012000E68477A01483F02491F66
:10473000034A59044A59054B79064D68074E070844
:104740004E8B094EC60A4F6A0B4FBF0C4FF20D50ED
:10475000710E50EE0F51C710523F11516112518C22
:104760001352C614532315539C16556E1753CD1868
:1047700053E81954041A0000554B8F821220B6A535
:10478000122708481220B7B2700280189000C803A0
:10479000E01220B68A1220B876240C1220B679E0F6
:1047A000640370109000C7FF1220B69FE0FF7D01E8
:1047B000022717271220BF601220B6A3E0FD900049
:1047C000C8011220B93C24281220B679EDF08F825E
:1047D0001220B6A5E0FFE4FD122717279000C7FFBF
:1047E0001220B6C824041220B679E0600301556E89
:1047F0009000C8011220B73124231220B679E0308E
:10480000E20301556E1220B6D51220B677E030E2F1
:104810000301556E9000C8011220B6CA242212204E
:10482000B679E054FB1220B6D424231220B67912B4
:1048300020BAFA9000C8487401F07B02014919902F
:1048400000C7FF1220B69F1220B7AA700301556E51
:10485000E01220B68A1220B876240C1220B679E035
:104860006403700E9000C7FF1220B69FE0FF02277E
:1048700053089000C7FF1220B6C824041220B6794E
:10488000E0FFF460259000C8011220B781242912AE
:1048900020B92CC083C0821220BCEA8002C333D866
:1048A000FC4E759300D082D083F09000C7FF122099
:1048B000B6C824041220B679E0600301556E90005A
:1048C000C8011220B73124251220B679E054FB121A
:1048D00020B6D424231220B679E054FBF09000C80F
:1048E000011220B73124221220B679E054FB1220A5
:1048F000B6D41220B6771220BAFA7D031225EDCC79
:104900001220BAFE7B027D101220556F7B037D11B1
:104910001220556F1220BD70FBE4FD02275A0F9044
:1049200000C7FF1220B69F1220B7AA700301556E70
:104930001220B688AD829000C801F0A3EDF090007F
:10494000C7FF1220B764A3A3E070261220557C1283
:1049500020B672E054FB1220B6D424231220B6797C
:10496000E054FB1220B6C324221220B679E054FB97
:10497000F09000C7FF1220B69FA3E06004640170AE
:10498000371220B6C4242C1220B679E0FFF4600D53
:104990001220B77D2F1220B679E0547FF09000C826
:1049A000011220B731242C1220B6791220B6D2245D
:1049B0002D1220B67974FFF09000C804E4F0A3042F
:1049C000F09000C803E09000C806F09000C808749A
:1049D00002F09000C7FF1220B69FA3E0FFF460260C
:1049E0009000C8011220B78124291220B92CC0835D
:1049F000C0821220BCEA8002C333D8FCF45E7593F7
:104A000000D082D083F09000C7FF1220B69FA3E0B1
:104A100070339000C8011220B73124291220B679D2
:104A2000E41220B6D424251220B679E054FBF0E439
:104A30009000C809F07EC87F04122670AC1220BA1C
:104A4000FE1226E5E29000C7FF1220B69F1220BE9C
:104A50000F600301556E014B6D1220B99E759300D6
:104A6000E06404700280041220B99E759300A312C2
:104A700020BF6A8F821220B6A5A3E09000C816F06E
:104A80009000C8151220B7AA700301556EE01220DD
:104A9000B68A1220BB5F9000C816E0FFF460269033
:104AA00000C8011220B78124291220B92CC083C06C
:104AB000821220BCEA8002C333D8FCF45E759300F6
:104AC000D082D083F09000C816E06003014B6012E2
:104AD00020BAFE1220557C1220B672E054FB122040
:104AE000B6D424231220B679E054FBF09000C8011C
:104AF0001220B73124251220B679E054FB1220B6DB
:104B0000D424221220B679E054FB1220B6C3242C00
:104B10001220B679E0FFF4600D1220B77D2F12202D
:104B2000B679E0547FF09000C8011220B731242CF0
:104B30001220B6791220B6D2242D1220B679122076
:104B4000B6D224291220B679E41220BAFD1220BD73
:104B5000787B02FD12275A0F1220BAFE1226E5E2D8
:104B60009000C8151220BE0F600301556EFD12267D
:104B700002EC9000E24F014E879000C800E0240153
:104B8000FF9000C7FFE03400FE9000C815F0A3EFCF
:104B9000F0F5828E837593001220B7AA7003015539
:104BA0006EE49000C833F0A3F09000C803E0122038
:104BB000B68A1220B876242A1220B679E0FEA3E045
:104BC000FF9000C8331220BA19700301556E90008F
:104BD000C8331220B8B21220BEF4FFC39D50641235
:104BE00020BF71EF1220BE571220B752E582240475
:104BF0001220B679E0FCA3E01220BEFF2405FD9050
:104C000000C815E03400FC7B1A120012101220BFFD
:104C1000711220B768A3E075F004A4FFAEF0122073
:104C2000B7521220BCC21220BEFF9000C81512203D
:104C3000BC3A7B04120012109000C8331220B69FB9
:104C4000E004F09000C8331220B8B21220BEF46D18
:104C5000600301556E9000C833A3E0FF7CC87D1946
:104C60007AC87B171221084C9000C818EFF0F47036
:104C700003014D2D9000C8331220B69FA31220B817
:104C8000B2C083C0821220BED4D082D0831220BE94
:104C900091E0FD1220B6C424281220B679E0FF90DE
:104CA00000C818E004FB9000C83874C8F0A3741959
:104CB000F01223C8EF9000C8181220B78C242C12D1
:104CC00020B679EFF09000C8331220B8DCA3A3E03F
:104CD000FAA3E0F5828A83C083C0821220BED4D0BA
:104CE00082D0831220BE91E0FE1220B752E58224CA
:104CF0002D1220B679EEF09000E2421220B7922FEA
:104D00001220B679E04480F09000C818E0FF12202D
:104D1000B752E5822F1220B679E0547F6404700DFB
:104D20001220BAFEE4FBFA7DC21225A4FD9000C851
:104D3000331220B6C824041220B6791220558C9064
:104D400000C8331220B69FA31220558C9000C833A0
:104D5000E0FEA3E0FF122645791220B6C4242A12F1
:104D600020B679E4F0A3F0229000C7FF1220B69F8E
:104D70001220B7AA700301556EE01220B68A1220E5
:104D8000BB5F9000C8011220B731242E1220B679E3
:104D9000E4F01220BD891220B768A3A3A3E0C39456
:104DA00001FB1220B6D5242C1220B679EB1220B7C5
:104DB00051A31220B78B242D1220B679EF1220B701
:104DC00051E582242C1220B679E0FF9000E24212D5
:104DD00020B7922F1220B679E044801220B6C32467
:104DE0002C1220B6791220BF6AE0FF1220B752E5DC
:104DF000822F1220B6791220BF0A600301556E126D
:104E000020BAFEE4014F629000C7FF1220B69F1245
:104E100020B7AA700301556EE01220B68A1220B89E
:104E200076242E1220B679E4F09000C7FF1220B647
:104E30009FA3E0701E1220B78E24281220B679E0BE
:104E4000FF1220B752E582242D1220B679E0FD0230
:104E500027647B1220B6C4242C1220B679E0FFF41C
:104E6000600D1220B77D2F1220B679E0547FF090AC
:104E700000C8011220B731242C1220B6791220B6B6
:104E8000D2242D1220B67974FFF0229000C7FF12B1
:104E900020B69F1220B7AA700301556E9000C7FF7D
:104EA0001220B6C8241D1220B679E0600301556EA9
:104EB0009000C803E01220B68A1220B876242E1281
:104EC00020B679E4F0229000C7FF1220B69F12208E
:104ED000B7AA700301556E1220B6C4242E1220B654
:104EE00079E06401600301556E9000C803E0F91297
:104EF00020B68AAF82FE1220BB611220B78E242E0C
:104F00001220B6797401F09000C7FF1220B8DCA31C
:104F1000A3E0C39401FB1220B752E582242C122097
:104F2000B679EB1220B6D4242C1220B679E090008A
:104F3000E2421220BAEE2D1220B679E0448012200F
:104F4000B6D4242C1220B6791220BF6AE0FF1220BA
:104F5000B7A02F1220B6791220BF0A600301556E48
:104F6000AF01FBFA7DC20225A4FD9000C7FF12200D
:104F7000B69F1220B7AA700301556E9000C7FF12AA
:104F800020B69FA3E0600301556E9000C803E012B5
:104F900020B68A1220B876242E1220B67974011217
:104FA00020B6D424281220B679E0FF9000C8011260
:104FB00020B781242D1220B679E0FD0227649B9052
:104FC00000C7FF1220B69F1220B7AA700301556ECA
:104FD0001220B6881220B9151220B6797401F0900B
:104FE00000C8047420F0A374011220B74EE58201BA
:104FF000538D9000C7FF1220B69F1220B7AA7003EE
:1050000001556E9000C7FF1220B69FA3E060030118
:10501000556E9000C803E01220B68A1220B876249C
:105020002E1220B67974011220B6D424291220B68B
:1050300079E054029000C80170121220B6C82428EA
:105040001220B679E0FF12277195801E1220B792C8
:1050500024281220B679E0FF1220B752E582242DD1
:105060001220B679E0FD1227649B1220B6AF0153DF
:105070008D9000C7FF1220B69F1220B7AA700301BF
:10508000556EE49000C815F0A3F01220B6841220EB
:10509000B9151220B6797402F01225C44F7E009023
:1050A00000C815EEF0A3EFF06401700301556E1215
:1050B00020BCF7F460179000C7FF1220B764A3E08C
:1050C000FEEF6E60089000E24F122055969000C7E8
:1050D000FF1220B69F122055A4700C9000C7FF123B
:1050E00020B69F1220BE391220B6AF01538D90001A
:1050F000C7FF1220B69F1220B7AA700301556E1287
:1051000020BF601220B6A3A3A3E0600301556E90F8
:1051100000C803E01220B68A1220B9151220B67911
:105120007402F09000E24FE0FDF460148F821220D0
:10513000B6A5E0FFED6F60081220BCF7122055966F
:105140009000C7FF1220B69F122055A4700C90004B
:10515000C7FF1220B69F1220BE391220B6AF0153EE
:105160008D9000C7FF1220B69F1220B7AA700301CE
:10517000556E1220B6881220B9151220B679740126
:10518000F012275C021220B6AF01538D9000C7FFCA
:105190001220B69F1220B7AA700301556E9000C767
:1051A000FF1220B69FA3A3E0600301556E1220B644
:1051B000841220B9151220B6797401F012275C020E
:1051C0001220B6AF01538D9000C7FF1220B69F1278
:1051D00020B7AA700301556E1220B6881220B915A7
:1051E0001220B6791220559D1220B6C4242C12200C
:1051F000B679E0FFF4600D1220B77D2F1220B6794A
:10520000E0547FF09000C8011220B731242C122006
:10521000B6791220B6D2242D1220B67974FFF09000
:1052200000C7FF1220B69F1220BCF5B5060AE4FDA8
:10523000122602EC1220BC511220B6AF01538D9001
:1052400000C7FF1220B69F1220B7AA700301556E47
:105250009000C7FF1220B69FA3E0600301556E12B5
:1052600020B6841220B9151220B6791220559D124D
:1052700020B6C4242C1220B679E0FFF4600D122071
:10528000B77D2F1220B679E0547FF09000C801124C
:1052900020B731242C1220B6791220B6D2242D1238
:1052A00020B67974FFF09000C7FF1220B69F12203D
:1052B000BCF5B5060AE4FD122602EC1220BC511220
:1052C00020B6AF01538D9000C7FF1220B69F122069
:1052D000B7AA700301556E1220B6881220B91512B4
:1052E00020B679E4F012275C021220B6C4242C12F6
:1052F00020B679E0FFF4600D1220B77D2F1220B6A2
:1053000079E0547FF09000C8011220B731242C12AC
:1053100020B6791220B6D2242D1220B6791220B6EA
:10532000AC806A9000C7FF1220B69F1220B7AA7007
:105330000301556E9000C7FF1220B69FA3E06003E3
:1053400001556E1220B6841220B9151220B679E4E8
:10535000F012275C021220B6C4242C1220B679E089
:10536000FFF4600D1220B77D2F1220B679E0547F34
:10537000F09000C8011220B731242C1220B6791207
:1053800020B6D2242D1220B6791220B6AC242E12CB
:1053900020B679E09000C807F00155661220BD895B
:1053A0001220B768A3E0FF1220B7521220BCC1FD43
:1053B0009000C7FF1220B93C24051220B679E0FA0C
:1053C000A3E0FBE49000C83AF00226D5CF9000C7D6
:1053D000FF1220B69F1220B7AA700301556EE0128B
:1053E00020B68A1220BB5F229000C7FF1220B69F12
:1053F0001220B7AA700301556E9000C7FF1220B6A5
:105400009FA3E0229000C7FF1220B69F1220B7AAE8
:10541000700301556E9000C7FF1220B69FA3A3E052
:10542000600301556E9000C803E01220B68A122076
:10543000BB5F7F067E0012254F4A1220B78E242ABA
:105440001220B6791220B74DE582242A1220B679AF
:10545000E0FEA3E04E700301556E9000C7FF1220DE
:10546000B69F1220B78B242A1220B6791220B8DCFE
:10547000EF1220B751E582242A1220B6791220B605
:105480009FE41220B6C3242A1220B6791220B8B2A3
:10549000759300E075F004A4FFAEF012254F4A1298
:1054A00020B78E242A1220B6791220B8DCA3A312CA
:1054B00020B74DE582242A1220B6791220B69FA388
:1054C0001220BD45601E9000C8011220B781242A19
:1054D0001220B6791220B764E025E025E0FBE4FD58
:1054E0001200004F1220B6C4242A1220B6791220CE
:1054F000B8B27593001220BE5612254F4A1220B73B
:105500008E242A1220B6791220B93C24041220B627
:10551000791220B74DE582242A1220B6791220B6DE
:10552000C824041220B6791220BD4560419000C8FD
:10553000011220B781242A1220B6791220B764E024
:1055400075F01AA4FBE4FD0200004F1220BD891281
:1055500020B768E02400FEE434219000C804122043
:10556000BECC1220B9917EC87F04122670AC227A7C
:10557000001225A4FD9000C803E0FF227D0A122539
:10558000EDCC9000C801E0FEA3E0FF22E0FEA3E026
:10559000FF1226457922E4FD122602EC22E4F012E5
:1055A000275C0222E0FF7D01122602ECEF4E22E48E
:1055B0009000C51CF09000C518F0A3F0A3F0900077
:1055C000DB9FE06401601012234B1A701EA2904012
:1055D00003D38001C340149000D4F1E07002A3E033
:1055E0006006E4FF122285397FFF2212234A8CC312
:1055F0009000D5077005E094108003E09411FF90AF
:1056000000D506E09400FE9000D527E0FDC3EF9D95
:10561000FFEE94009000C516F0A3EFF09000624EEC
:10562000E0FF6406700301636DEF640C70030163B7
:105630006D9000C516E07002A3E0700301636D90E9
:1056400000DA9BE060076401600301636D1227715B
:105650003EEF600301636D9000D4DE12234A0524FF
:105660000C122349ABE0FEA3E0122349DF122349C9
:10567000ABE060030163629000D528E030E0659004
:1056800000EA2CE0705E12234B1A9000C51F7005D3
:105690007409F080037412F0122063F3EFF09000AD
:1056A000C520122349DA122349ABE4F0A37499F020
:1056B0009000C51F122349F7E5822407122349AB46
:1056C000EDF09000C52012234A152408122349AB9F
:1056D000740DF07F0712000451E49000D9FAF090A5
:1056E00000DA7EF09000D51CE0600301584D1223D3
:1056F00049B67AC57B1D7D10122064189000D5161E
:10570000E0700301584A9000C51DE0649C600301ED
:10571000584A9000C51904F0122349B67AC57B1D7A
:105720007D117C00122063B87AC57B1E7D12122089
:1057300064189000C51DE0FF9000D9FAE06F602268
:1057400012234B3270079000C519F080299000D9C0
:10575000FAEFF09000C51EE09000D53412234B21E3
:1057600080149000C51EE0FF9000D534E06F600605
:10577000EFF01224C7D99000C519E064016003015D
:1057800058CBA3E060030158CB9000C51F12234BF8
:105790003A9000C51FF012234ADDC39F4003015811
:1057A00034E4A3F09000C520E0FD12234B53506376
:1057B000122349B69000C522E02410FB9000C521B9
:1057C000E03400FA7C00EB2DFDEC3A1220639A9055
:1057D00000D575E02410FDE433FC9000C522E02DD7
:1057E000FD9000C521E03CFC9000C520E07A002D32
:1057F000FDEA3CFC7AC57B1E122749E99000C51ED4
:10580000E0FF9000C51DE0B507099000C520E00449
:10581000F080919000C520E0640370189000D57569
:10582000E0FF9000C52112234B069000C51FE00445
:10583000F001579612234ADD6F70030158CBE490B4
:1058400000C519F09000C51C80297FFF2212234A51
:105850008C70259000C5190412234A9970111223E7
:105860004B3270079000C519F0800412234B229030
:1058700000D9FA74FFF080539000D516E0604C1206
:105880002349B67AC57B1F7D117C00122749E99018
:1058900000C51FE054F8F09000C519740112234AA6
:1058A0009954F812234AE5FEB507089000D528E080
:1058B00030E01812234B3270079000C519F0800BAE
:1058C000EE44079000D9FA12234B219000C519E04D
:1058D000700301636DA3E060601200048A12234923
:1058E000CB122349ABE4F0A3740B12234A99FB12A9
:1058F0002349A0EBF07F08120004519000D528E066
:1059000054FEF0E4FF122285399000625CE060767C
:1059100012234A6B6005EF6409706BE49000DB9B17
:10592000F01200048A12234980741EF09000C51FF3
:10593000E0FCA3E0FD7F0780499000624EE0FF6439
:105940000D6043EF6404603EEF640360399000DA59
:1059500095E0640460309000624EE0640A6027EFD6
:10596000640C60221200048A122349CB122349AB33
:10597000E4F0A3740B12234A99FB122349A0EBF025
:105980007F08120004519000C516E0FEA3E09000CD
:10599000D4DE12234ACFA3A3EEF0A3EFF08D828CC6
:1059A00083759300A3A3E475F01012000B09900017
:1059B000F62AE09000C518F0600301617112234AD5
:1059C0008C70089000C51B04F0800C9000D516E088
:1059D000540F9000C51BF09000EA16E060531223AC
:1059E0004A6B6005EF640970489000D50D12234A98
:1059F0000F2409122349ABEFF09000D50312234A7C
:105A00002D2408122349ABEFF09000D4F5E0540F99
:105A10006401700A9000D500E09000D4E0F01223F9
:105A20004A2F2409122349ABE09000EA40F0015CC0
:105A3000C6E49000C520F09000D53DE004F01223AC
:105A40004A0F2409122349AB12234A779000D54507
:105A5000E02FF09000D510E0FBA3E09000C521CB33
:105A6000F0A3EBF09000D4DBE0F4607EE004F09073
:105A700000D4DDE0FEEFC39E400C9000C51BE0901B
:105A800000D4DDF0801E9000D4F3E0FF9000C51B31
:105A9000E0FEC39F40089000D4F3EEF08006900033
:105AA000D4DCEEF09000D4DBE06414703D74FFF0C1
:105AB0009000D4F3E0700A9000D4DDE09000D4F3BD
:105AC000F09000D4DCE0700A9000D4F3E09000D4B1
:105AD000DCF09000D4F3E0FF9000D4DDE02FFF90E5
